:020000040800F2
:10000000480D00204501000811170008551400088C
:100010000D17000845070008072A00080000000027
:100020000000000000000000000000002520000883
:10003000C311000800000000EF1A00088922000820
:100040005F0100085F0100085F0100085F01000810
:100050005F0100085F0100085F0100085F01000800
:100060005F0100085F0100085F0100085F010008F0
:100070005F0100085F0100085F0100085F010008E0
:100080005F0100085F0100085F0100085F010008D0
:100090005F0100085F0100085F0100085F010008C0
:1000A0005F0100085F0100085F0100085F010008B0
:1000B000F12200082D2300085F0100085F010008FD
:1000C0005F0100085F0100085F0100085F01000890
:1000D0005F010008A52600085F0100085F01000815
:1000E0005F0100085F0100085F0100085F01000870
:1000F0005F0100085F0100085F0100085F01000860
:100100005F0100085F010008552300085F01000837
:100110005F0100085F0100085F0100085F0100083F
:100120005F0100085F010008FD0E00085F01000884
:10013000DFF80CD000F0F2F900480047CD2A0008A3
:10014000480D00200648804706480047FEE7FEE7C6
:10015000FEE7FEE7FEE7FEE7FEE7FEE7FEE7FEE777
:10016000912200083101000880EA010210B502F076
:100170000043400022D04A001FD0010E01EB126163
:10018000C0F35600C2F3560240F4000042F40002ED
:10019000A0FB022000047F39140400D0401C50EA68
:1001A000124001D44000491EC2B20C0604EBD0102C
:1001B000401C4008802A02D003E0002010BD20F03F
:1001C0000100002900DA0020184310BD2DE9FE4F80
:1001D000804681EA0300C00F0C46009021F00041E8
:1001E00023F00045B8EB0200A94105D24046214664
:1001F00090461C460B46024623F00040104347D071
:10020000270DC7F30A00C3F30A510290401A019068
:1002100040286BDAC3F3130040F4801B0098924629
:1002200020B10023D2EB030A63EB0B0B0198594674
:10023000C0F14002504600F0BCF806460D4650465C
:100240005946019A00F0C4F810EB080061410024FF
:1002500087EA115284EAE7731A4340D0009A62B3E6
:10026000019A012A4FEA075215DC001B61EB0201DB
:100270004FF0004202EA0752CDE90042001C41F56E
:10028000801132462B4600F0FBF803B0BDE8F08F3A
:1002900040462146F9E7001B61EB0201001C41F5D5
:1002A000801300185B412018A2F5001747EB0301EB
:1002B00040EAD570B6196D4111E06D084FEA360677
:1002C00045EAC0754FEA0752001B61EB0201001CB2
:1002D00041F5801149084FEA30000019514132467A
:1002E0002B4603B0BDE8F04F00F0BBB800980122E8
:1002F00040000023D0EB020263EBE073009821463C
:100300004FEAE074B8EB000061EB0401E9E783F029
:1003100000435BE781F0004158E7C10F80EAE070DD
:100320000844CA079623002100F06DB820F0004071
:10033000C10DC0F3160040F400007F2901DA00204F
:100340007047962903DCC1F19601C8407047963981
:100350008840704700F0004230F000400AD0C10DE4
:1003600001F56071C0F3160042EA0151C20840076E
:100370001143704700200146704701F0004330B43C
:1003800021F0004150EA010206D00A0DA2F5607288
:10039000C1F31301002A02DC30BC00207047440F77
:1003A00044EAC104C100E01830BC00EBC25000F0C8
:1003B00021B8202A04DB203A00FA02F1002070471D
:1003C0009140C2F1200320FA03F319439040704793
:1003D000202A06DBCB17203A41FA02F043EAE07309
:1003E00006E041FA02F3D040C2F1200291400843F6
:1003F000194670470029A8BF7047401C490008BF34
:1004000020F00100704710B4B0FA80FC00FA0CF044
:1004100050EA010404BF10BC704749B1CCF120047C
:1004200021FA04F411FA0CF118BF01212143084309
:10043000A3EB0C01CB1D4FEA00614FEA102042BF35
:10044000002010BC704700EBC35010440029A4BF2B
:1004500010BC7047401C490008BF20F0010010BCD0
:10046000704710B5141E73F1000408DA401C41F106
:10047000000192185B411A4301D120F0010010BD28
:100480002DE9F04D92469B4611B1B1FA81F202E09E
:10049000B0FA80F220329046FFF78BFF04460F46F9
:1004A00040EA0A0041EA0B0153465A46084313D07A
:1004B000114653EA010019D0C8F14002504600F03D
:1004C0003FF805460E46504659464246FFF771FF33
:1004D000084305D0012004E020463946BDE8F08DF0
:1004E0000020054346EAE0762C4337430A9863052B
:1004F000E40AA0EB08000022FD0A44EA47540A304F
:1005000002D500200146E9E7010510196941DDE93E
:10051000084500196941BDE8F04DA2E7064C074DBA
:1005200006E0E06840F0010394E8070098471034C3
:10053000AC42F6D3FFF700FE783500089835000886
:10054000202A04DB203A21FA02F00021704721FA28
:1005500002F3D040C2F1200291400843194670478F
:1005600070B58D1810F8014B14F0030201D110F88A
:10057000012B231106D110F8013B03E010F8016BA9
:1005800001F8016B521EF9D1ABB110F8012B04F048
:100590000C048A1A0C2C03D0A2EB84129B1C08E0DA
:1005A00010F8014BA2EB0422F8E712F8014B01F816
:1005B000014B5B1EF9D5A942D4D3002070BD21B1F7
:1005C000826842F00102826003E0826822F0010248
:1005D0008260704721B1826842F48072826003E0D9
:1005E000826822F480728260704721B1826842F48E
:1005F0008012826003E0826822F480128260704779
:10060000014600208A6802F004020AB1012000E0DD
:1006100000207047014600208A6802F008020AB1F3
:10062000012000E00020704730B502460020002382
:1006300050680F4C20400D790C6844EA0524204393
:10064000506090680B4C2040D1E902542C434D7906
:1006500044EA450420439060D06A20F470000C7C8A
:10066000641EE4B2234340EA0350D06230BD000070
:10067000FFFEF0FFFDF7F1FFF0B504460D46002048
:100680000021092D11DDE068A5F10A0606EB4607F9
:10069000072606FA07F18843A5F10A0606EB460687
:1006A00003FA06F10843E0600CE0206905EB45071A
:1006B000072606FA07F1884305EB450603FA06F11B
:1006C00008432061072A0FDA606B561E06EB860787
:1006D0001F2606FA07F18843561E06EB860605FA22
:1006E00006F10843606322E00D2A0FDA206BD61F63
:1006F00006EB86071F2606FA07F18843D61F06EB8E
:10070000860605FA06F10843206310E0E06AA2F1CC
:100710000D0606EB86071F2606FA07F18843A2F1AD
:100720000D0606EB860605FA06F10843E062F0BD09
:10073000816841F0080181607047816841F00401DF
:100740008160704700BFFEE70020014908707047D4
:100750001B00002000200149087070471A0000208B
:1007600000B587B04FF4004001F09AFA0121480229
:1007700001F0D2FA0121042001F0CEFA0220ADF8F6
:10078000180000208DF81B0006A91E4800F09AFDF5
:100790000020019001208DF8080000208DF809004C
:1007A0004FF4002003900020049001208DF81400E5
:1007B00001A91548FFF738FF072301221146124807
:1007C000FFF75AFF01211048FFF704FF01210E48EF
:1007D000FFF70BFF01210C48FFF7F1FE0A48FFF776
:1007E000A7FF00BF0848FFF715FF0028FAD1064809
:1007F000FFF7A3FF00BF0448FFF702FF0028FAD16C
:1008000007B000BD000801400024014000B585B0DC
:100810000121042001F080FA0121480701F05CFA6F
:100820001020ADF8100003208DF8120000208DF884
:10083000130004A90C4800F045FD2C200090002076
:10084000019002900390694600F02EFB01210020E8
:1008500000F014FB0021084600F040FB01210020BD
:1008600000F0F8FA05B000BD0008014000B58BB0FB
:100870000121084601F020FA114800F079FB1148E7
:100880000090114801900020029001200390002068
:100890000490802005904000069080000790202062
:1008A0000890C001099000200A906946044800F0B1
:1008B00024FC0121024800F04FFB0BB000BD0000FA
:1008C000080002404C2401402200002003B58DB0F6
:1008D0000121022001F0F0F91A4800F049FB1A4802
:1008E00002900D9803900E9805901020049000201F
:1008F00006908020079040000890800009902020FA
:100900000A9000020B9000200C9002A90D4800F004
:10091000F4FB3A208DF8040000208DF805008DF8D6
:10092000060001208DF8070001A800F0FFFE01225B
:100930000221044800F0D8FB0121024800F00CFB22
:100940000FB000BD300402400874004008B501211A
:10095000042001F0E1F90121102001F0DDF902206D
:10096000ADF8000001208DF8020048208DF803004A
:1009700069460E4800F0A6FC0220ADF800000120F8
:100980008DF8020048208DF803006946074800F002
:1009900099FC0120ADF800008DF8020048208DF888
:1009A00003006946024800F08DFC08BD00100140BC
:1009B0000008014008B50121102001F0ADF9102018
:1009C000ADF8000003208DF8020010208DF8030020
:1009D00069460D4800F076FC012210210A4800F01B
:1009E00012FD2020ADF8000003208DF80200102039
:1009F0008DF803006946044800F064FC00222021C1
:100A0000014800F000FD08BD0010014010B54FF492
:100A1000A06000F0C3FE10BD08B50121042001F064
:100A20007BF90121082001F077F90121102001F064
:100A300073F94FF40050ADF8000010208DF803005A
:100A400003208DF802006946294800F03BFC4FF472
:100A50000051274800F0D5FC4FF40040ADF80000ED
:100A600010208DF8030003208DF80200694620480D
:100A700000F028FC4FF400411D4800F0C2FC4FF488
:100A80008040ADF8000010208DF8030003208DF8A1
:100A900002006946164800F015FC4FF480411448E6
:100AA00000F0AFFC4FF48050ADF8000010208DF83E
:100AB000030003208DF8020069460D4800F002FC97
:100AC0004FF480510A4800F09CFC0820ADF800006B
:100AD00010208DF8030003208DF8020069460548B8
:100AE00000F0F0FB0821034800F08BFC08BD00007B
:100AF000000C01400010014010B50021AE2000F0B4
:100B00003BFF0021D52000F037FF0021502000F0EE
:100B100033FF0021A82000F02FFF00213F2000F02C
:100B20002BFF0021D32000F027FF0021084600F012
:100B300023FF0021402000F01FFF00218D2000F046
:100B40001BFF0021142000F017FF0021202000F0DF
:100B500013FF0021022000F00FFF0021A12000F070
:100B60000BFF0021C02000F007FF0021DA2000F079
:100B700003FF0021122000F0FFFE0021812000F081
:100B8000FBFE0021EF2000F0F7FE0021D92000F04D
:100B9000F3FE0021F12000F0EFFE0021DB2000F049
:100BA000EBFE0021302000F0E7FE0021A42000F041
:100BB000E3FE0021A62000F0DFFE0021AF2000F0C0
:100BC000DBFE10BD10B501F0C7F84FF4803001F026
:100BD00085F901F0E1F90446012C24D1102000F040
:100BE00057FB022000F062FB002001F06BF90020AF
:100BF00001F0A6F9A00201F097F94FF4E0112004EA
:100C000001F0B0F9012001F0A7F900BF392001F08F
:100C100033F90028FAD0022001F0B2F900BF01F048
:100C200049F90828FBD110BD7FB505460C460121C6
:100C3000084601F051F8ADF80850ADF80440002026
:100C4000ADF80A00ADF8060001A94FF0804001F0B0
:100C5000CBFC01221146900701F0B3FC1C208DF85B
:100C6000000000208DF8010003208DF80200012013
:100C70008DF80300684600F059FD0121880701F056
:100C80008EFB7FBD7FB505460C460121022001F099
:100C900023F8ADF80850ADF804400020ADF80A0084
:100CA000ADF8060001A90F4801F09EFC20210D4877
:100CB00001F090FC012211460A4801F082FC1D203F
:100CC0008DF8000001208DF801008DF802008DF8EC
:100CD0000300684600F02AFD0121024801F05FFB95
:100CE0007FBD0000000400403EB505460C460121D2
:100CF000042000F0F1FF0C4801F05EFBADF8045059
:100D0000ADF800400020ADF80600ADF802006946DD
:100D1000054801F069FC2021034801F05BFC01213A
:100D2000014801F03CFB3EBD000800407FB5054690
:100D30000C460121082000F0CFFFADF80850ADF8B7
:100D400004400020ADF80A00ADF8060001A90E48E5
:100D500001F04AFC012211460B4801F032FC32201E
:100D60008DF8000000208DF8010003208DF80200AE
:100D700001208DF80300684600F0D8FC01210248EC
:100D800001F00DFB7FBD0000000C004010B586B0E7
:100D900004460121880300F0BFFF0121042000F078
:100DA000BBFF4FF40070ADF8140018208DF8170049
:100DB00003208DF8160005A9234800F083FA4FF4AC
:100DC0008060ADF8140004208DF8170003208DF822
:100DD000160005A91C4800F075FA01A801F0A3FD52
:100DE00001940020ADF80800ADF80A00ADF80C0041
:100DF0000C20ADF80E000020ADF8100001A913483A
:100E000001F01CFD25208DF8000001208DF8010067
:100E10008DF802008DF80300684600F087FC01227F
:100E200040F22551094801F0E4FC012240F227710B
:100E3000064801F0DEFC0121044801F097FC002087
:100E40000349087006B010BD000801400038014099
:100E50002000002039B1084A1268012383401A4358
:100E6000054B1A6006E0044A1268012383409A4346
:100E7000014B1A60704700000074004041B1094AFC
:100E800012684FF4805383401A43064B1A6007E000
:100E9000044A12684FF4805383409A43014B1A600E
:100EA000704700000074004030B5002200230A4C57
:100EB000226840F6FE748440A243D1E900452C43E9
:100EC0008D682C43CD6844EA050303FA00F42243FD
:100ED000014C226030BD00000074004008B50022C3
:100EE0000092054A009200F10802009B1A44009209
:100EF000009A116008BD00000074004010B50B4856
:100F000000F0DCF880B13A2000F01F02012191408E
:100F1000074A430942F8231000BF064800F00EF8C4
:100F2000054803C8FFF7D2FC10BD00000002001006
:100F300080E200E0000100102400002000F0805159
:100F400011B10349086001E00249486070470000A0
:100F5000040402400000024021B1026842F0010294
:100F6000026004E002684FF6FE731A4002607047A8
:100F700001684FF6FE72114001600021016041607E
:100F80008160C1604B49884208D14A4908394968A3
:100F900041F00F01474A083A51608AE0454914314F
:100FA000884208D143490839496841F0F001414A73
:100FB000083A51607DE03F492831884208D13D49D7
:100FC0000839496841F470613A4A083A516070E062
:100FD00038493C31884208D136490839496841F4DA
:100FE0007041344A083A516063E0324950318842D6
:100FF00008D130490839496841F470212D4A083A2E
:10100000516056E02B496431884208D1294908399A
:10101000496841F47001274A083A516049E025497E
:101020007831884208D123490839496841F0706114
:10103000204A083A51603CE01F49884206D1011F0E
:10104000096841F00F01021F116032E01A491431A2
:10105000884208D11849091F096841F0F001164A71
:10106000121F116025E014492831884208D1124925
:10107000091F096841F470610F4A121F116018E0DE
:101080000D493C31884208D10B49091F096841F4D8
:101090007041094A121F11600BE007495031884224
:1010A00007D10549091F096841F47021024A121F3E
:1010B0001160704708000240080402400146002009
:1010C000002201F0805313B1054B1A6801E0054B73
:1010D0001A6802EA01030BB1012000E0002070470A
:1010E00000040240000002401AB103680B43036091
:1010F00002E003688B430360704710B5002202686A
:1011000047F6F0739A430C6A8B6823430C692343B8
:101110004C6923438C692343CC6923434C6A2343A2
:101120008C6A23431A430260CB6843600B68836078
:101130004B68C36010BD30B50346002016E0B3F91C
:1011400000509C68645D0C541C88641C24B21C8094
:10115000B3F90040B3F90450AC4201DB00241C8019
:10116000441C20B2DC88641E24B2DC80B3F9064043
:10117000002C01DD9042E2DB30BD30B5034600209B
:1011800018E0B3F900509C6834F8154021F810407D
:101190001C88641C24B21C80B3F90040B3F90450CD
:1011A000AC4201DB00241C80441C20B2DC88641E9D
:1011B00024B2DC80B3F90640002C01DD9042E0DB74
:1011C00030BD704701B504490098086000BF02486F
:1011D00000680028FBD108BD6003002070B50346FD
:1011E000002016E00C5CB3F902609D68AC555C8889
:1011F000641C24B25C80B3F90240B3F90450AC42E1
:1012000001DB00245C80441C20B2DC88641C24B216
:10121000DC80B3F90640B3F90450AC4201DA9042E5
:10122000E0DB70BD70B50346002018E031F81040D7
:10123000B3F902609D6825F816405C88641C24B2EE
:101240005C80B3F90240B3F90450AC4201DB0024E6
:101250005C80441C20B2DC88641C24B2DC80B3F9BE
:101260000640B3F90450AC4201DA9042DEDB70BDB7
:1012700010B5012004490870012240F2277103488B
:1012800001F0B7FA10BD0000200000200038014036
:101290000549096821F01001034A116011460968E7
:1012A0000143116070470000002002400146002009
:1012B000034A106800F038000843106070470000CF
:1012C000002002402DE9F0410246002500260020C2
:1012D00000230024002791F803C00CF00F0591F8BB
:1012E00003C00CF0100CBCF1000F03D091F802C049
:1012F0004CEA050591F800C0BCF1000F31D014682C
:1013000000202BE04FF0010C0CFA00F3B1F800C004
:101310000CEA03069E4220D183004FF00F0C0CFA1A
:1013200003F7BC4305FA03FC4CEA040491F803C03C
:10133000BCF1280F06D14FF0010C0CFA00FCC2F8EA
:1013400014C00AE091F803C0BCF1480F05D14FF07A
:10135000010C0CFA00FCC2F810C0401C0828D1D3C4
:101360001460B1F800C0BCF1FF0F34DD54680020F8
:101370002EE000F1080C4FF0010808FA0CF3B1F868
:1013800000C00CEA03069E4221D183004FF00F0CEF
:101390000CFA03F7BC4305FA03FC4CEA040491F889
:1013A00003C0BCF1280F05D100F1080C08FA0CF8B5
:1013B000C2F8148091F803C0BCF1480F07D100F1C6
:1013C000080C4FF0010808FA0CF8C2F81080401C15
:1013D0000828CED35460BDE8F0810246002093680F
:1013E0000B400BB1012000E00020704702460020B6
:1013F000D3680B400BB1012000E000207047416131
:101400007047016170470AB1016100E041617047B6
:1014100001480078704700001B0000200148007858
:10142000704700001A00002000487047BC010020EF
:10143000004870472C0000200048704784020020BC
:1014400003490A6802604A6842600989018170475D
:101450007C03002000BFFEE710B540F2CF214FF41F
:101460007A70FFF70FFCFFF77BF9FFF7FFF96422B3
:101470000249034800F0E4F810BD00007C08002099
:101480007008002010B5FFF7D3FF07490860C82097
:101490004860FFF7BBF90B213B20FFF725FC024812
:1014A00003C8FFF713FA10BD2400002010B500F0A8
:1014B000EFFE00F078F800F023F84FF4E13000F090
:1014C000D2F800F0B1F800F017F800F079F8FFF763
:1014D000C3FFFFF7D7FF00F017F800F001F810BDC9
:1014E00010B5FFF733FA0020024908704870887081
:1014F00010BD00001100002010B5FFF75BFA10BD11
:1015000010B5FFF783FA10BD10B5FFF785FA4FF459
:1015100080410948FFF773FF0A20FFF753FE4FF49D
:1015200080410548FFF76DFF0A20FFF74BFEFFF7EC
:10153000E3FA00F03DF910BD000C014000210C4A17
:10154000117051709170002005E000220849C91CFB
:101550000A54411C08B20728F7DB0021044A5172E3
:10156000044A1170044A1170044A11707047000057
:101570007C0300200E0000200F000020100000203F
:10158000704730B50B460024048044808280C480BC
:101590008360002104E0002485686C544C1C21B257
:1015A0009142F8DB30BD10B5FFF70CFB10BD704762
:1015B00010B5FFF7C3FFFFF7E3FFFFF7F8FF10BD1C
:1015C00030B5164800684FF47A72B0FBF2F1B1F111
:1015D000807F01D301201DE021F07F40401E4FF0AD
:1015E000E022506150170F22002807DA13071D0E62
:1015F0000B4B00F00F04241F1D5503E013071C0EB6
:10160000084B1C5400BF00204FF0E02290610720DF
:101610001061002008B100BFFEE730BD6403002068
:1016200018ED00E000E400E010B5472140F2E7309B
:10163000FFF7FAFA472140F2E730FFF777FB10BDDA
:1016400030B50B460024048044808280C4808360CF
:10165000002105E00024856825F811404C1C21B2CA
:101660009142F7DB30BD10B5044600F005F8204686
:10167000FFF78CFB10BD000010B5002406E0002031
:101680000949085509490855601C04B2642CF6DB69
:10169000642205490648FFF774FF642203490548A0
:1016A000FFF76FFF10BD0000A80700200C08002006
:1016B000900700209C07002070B504461148008860
:1016C000401C1049088008460088A04219DB002011
:1016D000088010210C48FFF789FEC0F10100C5B257
:1016E0002A4610210848FFF78EFE20210648FFF702
:1016F0007DFEC0F10100C5B22A4620210248FFF755
:1017000082FE70BD0C0000200010014000BFFEE70B
:101710007047000000F01F0201219140024A430976
:1017200042F823107047000080E200E070B500210D
:1017300000230F22C47804B3154C246804F4E06439
:10174000C4F5E064210AC1F10403CA40447804FAF4
:1017500003F184781440214309010E4C0678A15509
:10176000047804F01F050124AC4005786D11AD002C
:1017700005F1E025C5F8004109E0047804F01F05F3
:101780000124AC40044D0678761145F8264070BD22
:101790000CED00E000E400E080E100E002490143DC
:1017A000024A1160704700000000FA050CED00E0ED
:1017B00000200CE0002106E00022064B03EBC103F1
:1017C0001A544A1CD1B28029F6DB421CD0B2082838
:1017D000F0DB704790030020F0B5144600267F2808
:1017E00001DC3F2900DDF0BD0B46CF1701EB577739
:1017F000FF10C7F10707FAB2CF1701EB5777FF10B9
:10180000A1EBC707FDB2C5F107070123BB40DEB25C
:101810004CB10A4B03EBC0039B5C3343074F07EB10
:10182000C007BB5408E0054B03EBC0039B5CB3430C
:10183000024F07EBC007BB5400BFD4E79003002062
:1018400070B500241CE004F1B001C8B2002100F022
:1018500093F80021084600F08FF80021102000F0D6
:101860008BF8002508E0084901EBC501085D01215E
:1018700000F082F8681CC5B2802DF4DB601CC4B295
:10188000082CE0DB70BD0000900300202DE9F05F24
:1018900080460C4615461E46A346A5F12000C5B25B
:1018A00000273EE00C2E07D105EB45001F4901EB58
:1018B000800010F8079004E01D4800EB051010F8B8
:1018C00007904FF0000A26E009F0800028B1214679
:1018D00040460A9AFFF780FF09E00A9808B90120FC
:1018E00000E00020024621464046FFF775FF4FEA20
:1018F00049604FEA1069601CC4B2A4EB0B00B0420F
:1019000005D15C4608F1010000F0FF0806E00AF18D
:10191000010000F0FF0ABAF1090FD5DB00BF781C07
:10192000C7B2B742BEDBBDE8F09F0000142B000831
:10193000882F0008F8B505460E46144618E07A2DA3
:1019400003DD002506F11000C6B23A2E04DD0020AA
:1019500005460646FFF72CFF012000902278102351
:1019600031462846FFF792FF05F10800C5B2641C16
:1019700020780028E3D1F8BD70B504460D4625B99E
:1019800008211C48FFF73BFD05E0012D03D108218C
:101990001848FFF736FD4FF480511748FFF72FFD29
:1019A00000261BE04FF400511348FFF728FD04F018
:1019B000800028B14FF400410F48FFF722FD04E0FA
:1019C0004FF400410C48FFF71AFD4FF400510A484C
:1019D000FFF717FD6006040E701CC6B2082EE1DB8F
:1019E0004FF480510448FFF70CFD08210148FFF730
:1019F00008FD70BD00100140000C01401CB50446FC
:101A00006CB12048C078022803D100201D49C8705D
:101A100006E01C48C078401C1A49C87000E000BFAE
:101A2000FFF7C6FE1748C07840B9FFF701FD0090E8
:101A300015A218210846FFF77DFF18E01148C0786D
:101A4000012808D1FFF7F8FC009010A218210846E1
:101A5000FFF770FF0BE00B48C078022807D1FFF7B3
:101A6000E3FC00900AA218210846FFF763FFFFF786
:101A7000E7FEC8200190DDE9000100F089FB0020AD
:101A80001CBD00008603002053494E0054524900FB
:101A9000524543540000000070B5044600252078EC
:101AA000802803DA0125204600F002F8284670BDA0
:101AB00010B50378002208210DE05406220E445C84
:101AC00042EAD412445C44F080044454445C1C4414
:101AD000E3B24C1EE1B20129EFDC42F08004447015
:101AE00044781C44E3B243F08004447210BD704754
:101AF00010B5FFF78DFC08B1FEF726FE10BD000003
:101B00002DE9FC41FFF78AFC002871D001216846CD
:101B100000F07AFA18B19DF8000000F083F835481B
:101B20000078401C334908700846007804285ADBC6
:101B3000314A3249002000F077FA314A3149012018
:101B400000F072FA68B130480068FEF703FC054601
:101B50002E4A2F4BFEF73AFB0746FEF70EFC2A49AA
:101B600008602C4A2C49022000F05EFA68B1264831
:101B70000068FEF7EFFB0546244A254BFEF7C7FB3E
:101B80000746FEF7FAFB2049086001A800F020FA9A
:101B900030B3BDF80400C0EBC01040F6FF7190FBFD
:101BA000F1F73846FEF7B9FB06461748016830469C
:101BB000FEF7DAFA0546FEF7B9FBC4B21748184932
:101BC0000978445416480078401C154908700846A6
:101BD0000078052804DB00200870104800F0B9FAEE
:101BE000002004490870FA20FFF766FDFEF7B2FDF9
:101BF000BDE8FC8104000020711C00088B1C00085B
:101C0000871C00088D1C0008000000209A999999F3
:101C10009999B93F891C00088F1C00080600002014
:101C2000050000203EB5044619E06846FFF708FCB1
:101C30000E480099016001994160BDF808100181CA
:101C40000078712809D10020FFF7D8FE05462A4602
:101C50008021712000F044FA00E000BF00BF204660
:101C600000F06EFE0028E0D13EBD0000860300209B
:101C700010B50120FFF7C2FEC4B2224680217120B8
:101C800000F02EFA10BD70477047704770477047DC
:101C90000146C88808B9012070470020FCE7000011
:101CA00001460020034A506820F440400843506039
:101CB000704700000010024029B1064A52690243F1
:101CC000044B5A6104E0034A52698243014B5A6152
:101CD000704700000010024029B1064AD269024351
:101CE000044BDA6104E0034AD2698243014BDA61B2
:101CF000704700000010024029B1064A12690243F1
:101D0000044B1A6104E0034A12698243014B1A61D1
:101D1000704700000010024029B1064A9269024350
:101D2000044B9A6104E0034A92698243014B9A6131
:101D3000704700000010024029B1064AD2680243F1
:101D4000044BDA6004E0034AD2688243014BDA6054
:101D500070470000001002400F48006840F001008A
:101D60000D490860084640680C4908400A49486027
:101D7000084600680A4908400749086008460068A4
:101D800020F4802008600846406820F4FE00486087
:101D90004FF41F0088607047001002400000FFF8F9
:101DA000FFFFF6FE30B500210022002400232D4D58
:101DB0006D6805F00C0121B1042905D0082923D153
:101DC00005E0294D056022E0274D05601FE0254D07
:101DD0006D6805F47012234D6D6805F4803402259A
:101DE00005EB92421CB9214D554305600BE01D4D9A
:101DF0006D6805F400351DB11C4D5543056002E0CA
:101E0000194D5543056002E0174D056000BF00BF46
:101E1000144D6D6805F0F0010909154D6B5C0568FE
:101E2000DD4045600F4D6D6805F4E061090A104D15
:101E30006B5C4568DD4085600A4D6D6805F4605156
:101E4000C90A0B4D6B5C4568DD40C560054D6D688A
:101E500005F44041890B074D6B5CC568B5FBF3F594
:101E6000056130BD0010024000127A0000093D00FB
:101E70004C0300205C03002010B501460022002323
:101E800000204A11012A02D1094C236806E0022AE7
:101E900002D1074C236A01E0054C636A01F01F027E
:101EA000012494401C400CB1012000E0002010BD32
:101EB000001002400248406800F00C00704700002B
:101EC0000010024001460020034A506820F0F00054
:101ED0000843506070470000001002401149096833
:101EE00021F480310F4A11601146096821F48021E4
:101EF0001160B0F5803F03D0B0F5802F0ED106E021
:101F00000849096841F48031064A116007E0054933
:101F1000096841F4A021034A116000E000BF00BF3E
:101F2000704700000010024001460020034A50683C
:101F300020F4E06008435060704700000010024049
:101F400001460020034A506820F4605040EAC10076
:101F50005060704700100240014908667047000059
:101F60000000424202460020044B586820F47C10D6
:101F700042EA01031843014B5860704700100240C9
:101F800001460020034A506820F0030008435060D7
:101F9000704700000010024038B500200090002477
:101FA000002500BF3120FFF767FF05460098401C61
:101FB00000900098B0F5A06F01D0002DF2D0312034
:101FC000FFF75AFF08B1012400E00024204638BD85
:101FD00070B504460025012221460348FFF7CDF8DD
:101FE000C5B2284670BD00007008002070B50446D8
:101FF0000025012221460348FFF79DF8C5B2284677
:1020000070BD00009007002070B504460D46002604
:102010002A4621460248FFF78EF8C6B2304670BD08
:102020009C0700207047000070B504460D46164618
:102030002648005D4006000E2449085524B1012CB5
:102040000CD0022C1ED113E002212148FFF7C5F964
:102050001E49095D08431D49085514E004211C4828
:10206000FFF7BBF91949095D0843184908550AE00B
:1020700001211848FFF7B1F91449095D08431349D4
:10208000085500E000BF00BF1048005D1249095D1F
:10209000884209D11148005D012805D1B0470020D0
:1020A0000E490855012070BD0848005D0A49095DC8
:1020B000C943C9B2884206D10848005D18B9A8478B
:1020C0000120064908550020EDE70000140000201B
:1020D00000100140000801401100002017000020FE
:1020E000FEB504460E46154601208DF8000004207A
:1020F0008DF802008DF803408DF804608DF80550CE
:1021000000218DF806108DF807108DF8081068462C
:1021100000F012F8FEBD000010B50446E1B205481B
:1021200000F0FDFB00BF4021024800F02BFB00281F
:10213000F9D010BD0038014070B504462046FFF7C5
:10214000ABFC0546002D03DD0A21204600F076FC9D
:1021500070BD3EB5044671208DF8000001208DF859
:10216000020020788DF8030061788DF80410A178C2
:102170008DF80510E1788DF8061021798DF807109B
:1021800000218DF808106846FFF7D6FF3EBD00001D
:1021900003B50248DDE9001206C00CBD2400002092
:1021A00010B500F001F810BD0CB5002001900090B2
:1021B0003348006840F480303149086000BF30483F
:1021C000006800F4003000900198401C01900098D5
:1021D00018B90198B0F5A06FF1D12948006800F452
:1021E000003010B10120009001E000200090009824
:1021F000012843D12348006840F0100021490860BD
:102200000846006820F0030008600846006840F0B7
:10221000020008601A48406819494860084640684A
:1022200048600846406840F480604860084640685E
:1022300020F47C1048600846406840F4E81048608C
:102240000846006840F08070086000BF0C480068D5
:1022500000F000700028F9D00948406820F0030021
:10226000074948600846406840F00200486000BFE7
:102270000348406800F00C000828F9D10CBD0000AC
:10228000001002400020024010B500F0FFF910BD20
:1022900010B51348006840F0010011490860084675
:1022A0004068104908400E494860084600680E49D9
:1022B00008400B4908600846006820F48020086048
:1022C0000846406820F4FE0048604FF41F00886014
:1022D000FFF766FF4FF000600449086010BD000082
:1022E000001002400000FFF8FFFFF6FE08ED00E0DE
:1022F00010B50121880700F053F9012803D101210D
:10230000800700F049F807480088401C054908800C
:1023100008460088022804DB0020088001200249CA
:10232000087010BD1C0000201A00002010B501210B
:10233000064800F035F918B10121044800F02CF8E6
:102340000348008800F062FB10BD0000000400405C
:102350002200002010B501210C4800F021F90128CD
:1023600003D10121094800F017F809480088401CF2
:102370000749088008460088B0F57A7F04DB002012
:10238000088001200349087010BD0000000C0040C7
:102390001E0000201B000020CA430282704721B1AA
:1023A000028842F00102028004E002884FF6FE73C8
:1023B0001A4002807047000010B504466848844205
:1023C00008D10121C014FFF7B7FC0021E014FFF78A
:1023D000B3FCC4E0B4F1804F08D101210846FFF7F7
:1023E0008BFC00210120FFF787FCB8E05D488442A8
:1023F00008D101210220FFF77FFC00210220FFF716
:102400007BFCACE05848844208D101210420FFF74E
:1024100073FC00210420FFF76FFCA0E053488442C6
:1024200008D101210820FFF767FC00210820FFF7F1
:1024300063FC94E04E48844208D101211020FFF74C
:102440005BFC00211020FFF757FC88E049488442DC
:1024500008D101212020FFF74FFC00212020FFF7A9
:102460004BFC7CE04448844208D101214014FFF732
:1024700063FC00216014FFF75FFC70E03F4884427A
:1024800009D10121C804FFF757FC00214FF40020B7
:10249000FFF752FC63E03A48844209D10121080564
:1024A000FFF74AFC00214FF48010FFF745FC56E08F
:1024B0003448844209D101214805FFF73DFC002141
:1024C0004FF40010FFF738FC49E02F48844208D150
:1024D00001214020FFF710FC00214020FFF70CFCF9
:1024E0003DE02A48844208D101218020FFF704FC06
:1024F00000218020FFF700FC31E02548844208D10C
:1025000001218015FFF7F8FB0021A015FFF7F4FB70
:1025100025E02048844209D101210804FFF70CFC82
:1025200000214FF48030FFF707FC18E01A4884427E
:1025300009D101214804FFF7FFFB00214FF40030CF
:10254000FFF7FAFB0BE01548844208D1012188040B
:10255000FFF7F2FB00214FF48020FFF7EDFB10BDE9
:10256000002C01400004004000080040000C004026
:10257000001000400014004000340140004C0140B5
:10258000005001400054014000180040001C004071
:10259000002000400040014000440140004801404C
:1025A00030B50246002000230024158A05EA010305
:1025B000958905EA010413B10CB1012000E0002067
:1025C00030BD1AB183890B43838102E083898B4339
:1025D0008381704782884FF68F731A408280828889
:1025E0000A43828070470000002202881D4B9842F7
:1025F0000ED01D4B98420BD0B0F1804F08D01B4B32
:10260000984205D01A4B984202D01A4B984204D1F6
:102610004FF68F731A404B881A43174B984207D0D6
:10262000164B984204D04FF6FF431A40CB881A430A
:1026300002808B8883850B8803850A4B98420BD0D8
:10264000094B984208D00E4B984205D00D4B98424A
:1026500002D00D4B984201D10B7A0386012383826D
:1026600070470000002C014000340140000400408D
:1026700000080040000C0040001000400014004022
:102680000040014000440140004801400448006807
:1026900020B103480068401E0149086070470000EF
:1026A0006003002008B50020009040F2255120482A
:1026B00000F075F858B12520FFF72CF81C4800F001
:1026C00029F9C0B200909DF8000000F0ABF9082194
:1026D000174800F057F8012806D10821144800F0E7
:1026E0002DF8134800F016F940F22771104800F059
:1026F00056F8E0B140F227710D4800F028F8252087
:10270000FFF708F86846FFF771FC9DF800100848CD
:1027100000F005F90748FFF7BBFA40B10020064971
:102720000870002240F22771014800F062F808BDED
:1027300000380140900700202000002001F40072C2
:10274000B2F5007F00D100BFCA430280704710B5C8
:102750000022002340F66A14A14200D100BF0A12F1
:1027600001249440A3B2DC43048010BD21B18289CE
:1027700042F40052828104E082894DF6FF731A40D0
:102780008281704702460020B1F5007F00D100BF72
:1027900013880B400BB1012000E00020704770B59A
:1027A0000246002400230025002040F66A16B142AC
:1027B00000D100BFC1F3421501F01F03012606FA44
:1027C00003F3012D02D19689334006E0022D02D198
:1027D000168A334001E0968A33400C12012606FA2D
:1027E00004F41688344013B10CB1012000E000203D
:1027F00070BDF0B50346002400260025002040F6F9
:102800006A17B94200D100BF1846C1F3421401F063
:102810001F06012707FA06F5012C01D10C3004E050
:10282000022C01D1103000E014301AB107682F4398
:10283000076002E00768AF430760F0BD2DE9F0478D
:1028400086B005460E460024A24600BFA1460027DA
:10285000B08900B100BF2F462C8A4CF6FF700440AF
:10286000F08804432C82AC894EF6F3100440B08803
:1028700031890843718908430443AC81AC8A4FF61F
:10288000FF400440B0890443AC8201A8FFF78AFAF4
:102890001F48874202D1DDF810A001E0DDF80CA04E
:1028A000A88900F4004040B10AEBCA0000EB0A100E
:1028B00031684900B0FBF1F807E00AEBCA0000EB11
:1028C0000A1031688900B0FBF1F86420B8FBF0F021
:1028D00004012009642101FB1089A88900F400404B
:1028E00040B1322000EBC900B0FBF1F000F007006E
:1028F000044308E0322000EB09106421B0FBF1F042
:1029000000F00F0004432C8106B0BDE8F087000002
:102910000038014001468888C0F308007047C1F3C1
:102920000802828070474FF41651016000218180B7
:10293000C18001810C21418100218181704700000B
:1029400070B5044600261B4D1B48007810B3802C40
:102950001CDB1A4800782C5418480078401C174992
:10296000087017480078401E15490870084600781E
:1029700000281CDC114800780A2818D1284600F0ED
:1029800021F8064600200C49087010E000200A4992
:1029900008700CE0802C0ADA09200949087001202F
:1029A0000649087003480470012003490870304646
:1029B00070BD00007C0300200F0000200E000020EE
:1029C0001000002030B501460C784B78E018C4B2F6
:1029D00002220BE0885C2044C4B203F00105885C4D
:1029E00065F3DF1088545B10501CC2B2092AF1DB7A
:1029F00004F07F004D7A05F07F05A84201D0002049
:102A000030BD0120FCE700BFFEE7000031B5002427
:102A1000012269460248FEF705FCC4B2204638BDD3
:102A20007008002031B50024012269460248FEF7F3
:102A3000D5FBC4B2204638BD9C07002070B50446C3
:102A40000D4600262A4621460648FEF7C7FBC6B2B9
:102A5000642E04DA0448007808B9FEF709FC304611
:102A600070BD00009007002020000020014A0249AC
:102A700000F013B8BD2A00087803002002E008C85F
:102A8000121F08C1002AFAD170477047002001E0E8
:102A900001C1121F002AFBD170472DE9F0411646F3
:102AA0000F460446002503E03946B047641C6D1C00
:102AB00020780028F8D12846BDE8F08170B504469A
:102AC0000D46E0B2FFF728FB204670BDFEF770FD13
:102AD000FEF7ECFC06A0FFF7C9FFFEF769FEFEF764
:102AE000AFFE03E0FFF70CF8FFF702F8FAE700008B
:102AF000496E69742053797374656D206861732021
:102B00006265656E2066696E69736865642E0D0A7C
:102B100000000000000000000000000000000000B5
:102B2000000000003F4000000000000000003000F6
:102B3000400030004000000009000BC03D000BC009
:102B40003D00090018C024407FE022403180000091
:102B5000180024C01B000D803240018003801C40FF
:102B600027401C800740004010006000000000006B
:102B7000000000000000000000001F8020404020F6
:102B80000000402020401F800000000009000600D7
:102B90001F80060009000000040004003F800400BC
:102BA00004000000001000600000000000000000B1
:102BB00004000400040004000400000000000040C1
:102BC0000000000000000000002001C006003800E6
:102BD000400000001F802040204020401F80000057
:102BE000000010403FC000400000000018C021401D
:102BF00022402440184000001080204024402440FF
:102C00001B80000002000D0011003FC001400000C9
:102C10003C80244024402440238000001F80244026
:102C200024403440038000003000200027C03800DA
:102C3000200000001B802440244024401B80000012
:102C40001C0022C0224022401F8000000000000023
:102C500008400000000000000000000004600000C8
:102C600000000000000004000A0011002080404025
:102C700009000900090009000900000000004040A7
:102C8000208011000A0004001800200023402400C6
:102C9000180000001F802040274029401F400000EE
:102CA000004007C039000F0001C0004020403FC075
:102CB000244024401B8000001F80204020402040F2
:102CC0003080000020403FC0204020401F80000096
:102CD00020403FC024402E4030C0000020403FC074
:102CE00024402E00300000000F00108020402240C1
:102CF0003380020020403FC0040004003FC0204059
:102D0000204020403FC020402040000000602020A4
:102D100020203FC02000200020403FC024400B0066
:102D200030C0204020403FC020400040004000C054
:102D30003FC03C0003C03C003FC0000020403FC0FB
:102D40000C4023003FC020001F8020402040204036
:102D50001F80000020403FC02440240018000000D5
:102D60001F802140214020E01FA0000020403FC0E4
:102D70002440260019C0004018C0244024402240AE
:102D800031800000300020403FC020403000000073
:102D900020003F80004000403F80200020003E0097
:102DA00001C0070038002000380007C03C0007C001
:102DB00038000000204039C0060039C02040000023
:102DC0002000384007C0384020000000304021C0BB
:102DD0002640384020C00000000000007FE0402076
:102DE00040200000000070000C0003800040000044
:102DF0000000402040207FE0000000000000200094
:102E00004000200000000000001000100010001022
:102E10000010001000000000400000000000000052
:102E2000000002800540054003C0004020003FC074
:102E3000044004400380000000000380044004407C
:102E40000640000000000380044024403FC00040D2
:102E500000000380054005400340000000000440DE
:102E60001FC0244024402000000002E0055005500F
:102E70000650042020403FC00440040003C000402E
:102E80000000044027C000400000000000100010B7
:102E9000041027E00000000020403FC00140070070
:102EA00004C00440204020403FC0004000400000DB
:102EB00007C0040007C0040003C00000044007C0AE
:102EC0000440040003C000400000038004400440AC
:102ED00003800000041007F0045004400380000049
:102EE000000003800440045007F00010044007C0B5
:102EF00002400400040000000000064005400540B8
:102F000004C00000000004001F80044000400000D6
:102F1000040007800040044007C000400400070090
:102F200004C0018006000400060001C0070001C0C3
:102F300006000000044006C0010006C00440000076
:102F40000410071004E001800600040000000440A3
:102F500005C00640044000000000000004007BE0C3
:102F600040200000000000000000FFF00000000012
:102F7000000040207BE004000000000040008000D2
:102F80004000200020004000000000000000000081
:102F900000000000000000000000000000001FCC46
:102FA000000C00000000000000000800300060007D
:102FB0000800300060000000022003FC1E200220F8
:102FC00003FC1E200220000000000E1811043FFF29
:102FD00010840C78000000000F0010840F3800C02F
:102FE000077818840078000000780F8410C411243A
:102FF0000E9800E4008400080800680070000000DB
:10300000000000000000000000000000000007E0D9
:103010001818200440020000000040022004181884
:1030200007E00000000000000240024001800FF0B5
:1030300001800240024000000080008000800FF804
:1030400000800080008000000001000D000E0000E4
:1030500000000000000000000000008000800080F0
:1030600000800080008000800000000C000C000048
:1030700000000000000000000000000600180060D2
:103080000180060018002000000007F00808100466
:103090001004080807F000000000080408041FFCE2
:1030A000000400040000000000000E0C10141024A6
:1030B000104411840E0C000000000C1810041104C0
:1030C000110412880C700000000000E003200424AA
:1030D00008241FFC0024000000001F981084110425
:1030E0001104108810700000000007F00888110417
:1030F000110418880070000000001C00100010FC73
:1031000013001C001000000000000E381144108451
:10311000108411440E38000000000700088C104491
:103120001044088807F00000000000000000030CB5
:10313000030C000000000000000000000001010678
:10314000000000000000000000000080014002209C
:1031500004100808100400000220022002200220AF
:1031600002200220022000000000100408080410C1
:10317000022001400080000000000E001200100C30
:10318000106C10800F00000003E00C1813E41424EE
:1031900017C4082807D000000004003C03C41C40EA
:1031A000074000E4001C000410041FFC110411047B
:1031B00011040E880070000003E00C1810041004C5
:1031C000100410081C10000010041FFC1004100450
:1031D0001004080807F0000010041FFC110411047B
:1031E00017C410040818000010041FFC110411007B
:1031F00017C010000800000003E00C1810041004B1
:1032000010441C780040000010041FFC1084008053
:10321000008010841FFC10040000100410041FFC28
:103220001004100400000000000300011001100150
:103230001FFE10001000000010041FFC110403808A
:103240001464181C1004000010041FFC1004000477
:1032500000040004000C000010041FFC1F0000FC10
:103260001F001FFC1004000010041FFC0C040300CE
:1032700000E010181FFC100007F0080810041004EC
:103280001004080807F0000010041FFC10841080D0
:10329000108010800F00000007F008181024102480
:1032A000101C080A07F2000010041FFC1104110092
:1032B00011C011300E0C000400000E1C110410840B
:1032C000108410441C3800001800100010041FFC6B
:1032D000100410001800000010001FF81004000473
:1032E000000410041FF8100010001E0011E0001C64
:1032F000007013801C0010001FC0103C00E01F0075
:1033000000E0103C1FC000001004180C163401C06F
:1033100001C01634180C100410001C00130400FC2B
:1033200013041C00100000000804101C106410841A
:1033300013041C04101800000000000000007FFEB1
:103340004002400240020000000030000C000380F8
:103350000060001C00030000000040024002400228
:103360007FFE000000000000000000002000400080
:1033700040004000200000000001000100010001A9
:103380000001000100010001000040004000200099
:10339000000000000000000000000098012401442B
:1033A0000144014400FC000410001FFC00880104DB
:1033B0000104008800700000000000700088010413
:1033C000010401040088000000000070008801046E
:1033D000010411081FFC0004000000F8014401442E
:1033E0000144014400C800000000010401040FFC76
:1033F0001104110411001800000000D60129012950
:10340000012901C90106000010041FFC008401000D
:103410000100010400FC000400000104190419FC6F
:10342000000400040000000000000003000101018E
:10343000190119FE0000000010041FFC00240040C8
:1034400001B4010C010400000000100410041FFC72
:103450000004000400000000010401FC010401005C
:1034600001FC0104010000FC010401FC00840100D6
:103470000100010400FC0004000000F80104010444
:103480000104010400F80000010101FF00850104AE
:103490000104008800700000000000700088010432
:1034A0000104010501FF00010104010401FC008485
:1034B0000104010001800000000000CC012401246F
:1034C000012401240198000000000100010007F818
:1034D0000104010400000000010001F800040004E0
:1034E0000004010801FC0004010001800170000CCF
:1034F000001001600180010001F0010C003001C0EA
:103500000030010C01F0010000000104018C007486
:103510000170018C01040000010101810171000EA4
:10352000001801600180010000000184010C0134D9
:1035300001440184010C00000000000000000000B4
:1035400001003EFC400240020000000000000000BC
:10355000FFFF0000000000000000400240023EFCAF
:1035600001000000000000000000600080008000FA
:103570004000400020002000983500080000002096
:103580007C03000060050008543700087C0300201D
:10359000CC0900008C2A00080006260000803F00AD
:1035A00001103308800800097F09FD09780AF10A33
:1035B000670BDA0B490CB30C190D790DD40D290EDC
:1035C000780EC00E020F3C0F6F0F9B0FBF0FDB0F6B
:1035D000EF0FFB0FFF0412EF0C12BF14126F1C1041
:1035E00004020FC0281004290ED4341010190DB392
:1035F0000C490CDA0B670BF10A780AFD5813000925
:10360000601031087F07FF068006020687050E0559
:1036100098042504B6034C03E60286022B02D60169
:1036200087013F01FD00C3009000640040002400BA
:103630001000049710625200A400F600480199019E
:10364000EB013D028F02E10233038503D703290416
:103650007B04CD041E057005C20514066606B80677
:103660000A075C07AE0700085108A308F5084709D8
:103670009909EB093D0A8F0AE10A330B840BD60B3B
:10368000280C7A0CCC0C1E0D700DC20D140E660E9B
:10369000B70E090F5B0FADC812AD081004090FB7C4
:1036A000141004140EC22010041E0DCC2C1004287B
:1036B0000CD6381004330BE14410043D0AEB5010D3
:1036C000044709F55C1251C812AE6C10040A07B821
:1036D0007810041406C28410041E05CD901004292D
:1036E00004D79C10043303E1A810043D02EBB4108E
:1036F000044801F6C016525F1204D01224D8126496
:10370000E01006C300FD003FF01004D6012BFC14AE
:1037100010E6024C03B603250498040E0587050243
:1037200020000661FF067F0700010360FF0F02050E
:10373000C8C2200700000102030404340906070878
:103740000902040608456C04A24A044303611C25CF
:04375000BC000000B9
:0400000508000131BD
:00000001FF
