:020000040800F2
:1000000090BF0020DD0100083D0F00083F0F0008F1
:10001000410F0008430F0008450F000800000000D2
:100020000000000000000000000000004501000882
:10003000470F00080000000089010008490F000870
:10004000F7010008F7010008F7010008F7010008B0
:10005000F7010008F7010008F7010008F7010008A0
:10006000F7010008F7010008F7010008F701000890
:10007000F7010008F7010008F7010008F701000880
:10008000F7010008F7010008F7010008F701000870
:10009000F7010008F7010008F7010008F701000860
:1000A000F7010008F7010008F7010008F701000850
:1000B000F7010008F7010008F7010008F701000840
:1000C000F7010008F7010008F7010008F701000830
:1000D000F7010008F7010008F7010008F701000820
:1000E000F7010008F7010008F7010008F701000810
:1000F000F7010008F7010008F7010008F701000800
:10010000F7010008F7010008F7010008F7010008EF
:10011000F7010008F7010008F7010008F7010008DF
:10012000F7010008F7010008F7010008F7010008CF
:10013000DFF80CD003F036FA00480047B90E00088B
:1001400090BF0020224B19680868B0E8F00F80F3D8
:100150000988BFF36F8F4FF0000080F311884EF0D5
:100160000D0E70470000000006480068006880F32C
:10017000088862B661B6BFF34F8FBFF36F8F00DFA1
:1001800000BF00BF08ED00E0EFF30980BFF36F8F01
:100190000F4B1A6820E9F00F106008B54FF05000BF
:1001A00080F31188BFF34F8FBFF36F8F02F04EFAC9
:1001B0004FF0000080F31188BDE808401968086816
:1001C000B0E8F00F80F30988BFF36F8F704700BF6E
:1001D00044140020EFF30580704700000648804774
:1001E00006480047FEE7FEE7FEE7FEE7FEE7FEE71C
:1001F000FEE7FEE7FEE7FEE7A9020008310100087E
:100200000CB50022019200925248016841F48031FD
:1002100001604FF4A063016801F40031009101997D
:10022000491C0191009911B901999942F3D10168D2
:10023000890302D50121009100E000920099012973
:1002400030D145490A6842F010020A600A6822F07B
:1002500003020A600A6842F002020A6041684160D3
:1002600041684160416841F480614160416821F426
:100270007C114160416841F4E8114160016841F03E
:100280008071016001688901FCD5416821F003019A
:100290004160416841F0020141604168C1F3810160
:1002A0000229FAD10CBDABE710B52A48016841F02C
:1002B000010101604168294A114041600168284AF2
:1002C00011400160016821F480210160416821F43E
:1002D000FE0141604FF41F018160FFF7E4FF2149F7
:1002E0004FF00060086010BD10B51A4A506800F069
:1002F0000C011D4B1D4800290ED004290ED00829E1
:100300000ED003605168194AC1F30311121D515CEC
:100310000268CA40026010BD0360F3E70360F1E7C2
:10032000516801F47011536803F48033022404EB24
:10033000914133B153689B0307D50D4B594301607D
:10034000E0E70B4B59430160DCE7074B5943016081
:10035000D8E7000000100240002002400000FFF833
:10036000FFFFF6FE08ED00E000127A00000000201A
:1003700000093D002A4908432A490860704770B5C2
:100380000F23C27801260178002A1ED0254A126860
:1003900002F4E062C2F5E062120AC2F10404D34042
:1003A0004578A54082781A402A43120101F1E021E4
:1003B00081F80024007800F01F018E404009800081
:1003C00000F1E020C0F8006170BD01F01F00864020
:1003D0004809800000F1E020C0F8806170BD124A39
:1003E000114001430F48001F016070470D4A121D64
:1003F000002903D0116801431160704711688143DF
:10040000116070474FF0E021042804D0086920F003
:10041000040008617047086940F0040008617047F3
:100420000000FA050CED00E080FFFF1F10B59C49AD
:10043000884209D10121042000F07DFA0021BDE8A5
:100440001040042000F077BA9649884209D1012172
:10045000082000F070FA0021BDE81040082000F0EC
:100460006ABA9149884209D10121102000F063FA4B
:100470000021BDE81040102000F05DBA8B49884291
:1004800009D10121202000F056FA0021BDE81040DA
:10049000202000F050BA8649884209D1012140202D
:1004A00000F049FA0021BDE81040402000F043BAB6
:1004B0008049884209D10121802000F03CFA0021C6
:1004C000BDE81040802000F036BA7B4988420AD14E
:1004D00084150121204600F02EFA2046BDE8104088
:1004E000002100F028BA10BD10B50121084600F027
:1004F00022FA0021BDE81040012000F01CBA2DE9CD
:10050000F0410022CC7804F00F03E40601D58C788A
:1005100023430C784FF00F0714F0FF0F4FF0010C3E
:100520001CD005680CFA02F40E882640A64211D1B0
:10053000960007FA06F825EA080503FA06F848EADD
:100540000505CE78282E02D0482E02D002E0446164
:1005500000E00461521C082AE4D305600A88FF2ADF
:100560001ED94568002202F108060CFA06F40E882E
:100570002640A64210D1960007FA06F825EA08059B
:1005800003FA06F848EA0505CE78282E00D1446122
:10059000CE78482E00D10461521C082AE3D345606E
:1005A000BDE8F0814FF6FF710180022181700421C6
:1005B000C17070470246002092680A4200D00120B4
:1005C0007047806880B2704702460020D2680A42B5
:1005D00000D001207047C06880B270470161704749
:1005E00041617047002A01D0016170474161704745
:1005F000C160704741F480328261816182618169AA
:100600008069704710B52D4B1A684FF680742240F0
:1006100042EA00100843186010BD2949C8617047BC
:10062000F0B5264C002801DAE36900E06368C0F306
:100630000346420D120185B2C0F301579540032FC6
:1006400007D0C2020CD50322B240934343F070623C
:1006500009E023F07062636823F07063636002E076
:10066000AB4343F0706201B12A43002801DAE26132
:10067000F0BD6260F0BD10B58A07120F0F239340E2
:1006800021F003040D4921448C689C438C608B68E5
:10069000904003438B6010BD0949DC31086070470E
:1006A00000080140000C014000100140001401400E
:1006B00000180140001C01400020014000000140E2
:1006C00000002042B448016841F001010160416826
:1006D000B24A114041600168B14A114001600168AD
:1006E00021F480210160416821F4FE0141604FF452
:1006F0001F0181607047A8490A6822F480320A60AD
:100700000A6822F480220A60B0F5803F07D0B0F575
:10071000802F03D1086840F4A02008607047086863
:1007200040F48030086070470346002059099A4A17
:1007300001290AD002290AD0516A03F01F020123BD
:1007400093400B4200D0012070471168F5E7116A11
:10075000F3E718B5002000904FF4A0643120FFF7B4
:10076000E3FF0099491C00910099A14201D00028A3
:10077000F4D03120FFF7D8FF08B1012018BD0020C8
:1007800018BD854A116821F0F80141EAC0001060E7
:1007900070478449086070477F4B5A6822F47C1286
:1007A00008431043586070477E49086670477A4A8C
:1007B000516821F003010143516070477648406859
:1007C00000F00C007047744A516821F0F0010143B9
:1007D00051607047704A516821F4E06101435160F3
:1007E00070476D4A516821F4605141EAC000506081
:1007F0007047694A002903D0517A0143517270470A
:10080000517A8143517270476649D8310860704708
:10081000614A516821F440410143516070475E498B
:10082000002220310A7001F82029012805D004286F
:1008300002D1052081F820007047012081F82000B6
:10084000704759490860704753490A6A02430A626F
:100850007047554944390860704710B54E4A516891
:1008600001F00C01514B002927D0042927D0082979
:1008700027D00360516801F0F00109094C4B5C5C22
:100880000168E1404160546804F4E064240A1C5D9E
:1008900021FA04F48460546804F46054E40A1B5D93
:1008A000D940C160526802F44042920B404B1B1F7A
:1008B0009A5CB1FBF2F1016110BD0360DAE70360FD
:1008C000D8E7516801F47011536803F480330224AF
:1008D00004EB914133B153689B0307D5354B594322
:1008E0000160C7E7334B59430160C3E72F4B5943BE
:1008F0000160BFE7284A002903D0516901435161D3
:1009000070475169814351617047234A002903D0E0
:100910009169014391617047916981439161704789
:100920001D4A002903D0D1690143D1617047D169C3
:100930008143D1617047184A002903D0D16801432F
:10094000D1607047D1688143D1607047124A002955
:1009500003D011690143116170471169814311612D
:10096000704711494039086070470E49C8647047A4
:100970000949C87170470848416A41F08071416275
:10098000704701460020044A92680A4200D00120C4
:100990007047014988727047001002400000FFF85C
:1009A000FFFFF6FE000042428004424200127A003D
:1009B0001800002000093D0010B5E14988420AD125
:1009C00001218C032046FFF7B6FF2046BDE810400A
:1009D0000021FFF7B0BFDB4988420AD101214C0456
:1009E0002046FFF7B3FF2046BDE810400021FFF787
:1009F000ADBFD54988420AD101218C042046FFF7BA
:100A0000A5FF2046BDE810400021FFF79FBFCF495A
:100A100088420AD10121CC042046FFF797FF2046E7
:100A2000BDE810400021FFF791BFC94988420AD1B3
:100A300001210C052046FFF789FF2046BDE8104044
:100A40000021FFF783BF10BD30B585B004460D46C9
:100A5000208A4CF6FF710840E98801432182A08971
:100A60004EF6F3110840A9882A8911436A89024386
:100A70001143A181A08A4FF6FF410840A989014393
:100A8000A1826846FFF7E9FEAD48844201D1039890
:100A900000E00298A189090408D500EBC00101EB30
:100AA000001029684900B0FBF1F007E000EBC0013D
:100AB00001EB001029688900B0FBF1F06422B0FB63
:100AC000F2F109010B096FF018056B4300EB83008D
:100AD000A3891D044FF0320307D503EBC000B0FB20
:100AE000F2F000F00700084306E003EB0010B0FB53
:100AF000F2F000F00F000843208105B030BD4FF444
:100B00001651016000218180C18001810C22428147
:100B10008181704710B5038A4FF2FF0213400A88A3
:100B20004C8822438C88C9880C4322431A43028292
:100B300010BD0021018041808180C1807047002963
:100B400004D0818941F4005181817047818921F469
:100B500000518181704710B540F66A13C1F342130A
:100B600001F01F040121A140012B07D0022B07D067
:100B700014303AB102680A43026010BD0C30F8E745
:100B80001030F6E702688A43026010BD002A03D0E5
:100B9000828A0A4382827047828A8A4382827047AD
:100BA000028A22F00F020282028A0A4302827047FE
:100BB000828922F40062828182890A43828170479D
:100BC000002904D0818941F0020181817047818927
:100BD00021F0020181817047028A22F02002028204
:100BE000028A0A4302827047002904D0018A41F434
:100BF000804101827047018A21F48041018270475F
:100C0000C1F30801818070478088C0F308007047F5
:100C1000818941F0010181817047028BD2B2028348
:100C2000028B42EA012101837047028B02F47F426A
:100C30000283028B0A4302837047002904D0818A11
:100C400041F0200181827047818A21F02001818258
:100C50007047002904D0818A41F0100181827047D9
:100C6000818A21F0100181827047002904D0818A95
:100C700041F0080181827047818A21F00801818258
:100C80007047002904D0818941F400418181704777
:100C90008189C1F30E0181817047002904D0818AC6
:100CA00041F4006181827047818A21F40061818270
:100CB0007047828A22F004028282828A0A438282F8
:100CC0007047002904D0818A41F002018182704777
:100CD000818A21F002018182704702460020128839
:100CE0000A4200D0012070478A05C943018070473D
:100CF00070B5002440F66A12C1F3421301F01F05DB
:100D0000012606FA05F2012B0CD0022B0DD0838AA6
:100D10001340090A8E40008830400BB100B1012415
:100D2000204670BD83891340F3E7038A1340F0E740
:100D300040F66A120A0A01219140C94301807047B6
:100D4000003801400044004000480040004C004092
:100D5000005000400EB5002410254FF6FF764FF4EA
:100D6000FA78604F1BE0002140236022084600947F
:100D700000F0A0F9CDE9004533465BA20C2112201A
:100D8000029400F065FCCDE90045334659A22421C8
:100D90001220029400F05CFC404601F087FB38789A
:100DA0000028F9D1DFE700244E4D28780128FCD136
:100DB0002046641C01F00FF801F048F8142C00D113
:100DC0000024642001F072FBEFE71CB502F042FA48
:100DD000444804210830CDE90010CC01002322460C
:100DE00046A1494801F070F901280AD13D48032184
:100DF0000C30CDE900100023224644A1464801F002
:100E000063F9012803D13748406801F0A6F9434946
:100E100001200870BDE81C4002F036BAFEB54FF460
:100E20004070FFF7A7FA00F0FDFD00F073FD2D4CB8
:100E30003B4E3C4D44F620670EE001213046FFF763
:100E4000CDFB286800F00DFE01213046FFF7C8FBFE
:100E50002868381A00F005FE2069401E2061401CF9
:100E6000EBD100254023602229462846009500F05A
:100E700021F91026CDE900564FF6FF773B461AA21E
:100E80000C211220029500F0E3FBCDE900563B4611
:100E900018A224211220029500F0DAFB052020611F
:100EA0004FF47A7502E0284600F0F4FD2169491EEE
:100EB0002161491CF7D1FEBD1CB5FFF7AFFF094802
:100EC0000121001DCDE900104A02002316A11A4895
:100ED00001F0FAF8012802D04FF0FF301CBD01F0FC
:100EE00002FDFEE7280000204E6F2048756D616E00
:100EF0000000000044656365746564004C43445F12
:100F00005461736B00000000A70D000854657374F2
:100F10005F5461736B000000550D00083D00002018
:100F200000100140400000204170705461736B4319
:100F30007265617465000000CB0D00087047FEE724
:100F4000FEE7FEE7FEE7704710B501F026FE012838
:100F500003D0BDE8104002F0AAB910BD10B586B0AC
:100F600001210420FFF7D1FC01218803FFF7CDFC0C
:100F70004FF40070ADF8140018208DF8170003200E
:100F80008DF81600494C05A92046FFF7B8FA21153F
:100F9000ADF8141004218DF8171005A92046FFF7AD
:100FA000AEFA4FF4E13001900020ADF80800ADF842
:100FB0000A00ADF80C00ADF810000C20ADF80E00E2
:100FC0003B4C01A92046FFF73FFD01212046FFF7DA
:100FD000B6FD06B010BD10B504462046FFF710FE62
:100FE00080212046FFF779FE0028F9D010BD2DE9B9
:100FF000F04107460D461646002405E0295D3846B7
:10100000FFF7E9FF641CE4B2B442F7D3402138464D
:10101000FFF763FE0028F9D0BDE8F08170B5064601
:101020000D4600243046295DFFF7D5FF641C285D7E
:101030000028F7D140213046FFF74FFE0028F9D0B5
:1010400070BD70B50546080ACCB201462846FFF7C8
:10105000D7FD80212846FFF740FE0028F9D0214621
:101060002846FFF7CDFD80212846FFF736FE0028F1
:10107000F9D070BD70B504460D4DE1B22846FFF7BA
:10108000BFFD80212846FFF728FE0028F9D0204622
:1010900070BD10B5064C20212046FFF71EFE00282B
:1010A000F9D02046BDE81040FFF7AEBD0008014072
:1010B000003801402DE9F0478046DDF820900D46CC
:1010C00016461F46781E83B2701E82B229464046DD
:1010D00000F007FC0AE0444604E0484600F0E8FB64
:1010E000641CA4B2B442F8D36D1CADB2BD42F2D3BD
:1010F000BDE8F08710B514460B46024600F0F1FB40
:101100002046BDE8104000F0D3BB2DE9FE4F00257E
:101110000026171AA3EB010881468A46681E002F95
:1011200003DD4FF00101019107E003D14FF0000111
:10113000019102E00190C7F10007B8F1000F03DD53
:101140004FF00100009007E003D14FF00000009045
:1011500002E00090C7F10008474501DD3C4600E091
:1011600044464FF0000B601C029016E01FFA8AF113
:101170001FFA89F00C9AFFF7BDFF3D444644A54293
:1011800002DD2D1B01988144A64202DD361B00982A
:1011900082440BF1010B1FFA8BFB02988345E5DBC0
:1011A000BDE8FE8F2DE9F8438046089C0E461546A3
:1011B0001F4633462A46314640460094FFF7A5FFB6
:1011C0003B464246314640460094FFF79EFF3B4671
:1011D0002A46394640460094FFF797FF3B462A4689
:1011E000314628460094FFF790FFBDE8F8832DE9CB
:1011F000FF4F81B006460F460025039C50E0A7EB49
:101200000508A6EB04091FFA88F11FFA89F0049A71
:10121000FFF770FF1FFA88F106EB04081FFA88F049
:10122000049AFFF767FF381981B2A6EB050A009010
:101230001FFA8AF0049AFFF75DFFA7EB040B1FFA71
:101240008BF11FFA8AF0049AFFF754FF07EB050AA7
:101250001FFA8AF11FFA88F0049AFFF74BFF06EB9A
:1012600005081FFA8BF11FFA88F0049AFFF742FF76
:101270000098049A81B21FFA88F0FFF73BFF1FFA2B
:101280008AF11FFA89F0049AFFF734FF6D1C05FB01
:1012900005F004FB040103984043814200DD641E15
:1012A000A542ACDD05B0BDE8F08F2DE9FF4F83B05E
:1012B0000546DDF844808A46AB464FEAD80000FB7D
:1012C00008F00090052001904FF0000952E0F84925
:1012D000059A09EB891011F810301278934245D124
:1012E00001EB4000029041780598407881423DD161
:1012F0000AEB0800401E83B205EB0800401E82B2D4
:101300005146284600F0EDFA00262CE00024029811
:1013100087191298A8B1B9780120A040014204D0E1
:1013200051462846069AFFF7E5FE6D1CADB2A5EBC7
:101330000B00404511D15D460AF1010A1FFA8AFAF5
:101340000FE0B9780120A040014203D0069800F0D8
:10135000AFFA02E0109800F0ABFA641CE4B2082C7B
:10136000D7D3761CF6B200988642CFD309F1010993
:101370001FFA89F901988145A9D307B093E72DE9B0
:10138000FF4F83B00546DDF844808A46AB464FEAFE
:10139000D80000FB08F00090052001904FF00009F4
:1013A00054E009EB8900C349059A00EB491011F894
:1013B00010301278934245D101EB40000290417801
:1013C0000598407881423DD10AEB0800401E83B267
:1013D00005EB0800401E82B25146284600F081FA13
:1013E00000262CE00024029887191298A8B1B97839
:1013F0000120A040014204D051462846069AFFF73A
:1014000079FE6D1CADB2A5EB0B00404511D15D46D8
:101410000AF1010A1FFA8AFA0FE0B9780120A04008
:10142000014203D0069800F043FA02E0109800F061
:101430003FFA641CE4B2082CD7D3761CF6B20098AD
:101440008642CFD309F101091FFA89F90198814534
:10145000A7D392E72DE9FF4F83B00546DDF844801E
:101460008A46AB464FEAD80000FB08F00090052002
:1014700001904FF0000953E08E49059A09EB0910DD
:10148000AA39127811F81030934245D101EB40008F
:10149000029041780598407881423DD10AEB0800DE
:1014A000401E83B205EB0800401E82B2514628461A
:1014B00000F017FA00262CE00024029887191298F1
:1014C000A8B1B9780120A040014204D05146284675
:1014D000069AFFF70FFE6D1CADB2A5EB0B00404561
:1014E00011D15D460AF1010A1FFA8AFA0FE0B978B4
:1014F0000120A040014203D0069800F0D9F902E093
:10150000109800F0D5F9641CE4B2082CD7D3761CEF
:10151000F6B200988642CFD309F101091FFA89F982
:1015200001988145A8D328E72DE9FE4F8046DDE9E3
:101530000D47894615469A460C9E13E0102C15D08F
:10154000182C1DD0202C10D1CDE9014753462A4636
:10155000494640460096FFF7A8FEAD1C08EB040084
:101560001FFA80F828780028E8D119E6CDE901476C
:1015700053462A46494640460096FFF76BFFECE784
:10158000CDE9014753462A46494640460096FFF7B3
:10159000F6FEE2E72DE9FF4F81B00546DDF83C801D
:1015A0008B46A9464FEA580A4FEADA0000FB08F0DA
:1015B0000090203AD0B203900BEB0800401E83B29B
:1015C00005EB0A00401E82B25946284600F089F910
:1015D000002639E0B8F1100F1FD0B8F1200F36D136
:1015E0003549039801EB8010875D00241098D0B135
:1015F0000120A040384204D059462846049AFFF7FB
:1016000079FD6D1CADB2A5EB0900504516D14D46D4
:101610000BF1010B1FFA8BFB14E02849039801EB37
:101620000010875DE1E70120A040384203D0049814
:1016300000F03EF902E00E9800F03AF9641CE4B2C2
:10164000082CD3D3761CB6B200988642C2D329E6C2
:101650002DE9FE4F0546DDE90D68894614469A4698
:101660000C9F0BE0CDE90168534649462846009798
:10167000FFF790FF05EB560085B2641C2278002A24
:10168000F0D18DE50346012000E05843491EC9B260
:10169000FBD270472DE9FF4F83B08146DDE911A6EB
:1016A0001D4600274FEA56080024A3462BE0000001
:1016B000EC5700087A560008103E00082038000851
:1016C000281B401EC1B20A20FFF7DCFF0599B1FBC1
:1016D000F0F00A21B0FBF1F201FB120027B9691EFC
:1016E0008C4201DA90B10127CDE9016B3030C2B2F2
:1016F00004FB089080B2CDF800A0109B0499FFF77E
:1017000049FF641CE4B2AC42DAD336E6CDE9016BA2
:1017100004FB089080B2CDF800A02022109B049911
:10172000FFF738FFEDE72DE9FF4F83B08046DDE995
:1017300011A610461D467708324901F06FFE01F0F0
:10174000C4FE1FFA80FB002430E0281B401EC1B2FB
:101750000A20FFF797FFBBFBF0F00A21B0FBF1F284
:1017600001FB1209A81E84420FD1CDE900A6002179
:1017700000FB0780029180B22E22109B0499FFF794
:1017800009FF641CE4B26D1CEDB20020CDE900A697
:10179000029004FB078009F1300909F0FF0280B2D2
:1017A000109B0499FFF7F6FE641CE4B2AC42CCD364
:1017B000E3E52DE9F0479146089F9846002401EBA8
:1017C0000802521E93B200EB0902521E92B200F0C0
:1017D00088F8002612E000250CE017F8140000F04D
:1017E00066F807EB4400407800F061F8641CA4B28E
:1017F0006D1CADB24545F0D3761CB6B24E45EAD36A
:1018000076E400000000C84238B501211820FFF737
:101810007CF84FF21004ADF8004010208DF8030062
:1018200003208DF802007D4D69462846FEF767FECD
:1018300021462846FEF7D2FE0920ADF80000784C7C
:1018400069462046FEF75BFE09212046FEF7C6FEEC
:1018500038BD2DE9F0470546704E4FF4805841469B
:101860003046FEF7BDFE00244FF400594FF4004708
:1018700039463046FEF7B4FE280604D549463046C0
:10188000FEF7ACFE03E049463046FEF7A9FE3946B6
:101890003046FEF7A3FE6806050E641CE4B2082C71
:1018A000E6D341463046BDE8F047FEF797BED0E7A5
:1018B00010B50446200AFFF7CCFFE0B2BDE81040A7
:1018C000C7E770B50546564C08212046FEF788FE4E
:1018D0002846FFF7BEFF2046BDE870400821FEF70E
:1018E0007DBE2DE9F04106460C4615461F461520E3
:1018F000FFF7E7FFF0B2FFF7E4FFE8B2FFF7E1FF21
:101900007520FFF7DEFFE0B2FFF7DBFFF8B2BDE8BE
:10191000F041D6E770B5FFF777FF404D4FF48044B4
:1019200021462846FEF75CFE642000F0B3F821460D
:101930002846FEF753FE642000F0ACF8AE20FFF717
:10194000C0FFA020FFF7BDFF7220FFF7BAFFA12064
:10195000FFF7B7FF0020FFF7B4FFA220FFF7B1FFAA
:101960000020FFF7AEFFA420FFF7ABFFA820FFF792
:10197000A8FF3F20FFF7A5FFAD20FFF7A2FF8E20B5
:10198000FFF79FFFB020FFF79CFF0B20FFF799FFA9
:10199000B120FFF796FF3120FFF793FFB320FFF749
:1019A00090FFF020FFF78DFF8A20FFF78AFF642069
:1019B000FFF787FF8B20FFF784FF7820FFF781FF79
:1019C0008C20FFF77EFF6420FFF77BFFBB20FFF733
:1019D00078FF3A20FFF775FFBE20FFF772FF3E2029
:1019E000FFF76FFF8720FFF76CFF0620FFF769FF07
:1019F0008120FFF766FF9120FFF763FF8220FFF74A
:101A000060FF5020FFF75DFF8320FFF75AFF7D2026
:101A1000FFF757FFBDE87040AF2052E7000C0140D0
:101A20000010014010B56FF00400FEF7EBFC2548F4
:101A30002549264A0068B0FBF1F31370B0FBF1F1C1
:101A40004FF47A704143012050804FF0E02002694A
:101A500042F0020202614161016941F0010101614C
:101A600010BD70B500214FF0E0256C69174A12785F
:101A70005043AB69AA699A42FCD003D2A3EB02039C
:101A8000194403E0A4EB020633441944134681428F
:101A9000F0D370BD70B504460C4D687801280BD1A9
:101AA0006888844203D3B4FBF0F000F0FFFC688840
:101AB000B4FBF0F100FB11444FF47A706043BDE8D1
:101AC0007040CEE70000002000127A003C000020A9
:101AD000FD49884202DA40F2CF107047FB49884244
:101AE00002DA47F67C507047F949884202DA4FF42F
:101AF000FC607047F749884202DA4FF6E0707047A1
:101B0000F5498842FBDA4FF47840704738B5002237
:101B10000092421C4FF6FF7404EA42034A1C02255D
:101B2000401E04EA4004491E281F00EB410005EB5B
:101B3000420292B280B22146FFF734FB38BD2DE954
:101B4000FE430446E54E10274FF000084FF4784559
:101B50004FF6FF79B44201DD284600E04846CDE962
:101B6000018700900223224610214120FFF7DBFD70
:101B7000204601F091FC82B2B44200DC4D46CDE932
:101B800001870223002141200095FFF783FDD448FF
:101B9000B44205DD03B01021BDE8F043FEF71EBDE1
:101BA00003B01021BDE8F043FEF71ABD2DE9F05F48
:101BB0000021CC4ACC4F02EB0022002007EBC113DE
:101BC00000EBC10452F8244043F83040401C082880
:101BD000F6DB491C0829F0DB00264FF0FF3B01240F
:101BE00007EB8615601C55F82010601E55F8200084
:101BF00001F0BCFB594601F043FC45F82400A41C4D
:101C00000F2CEFDBB61C102EE9DB01250024681C2D
:101C100007EB8016681E07EB801807EB851956F84E
:101C2000241058F8240001F0A1FB594601F028FCCB
:101C300049F82400A41C102CF1DBAD1C0F2DE5DBB2
:101C400001256FF0010A0124681C07EB8018681E4B
:101C500007EB801907EB8516601C56F82010601EF4
:101C600056F8200001F082FB59F8241001F07EFBA9
:101C700058F8241001F07AFB514601F001FC46F8B7
:101C80002400A41C0F2CE7DBAD1C0F2DDBDB002098
:101C900007EB80118A6BCA63401C0F28F8DB002019
:101CA00007EB8001D1F88023C1F8C023401C0F2826
:101CB000F6DBD7F8BC13D7F8F80301F057FB594609
:101CC00001F0DEFBC7F8FC030021884E002006EB84
:101CD000012207EB811353F8204042F83040401CAA
:101CE0001028F8DB491C1029F0DB0027012406EB43
:101CF000C715601C55F82010601E55F8200001F033
:101D000035FB594601F0BCFB45F82400A41C1F2CF0
:101D1000EFDBBF1C202FE9DB01250024691C681EB6
:101D200006EBC11706EBC01806EBC51957F82410CF
:101D300058F8240001F01AFB594601F0A1FB49F8BC
:101D40002400A41C202CF1DBAD1C1F2DE5DB01259C
:101D50000124691C681E06EBC11806EBC01906EBCE
:101D6000C517601C57F82010601E57F8200001F0BE
:101D7000FDFA59F8241001F0F9FA58F8241001F08E
:101D8000F5FA514601F07CFB47F82400A41C1F2CF7
:101D9000E7DBAD1C1F2DDBDB002006EBC0118A6FDB
:101DA000CA67401C1F28F8DB002006EB8001D1F831
:101DB000002FC1F8802F401C1F28F6DBD6F87C1FAF
:101DC000D6F8F80F01F0D2FA594601F059FBC6F8DF
:101DD000FC0FBDE8F09F2DE9FC5F4FF0000AFFF714
:101DE000E5FE00254FF6FF770024404807EA450945
:101DF00000EBC516681C07EA400856F82410504648
:101E000001F078FB03D256F824A00195A34656F8BA
:101E10002400FFF75DFE80B20090601C07EA4002DC
:101E20004346494607EA4400FFF744F9641C202C66
:101E3000E3DB6D1C202DD7DB59460198FFF766FECA
:101E40005046FFF77CFE5846BDE8FC9F2DE9F04167
:101E500005460A24234E264F361F44F62068102DCF
:101E600016DA3068323030600FE001213846FEF774
:101E7000B5FB3068FFF7F5FD01213846FEF7B0FBF2
:101E80003068A8EB0000FFF7ECFD641E601CECD18D
:101E9000112D16DD3068323830600FE001213846F0
:101EA000FEF79CFB3068FFF7DCFD01213846FEF7AA
:101EB00097FB3068A8EB0000FFF7D3FD641E601CA1
:101EC000ECD1BDE8F08100000000C8410000F04105
:101ED0000000064200000E4200002042333315424B
:101EE000000C014044000020A8140020A818002085
:101EF0000010014000F1080141604FF0FF328260A4
:101F0000C1600161002101607047002101617047DB
:101F100042684A6093688B60936859609160086179
:101F20000168491C0160704730B50C68621C02D022
:101F300000F1080202E0026904E01A4653681D68D5
:101F4000A542FAD953684B6099608A605160086174
:101F50000168491C016030BD0169D0E901329A6015
:101F6000D0E901235A604A68824201D182684A60FE
:101F7000002202610868401E0860704770B50024A6
:101F8000FB4D04EB840005EB8000FFF7B3FF641CFE
:101F9000202CF6D3F748FFF7ADFFF6481430FFF7D3
:101FA000A9FFF4482830FFF7A5FFF2483C30FFF7BF
:101FB000A1FFF0485030FFF79DFFEF48ED49416326
:101FC0001431816370BD70B5044601F043F9EA4DE8
:101FD000A868401CA860286810B1686938B10CE096
:101FE0002C60A868012808D1FFF7C8FF05E0286821
:101FF000E16AC06A884200D82C60686A401C686246
:10200000E06A01212A69814011432961D84900EB26
:10201000800001EB8000211DFFF77AFF01F034F909
:10202000686900280CD02868E16AC06A884207D233
:10203000D2494FF080500860BFF34F8FBFF36F8FCE
:1020400070BD2DE9F0478146DDE908580A9C0E462F
:102050009A46206B521E00EB820020F0070778079B
:1020600005D040F22B32C6A1CCA001F0DDFA002051
:102070002218315C82F83410315C11B1401C1028F8
:10208000F6D3002684F84360202D00D31F25E56297
:10209000201DFFF73AFF04F11800FFF736FF246117
:1020A000C5F12000A0616462666484F8486052460D
:1020B0004946384601F075F82060B8F1000F01D0AC
:1020C000C8F80040BDE8F0872DE9FF5F8146DDE9F3
:1020D0000E788A4616469B46B00000F090FF0546F3
:1020E00028000AD04C2000F08AFF04460CB125637A
:1020F00004E0284600F0EAFF00E000248CB1002054
:10210000CDE90240CDE900785B463246514648466B
:10211000FFF797FF2046FFF756FF012004B0BDE808
:10212000F09F4FF0FF30F9E79348416B09680029B1
:1021300005D0416BC968C9684968816270474FF032
:10214000FF318162704710B50446206B00F0BEFF7E
:102150002046BDE8104000F0B9BF70B5044601F05C
:1021600079F8854D04B92C68201DFFF7F5FE58B9A4
:10217000E06A7F4A00EB800152F8211021B9012169
:102180008140286988432861A06A18B104F11800C9
:10219000FFF7E2FE686A401C68622868844208D142
:1021A0007448211D3C30FFF7B3FE6868401C68602E
:1021B00007E0A868401EA8602046FFF7C4FFFFF7AD
:1021C000B3FF01F061F86869002812D028688442E2
:1021D0000FD1286B28B140F2654269A16FA001F0D0
:1021E00023FA66494FF080500860BFF34F8FBFF36A
:1021F0006F8F70BD2DE9F04100265F4F386B0028CE
:1022000008D0B869401CB861F86900B101263046B1
:10221000BDE8F081FD686D1CFD608DB9786B0068CC
:1022200028B140F6D91256A15CA001F0FDF9786BF7
:10223000B96B7963B863386A401C3862FFF774FF82
:10224000B86ADFF82C8185420DD3786B006838B10D
:10225000786BC068C468606885420ED2B86202E0DC
:102260004FF0FF30B8623868C06A00EB800058F861
:1022700020000128C8D90126C6E7201DFFF76CFE03
:10228000A06A18B104F11800FFF766FEE06A0121A8
:102290003A6981401143396100EB800008EB80000E
:1022A000211DFFF735FEE06A3968C96A8842CCD340
:1022B0000126CAE72DE9F041002400272E4D286BA6
:1022C000002805D14FF4FD622DA134A001F0ACF936
:1022D00000F0C0FF286B401E2863286BF0BBA86885
:1022E000E0B3DFF89080012608F128081DE0D8F857
:1022F0000C00C46804F11800FFF72EFE201DFFF744
:102300002BFEE06A2A6906FA00F111432961184997
:1023100000EB800001EB8000211DFFF7F9FDE06A72
:102320002968C96A884200D3EE61D8F80000002805
:10233000DDD10CB1FFF7F8FEAC6944B1FFF75AFFED
:1023400000B1EE61641E002CF8D10020A861E8699C
:1023500020B1012709493807086000E003E0BFF316
:102360004F8FBFF36F8F00F08FFF384650E70000AC
:10237000A8280020282B00204414002004ED00E0B1
:102380002E2E5C2E2E5C4672656552544F535C7344
:1023900072635C7461736B732E6300004572726FBD
:1023A000723A25732C25640D0A0000002DE9F041D6
:1023B00004460F46FE4EF5683068001DFFF7CCFD61
:1023C00038B9306890F82C10012088403169814379
:1023D0003161601C07D137B13168BDE8F041091D9A
:1023E000F448FFF795BD2C4430684460AC4206D2F7
:1023F0003168B06B091DBDE8F041FFF795BD31684C
:10240000706B091DFFF790FDB06A844200D2B46280
:10241000FEE6E748016B491C016370472DE9F04176
:1024200005460E460024002D07D140F27942AFF256
:10243000B001AFF2980001F0F7F83EB940F27A42ED
:10244000AFF2C401AFF2AC0001F0EEF8D84F386B38
:1024500038B140F27B42AFF2D801AFF2C00001F0D8
:10246000E3F8FFF7D6FFFA682B689919934205D96C
:102470008B4208D9914206D9012404E08B4201D84D
:10248000914200D9012429601CB1881A0021FFF76C
:102490008DFFFFF70FFF002807D1C7494FF080508D
:1024A0000860BFF34F8FBFF36F8FB1E610B50446DE
:1024B0000020002C12D0BE48006B38B140F2CF4251
:1024C000AFF24411AFF22C1001F0AEF8FFF7A1FF0C
:1024D00000212046FFF76AFFFFF7ECFE002807D136
:1024E000B5494FF080500860BFF34F8FBFF36F8F37
:1024F00010BD70B50546002D07D140F2FB42AFF28A
:102500008011AFF2681001F08FF8A94E3068854253
:1025100001D1002070BD00F09DFE6C6900F0B4FE9A
:10252000706B844202D0B06B844201D1022070BD36
:10253000A048844205D1A86A08B1022070BD0320DA
:1025400070BD9C481438844202D00CB1012070BD8B
:10255000042070BD10B5044600F07CFE0CB9944810
:102560000468E46A00F090FE204610BD10B50446F1
:1025700000F0B1FE5020EFF3118180F31188BFF31A
:102580004F8FBFF36F8F0CB989480468E06A81F3FD
:10259000118810BD2DE9F04104460D460026202D7E
:1025A00007D34FF4B062AFF22821AFF2102001F050
:1025B0003BF8202D00D31F2500F04CFE7C4F04B9C2
:1025C0003C68D4F82C80A8453CD0454508D93868EB
:1025D000844209D03868C06AA84205D8012603E0C1
:1025E0003868844200D10126E562A069002802DB38
:1025F000C5F12000A061714D08EB8801606905EB11
:102600008101884215D1201DFFF7A6FC012120B9C8
:102610003A6901FA08F082433A61E06A3A69814016
:102620001143396100EB800005EB8000211DFFF7AD
:102630006FFC3EB160494FF080500860BFF34F8F90
:10264000BFF36F8FBDE8F04100F01EBE70B5584D6E
:10265000286B002802D00120E86170BD0020E861ED
:102660002869B0FA80F0C0F11F00544E00EB8004DE
:1026700056F8240038B940F6F622AFF2FC21AFF24A
:10268000E42000F0D1FF06EB840041684968416016
:1026900000F10802914201D1496841604068C06878
:1026A000286070BD70B5044600F0D4FD404D04B9FB
:1026B0002C68201DFFF750FC58B9E06A3F4A00EB38
:1026C000800152F8211021B90121814028698843F5
:1026D0002861A06A18B104F11800FFF73DFC211D24
:1026E0003448FFF715FC00F0CFFD686928B100F011
:1026F000B1FDFFF719FD00F0C7FD2868844213D132
:10270000686990B1286B38B140F25762AFF29031EE
:10271000AFF2783000F088FF27494FF08050086012
:10272000BFF34F8FBFF36F8F70BD2248A968006859
:10273000884202D10020286070BDBDE8704085E766
:1027400070B500250446002807D140F28162AFF23F
:10275000D031AFF2B83000F067FF164960698842A7
:1027600005D1A06A2839884201D000B90125284640
:1027700070BD70B50446002807D140F2AB62AFF2DD
:102780000041AFF2E83000F04FFF002C34D0084D8C
:102790002868844230D000F05DFD2046FFF7D0FF6E
:1027A00030B3201DFFF7D8FBE06A0121814007E02C
:1027B00044140020782B002004ED00E0A82800201D
:1027C0002A6911432961F94900EB800001EB80007F
:1027D000211DFFF79DFBE06A2968C96A884207D37B
:1027E000F3494FF080500860BFF34F8FBFF36F8FF6
:1027F000BDE8704000F048BD70BD2DE9F0410026F5
:102800000446002807D140F2E262AFF28C41AFF2F9
:10281000744000F009FF00F05EFD5020EFF31185D9
:1028200080F31188BFF34F8FBFF36F8F2046FFF700
:1028300087FF38B1DF4F386B40B104F11801DE4833
:10284000FFF766FB85F311883046E1E4E06A3968FA
:10285000C96A884200D30126201DFFF77DFBE06A8C
:1028600001213A69814011433961D04900EB800070
:1028700001EB8000211DFFF74BFBE3E770B5CE4E67
:10288000CC4D14361CE0FFF7C4FD306820B10024A5
:10289000FFF710FDA4B901E00124F9E700F0DAFC2C
:1028A000F068C468201DFFF757FBA868401EA860A9
:1028B0006868401E686000F0E7FC2046FFF743FCB4
:1028C00068680028DFD170BDB84E4FF08054B84D15
:1028D000FFF7D4FF30680128FAD92C60BFF34F8F7F
:1028E000BFF36F8FF4E71CB5B24800242C30CDE95C
:1028F000004023468022B1A1B248FFF7E5FB012842
:102900000CD0401C1CD140F28472AFF28C51AFF25B
:10291000745002B0BDE8104000F086BE502080F335
:102920001188BFF34F8FBFF36F8FA2484FF0FF3175
:10293000816201214161C460BDE81C4000F04ABCD5
:102940001CBD502080F31188BFF34F8FBFF36F8FF2
:1029500098490020486100F071BC9648C0687047F3
:1029600010B500F0B8FC9348C06810BD914880686D
:10297000704710B5002802D004461CB10AE08D480B
:102980000468FAE740F68C02AFF20C61AFF2F45043
:1029900000F04AFE04F1340010BD70B504460D4647
:1029A000002C07D140F60632AFF22C61AFF2146072
:1029B00000F03AFE7F48016820461831FFF7B4FA6C
:1029C0002846BDE870400121F0E42DE9F0410546BC
:1029D0000E461746002D07D140F61732AFF2606160
:1029E000AFF2486000F020FE724C206B38B940F620
:1029F0001B32AFF27461AFF25C6000F015FE21682B
:102A000046F000408861216828461831FFF780FAB7
:102A10003846BDE8F0410121C8E42DE9F041C06825
:102A2000C468002C07D140F66132AFF2AC61AFF25E
:102A3000946000F0F9FD04F118000746FFF78CFAE6
:102A40005C4D2A6B01265AB139465B48FFF760FAA4
:102A5000E06A2968C96A884214D90120EE6185E4D8
:102A6000201DFFF779FAE06A2A6906FA00F111439E
:102A700029614E4900EB800001EB8000211DFFF72A
:102A800047FAE5E7002071E470B506460C46494D6B
:102A9000286B002807D140F69932AFF21C71AFF2D3
:102AA000047000F0C1FD44F000403060F4683CB9AF
:102AB00040F6A132AFF23871AFF2207000F0B4FDF1
:102AC0003046FFF749FA201DFFF746FAE06A012673
:102AD0002A6906FA00F111432961344900EB8000AC
:102AE00001EB8000211DFFF713FAE06A2968C96A2B
:102AF000884202D90120EE6170BD002070BD10B582
:102B00000446002C07D140F6C132AFF28C71AFF20F
:102B1000747000F089FD2748016A2160C068606018
:102B200010BD70B504460D46002C07D140F6CB32DF
:102B3000AFF2B471AFF29C7000F076FD3DB940F693
:102B4000CC32AFF2C471AFF2AC7000F06DFD00F0AA
:102B500081FB184AD06829684B1C08D02368126A88
:102B6000934206D06268824203D801240DE000241B
:102B70000BE06268801A884206D2081A2860204654
:102B8000FFF7BDFF002400E0012400F07DFB20469C
:102B900070BD08490120C861704706484169002995
:102BA00012D0006B90B1002070470000A8280020D0
:102BB00004ED00E044140020502B002049444C4513
:102BC00000000000C92800080120EDE70220EBE723
:102BD000E249086880690A680968D26AC2F120027D
:102BE0008A61E1E770B506460C4600F033FBDB4D29
:102BF0002868406C80B92A68012082F848005CB1DE
:102C000001212046FFF7D2FBD5494FF080500860E4
:102C1000BFF34F8FBFF36F8F00F036FB00F01AFB4E
:102C20002868446C002034B116B12968486402E079
:102C30002A68611E5164296881F8480000F024FB6D
:102C4000204670BD2DE9F04781460F46164698464E
:102C500000F000FBC14D286890F84800022817D00A
:102C60002C68606C20EA090060642968012081F802
:102C70004800B8F1000F0BD001214046FFF796FB4A
:102C8000B7494FF080500860BFF34F8FBFF36F8F8D
:102C900000F0FAFA00F0DEFA16B12868406C3060F5
:102CA000286890F8480001280DD02868416CB94385
:102CB000416401242968002081F8480000F0E4FA0A
:102CC0002046BDE8F0870024F4E72DE9F0410446F2
:102CD0000D4690461F460126002C07D141F2FD0209
:102CE000AFF66411AFF64C1000F09EFC00F0B2FAA3
:102CF0000FB1606C386094F84800022184F84810E5
:102D0000B8F1050F13D2DFE808F01203070B0D002E
:102D1000616C294361640AE0616C491C616406E0EE
:102D2000656404E0022801D0656400E00026012803
:102D300028D1201DFFF710F9884DE06A01212A698A
:102D4000814011432961874900EB800001EB80003D
:102D5000211DFFF7DDF8A06A38B141F23512AFF658
:102D6000E011AFF6C81000F05FFCE06A2968C96A9C
:102D7000884207D97A494FF080500860BFF34F8FDF
:102D8000BFF36F8F00F080FA30465EE52DE9F04723
:102D90000446DDF820800D4691469A460127002C16
:102DA00007D141F26812AFF62821AFF6102000F0EB
:102DB0003BFC00F090FA5020EFF3118680F311886D
:102DC000BFF34F8FBFF36F8FBAF1000F02D0606C6B
:102DD000CAF8000094F84800022184F84810B9F1BC
:102DE000050F13D2DFE809F01203070B0D00616C29
:102DF000294361640AE0616C491C616406E0656412
:102E000004E0022801D0656400E00027012832D1E7
:102E1000A06A38B141F2AF12AFF69C21AFF6842020
:102E200000F002FC4D4D286B4FF0010978B104F120
:102E300018014D48FFF76CF8E06A2968C96A8842B2
:102E400019D9B8F1000F14D0C8F8009013E0201D74
:102E5000FFF782F8E06A2A6909FA00F11143296153
:102E600000EB80013F4800EB8100211DFFF750F887
:102E7000E2E7C5F81C9086F31188384621E72DE972
:102E8000F04104468846002C07D141F2E312AFF628
:102E90001031AFF6F82000F0C7FB00F01CFA50200C
:102EA000EFF3118780F31188BFF34F8FBFF36F8F5C
:102EB00094F84800022184F84810616C491C616450
:102EC000012830D1A06A38B141F20922AFF6503161
:102ED000AFF6383000F0A8FB204D286B012678B102
:102EE00004F118012048FFF713F8E06A2968C96A5D
:102EF000884218D9B8F1000F14D0C8F8006012E069
:102F0000201DFFF729F8E06A2A6906FA00F111434B
:102F10002961144900EB800001EB8000211DFEF7C0
:102F2000F7FFE2E7EE6187F311888EE410B5002821
:102F30000BD0044600F08EF994F84800022807D020
:102F4000002400F0A1F9204610BD04480468F1E710
:102F5000002084F848000124F3E700004414002016
:102F600004ED00E0A8280020502B002030B5744963
:102F700000E011460A688242FBD34B685C18844229
:102F800003D140681844486008460D684468231817
:102F9000AB420DD16A4B103B1B689A4206D0526877
:102FA000224442600A681268026002E0036000E0A6
:102FB0000260814200D0086030BD4FF4104161488A
:102FC000420706D0C01D20F007005E49411AC1F536
:102FD00010415B4A1060002353600144083921F01E
:102FE0000701103A11604B600B600B1A43600160DF
:102FF0004068906050604FF00040D06070472DE90D
:10300000F04105460026FFF704FA4D4F103F38689F
:1030100008B9FFF7D2FFF86805424AD175B1083503
:1030200068070BD005F00700C0F1080005446807E9
:1030300004D0BF2244A14EA000F0F6FA002D38D0F3
:103040007868854235D83E490846046801E0214643
:1030500004466068A84202D220680028F7D1386888
:10306000844226D00E680836206808606068401BDD
:10307000102811D904EB05085FEA487004D0EC224F
:1030800031A13BA000F0D0FA6068401BC8F80400F2
:1030900065604046FFF76AFF61687868401A7860AB
:1030A000BA68904200D2B860F868014361600020BD
:1030B0002060FFF7FFF8700705D04FF4967222A149
:1030C0002BA000F0B1FA3046BDE8F08170B50028C1
:1030D0002BD0083804461A4D6068103DE968084254
:1030E00005D14FF4A07218A121A000F09DFA20682C
:1030F00028B140F2411214A11DA000F095FA6068B9
:10310000E968084211D02268002A0ED18843606025
:10311000FFF77FF960686968084468602046FFF738
:1031200025FFBDE87040FFF7C5B870BD04481038F2
:103130004068704702481038806870477047000048
:10314000901400208C2B00202E2E5C2E2E5C4672BC
:10315000656552544F535C706F72745C4D656D4D74
:10316000616E675C686561705F342E63000000000B
:103170004572726F723A25732C25640D0A000000A7
:1031800067484068401C04D0F42266A16FA000F09C
:103190004BFA502080F31188BFF34F8FBFF36F8F2E
:1031A000FEE720384FF08073C36121F00101816197
:1031B0006A49416140F82029704769484FF47A71A3
:1031C0000068B0FBF1F14FF0E020491E416107219A
:1031D000016170471CB5634908780190FF200870B1
:1031E000087800909DF800004D4A00F050001070E3
:1031F0000720906006E09068401E90609DF80000F7
:10320000400000909DF800000006F4D4107A0002FF
:1032100000F4E0609060019808705348016841F440
:1032200070010160016841F070410160FFF7C5FF66
:1032300000205060FCF798FF00201CBD3848406813
:10324000B0F57A7F05D04FF4B57236A13FA000F0FB
:10325000EBB97047502080F31188BFF34F8FBFF355
:103260006F8F2F494868401C486001280BD13E48A9
:103270001C38006810F0FF0F05D04FF4BD7229A173
:1032800032A000F0D1B9704710B5254C6068002815
:1032900005D140F2811223A12CA000F0C5F960688D
:1032A000401E6060002801D180F3118810BD10B568
:1032B000502080F31188BFF34F8FBFF36F8FFEF75D
:1032C00099FF20B128494FF080501C390860002038
:1032D00080F3118810BD10B5FCF77CFF104C10284E
:1032E0000CD300F1E02090F8F0032178884205D259
:1032F0004FF42A720BA115A000F096F91A48143861
:103300000068A16800F4E060884207D9BDE8104079
:103310004FF42E7203A10DA000F086B910BD00007D
:10332000981400202E2E5C2E2E5C46726565525439
:103330004F535C706F72745C525644535C41524DF3
:103340005F434D335C706F72742E63004572726F11
:10335000723A25732C25640D0A00000081310008A3
:103360000000002000E400E020ED00E0F0B480EA7E
:103370000102D40F4200B2EB410F02D202460846CE
:1033800011464A0042D0C30DDDB2C1F3C752AD1A97
:10339000202D35DAC1F3160141F4000204B1524286
:1033A000C5F1200602FA06F12A411044B3EBD05FC2
:1033B00023D0C4B1012DA0EBC35009DCF0BC4FF009
:1033C000004202EAC352DBB200F5000000F0BBB8D5
:1033D000400000F1807000EBC350A0F1807040EA23
:1033E000D170490009E0490841EAC071A0EBC3501F
:1033F00000F50000400800EBC350F0BC00F09AB8A4
:103400006142012202EB4101001BF6E7F0BC70476C
:1034100081F00041AAE780F00040A7E780EA0102BE
:1034200010B502F00043400022D04A001FD0010E28
:1034300001EB1261C0F35600C2F3560240F40000E3
:1034400042F40002A0FB022000047F39140400D0E3
:10345000401C50EA124001D44000491EC2B20C0682
:1034600004EBD010401C4008802A02D003E000206A
:1034700010BD20F00100002900DA0020184310BD23
:10348000420005D0C0F3C7525242914201DC0020F5
:10349000704700EBC150704700F0004220F0004040
:1034A000C10DC0F3160040F400007F2901DA0020AE
:1034B0007047962903DCC1F19601C84001E09639B6
:1034C0008840002AF4D04042704720F00040C10DEF
:1034D000C0F3160040F400007F2901DA0020704795
:1034E000962903DCC1F19601C8407047963988409F
:1034F00070470000002801DBC0F10040002901DB1B
:10350000C1F100418142704730B50B4601460020B1
:103510002022012409E021FA02F59D4205D303FA95
:1035200002F5491B04FA02F52844151EA2F1010216
:10353000F1DC30BD0029A8BF7047401C490008BF1E
:1035400020F00100704710B4B0FA80FC00FA0CF0D3
:1035500050EA010404BF10BC704749B1CCF120040B
:1035600021FA04F411FA0CF118BF01212143084398
:10357000A3EB0C01CB1D4FEA00614FEA102042BFC4
:10358000002010BC704700EBC35010440029A4BFBA
:1035900010BC7047401C490008BF20F0010010BC5F
:1035A00070470000064C074D06E0E06840F001035C
:1035B00094E8070098471034AC42F6D3FCF7BCFD02
:1035C000785A0008985A000870B58D1810F8014B09
:1035D00014F0030201D110F8012B231106D110F8C9
:1035E000013B03E010F8016B01F8016B521EF9D1A9
:1035F000ABB110F8012B04F00C048A1A0C2C03D088
:10360000A2EB84129B1C08E010F8014BA2EB0422F1
:10361000F8E712F8014B01F8014B5B1EF9D5A942FE
:10362000D4D3002070BD00000FB4054B10B503A922
:10363000044A029800F018F810BC5DF814FB000072
:1036400075100008A414002002E008C8121F08C169
:10365000002AFAD170477047002001E001C1121F13
:10366000002AFBD1704700002DE9FF4F8BB09A462E
:103670000F460546002606E025280BD052460D9938
:1036800090476D1C761C28780028F5D10FB0304685
:10369000BDE8F08F0024A0460122604900E0044309
:1036A00015F8013F203B02FA03F00842F7D12878D1
:1036B0002E2817D115F8010F44F004042A280ED043
:1036C0006FF02F022878A0F1300109290AD808EB01
:1036D000880102EB410100EB01086D1CF2E757F88D
:1036E000048B6D1C287869283ED006DC0028CDD0DC
:1036F00063280BD0642804D136E0732810D07528D5
:103700004BD052460D999047761C85E017F8040B74
:103710008DF8000000208DF80100E946012003E04B
:1037200057F8049B4FF0FF3061074FF0000401D4BD
:103730000AE0641C44450DDA8442FADB19F80410EF
:103740000029F6D106E0641C8442FCDB19F8041061
:103750000029F8D1264404E019F8010B52460D99CE
:103760009047641EF8D257E001CF4FF00A0B0028B3
:1037700002DA40422D2102E0210504D52B218DF8EB
:103780002410012103E0E10705D02021F7E70DF126
:10379000200908910CE00021F9E701CF4FF00A0B56
:1037A000F9E75946FFF7B0FE01F1300209F8012DA3
:1037B0000028F6D1ADEB090000F1200B600701D421
:1037C0004FF00108D84502DDA8EB0B0000E0002017
:1037D0008046002406E009A85246005D0D999047F6
:1037E000641C761C08988442F5DB04E030205246C5
:1037F0000D999047761CB8F10001A8F10108F5DC9D
:1038000005E019F8010B52460D999047761CBBF163
:103810000001ABF1010BF4DC6D1C34E70928010059
:103820000000000000000000000000000000000098
:103830000000000808080808080800001818000020
:1038400000486C241200000000000000000000008E
:103850000000002424247F1212127F121212000092
:103860000000081C2A2A0A0C1828282A2A1C0808E2
:1038700000000022251515152A5854545422000022
:103880000000000C1212120A76252911916E000018
:103890000006060403000000000000000000000015
:1038A00000402010100808080808081010204000E8
:1038B000000204080810101010101008080402007C
:1038C0000000000008086B1C1C6B080800000000CA
:1038D00000000000080808087F0808080800000029
:1038E00000000000000000000000000006060403C5
:1038F0000000000000000000FE00000000000000CA
:1039000000000000000000000000000006060000AB
:10391000000080404020201010080804040202002B
:103920000000001824424242424242422418000051
:10393000000000080E08080808080808083E0000F3
:103940000000003C4242422020100804427E000059
:103950000000003C4242201820404042221C00004F
:10396000000000203028242422227E20207800001D
:103970000000007E0202021A26404042221C000083
:10398000000000382402021A264242422418000095
:103990000000007E22221010080808080808000015
:1039A0000000003C4242422418244242423C0000B3
:1039B000000000182442424264584040241C000089
:1039C0000000000000001818000000001818000097
:1039D00000000000000000080000000000080804CB
:1039E00000000040201008040204081020400000DD
:1039F0000000000000007F0000007F0000000000C9
:103A000000000002040810204020100804020000FA
:103A10000000003C424246402010100018180000F0
:103A20000000001C225A555555552D42221C0000FD
:103A30000000000808181414243C224242E7000049
:103A40000000001F2222221E22424242221F0000AA
:103A50000000007C4242010101010142221C0000E1
:103A60000000001F2242424242424242221F000006
:103A70000000003F4212121E12120242423F00009A
:103A80000000003F4212121E121202020207000042
:103A90000000003C2222010101712122221C0000B1
:103AA000000000E7424242427E42424242E70000BA
:103AB0000000003E0808080808080808083E000042
:103AC0000000007C10101010101010101010110FBA
:103AD0000000007722120A0E0A121222227700003A
:103AE000000000070202020202020202427F0000FE
:103AF00000000077363636362A2A2A2A2A6B00003A
:103B0000000000E346464A4A5252526262470000B1
:103B10000000001C2241414141414141221C000062
:103B20000000003F424242423E0202020207000001
:103B30000000001C2241414141414D53321C6000B4
:103B40000000003F4242423E1212222242C70000C1
:103B50000000007C4242020418204042423E000025
:103B60000000007F4908080808080808081C000031
:103B7000000000E74242424242424242423C0000D0
:103B8000000000E742422224241414180808000010
:103B90000000006B49494949555536222222000050
:103BA000000000E7422424181818242442E70000EB
:103BB000000000772222141408080808081C0000DE
:103BC0000000007E2120101008040442423F000043
:103BD0000078080808080808080808080808780095
:103BE00000000202040408080810102020204040B1
:103BF000001E1010101010101010101010101E00C9
:103C00000038440000000000000000000000000038
:103C1000000000000000000000000000000000FFA5
:103C20000006080000000000000000000000000086
:103C3000000000000000003C4278444242FC0000CA
:103C4000000000030202021A26424242261A000025
:103C50000000000000000038440202024438000066
:103C600000000060404040784442424264D8000076
:103C7000000000000000003C427E0202423C0000C6
:103C8000000000F08808087E08080808083E0000C8
:103C9000000000000000007C22221C023C42423C4A
:103CA000000000030202023A4642424242E700009C
:103CB0000000000C0C00000E08080808083E000078
:103CC0000000003030000038202020202020221E5C
:103CD0000000000302020272120A1612227700008C
:103CE0000000000E0808080808080808083E000040
:103CF000000000000000007F9292929292B70000B4
:103D0000000000000000003B4642424242E7000043
:103D1000000000000000003C42424242423C0000E1
:103D2000000000000000001B26424242221E020743
:103D3000000000000000007844424242447840E025
:103D400000000000000000774C040404041F000081
:103D5000000000000000007C42023C40423E0000A7
:103D6000000000000008083E0808080808300000AD
:103D700000000000000000634242424262DC00009A
:103D800000000000000000E742242414080800009E
:103D900000000000000000EB4949555522220000B8
:103DA000000000000000007624181818246E00009F
:103DB00000000000000000E742242414180808074F
:103DC000000000000000007E22100808447E000071
:103DD00000C0202020202010202020202020C000F3
:103DE00010101010101010101010101010101010D3
:103DF000000608080808081008080808080806004F
:103E00000C32C200000000000000000000000000B2
:103E100000000000000000000000000000000000A2
:103E20000000000000000000000000000000000092
:103E30000000000000000000000000000000000082
:103E40000000000000000000000000000000000072
:103E500000000000000000000000C001C001C0011F
:103E6000C001C001C001C00180008000800080004E
:103E70008000800080000000000000000000800141
:103E8000C003C0038001000000000000000000002B
:103E9000000000000000E01CE01CF01E700E38075F
:103EA000180308018400000000000000000000006A
:103EB0000000000000000000000000000000000002
:103EC00000000000000000000000000000000000F2
:103ED0000000000000000000000000002010201082
:103EE000201020102010FE7FFE7F10081008100800
:103EF0001008100810081008FE7FFE7F0804080450
:103F0000080408040804000000000000000000008D
:103F1000000000000000000000010001C00760195F
:103F2000103118311839183938017001E001C00317
:103F30008007000F001D003900311C311C310C318D
:103F40000C11180DE0070001000100010000000045
:103F50000000000000000000000000001C103618E7
:103F60006308630C63046304630263026301361D28
:103F70009C3780228063406340632063206330630A
:103F800010221836081C000000000000000000008D
:103F9000000000000000000000000000F000980198
:103FA0008C018C018C018C018C00CC007800183EB7
:103FB0001C083608320863046304C304C303834344
:103FC00006438E26781C0000000000000000000060
:103FD0000000000000001C003C003C0030003000ED
:103FE00010000C00060000000000000000000000AF
:103FF00000000000000000000000000000000000C1
:1040000000000000000000000000000000000000B0
:104010000000000000000040002000100008000C1C
:1040200000040006000300030003800180018001FA
:1040300080018001800180018001000300030003F2
:1040400000060006000C00080010002000400000E0
:104050000000000000000200040008001000300012
:1040600020006000C000C000C0008001800180010D
:1040700080018001800180018001C000C000C0007B
:104080006000600030001000080004000200000022
:104090000000000000000000000000000000000020
:1040A00000018003800300011C713C79783DC0074A
:1040B0000001C007783D3C791C710001800380033A
:1040C000800100000000000000000000000000006F
:1040D00000000000000000000000000000000000E0
:1040E00000000001000100010001000100010001C9
:1040F000FC7F00010001000100010001000100013E
:1041000000000000000000000000000000000000AF
:10411000000000000000000000000000000000009F
:10412000000000000000000000000000000000008F
:10413000000000000000000000000000000000007F
:104140001C003C003C003000300010000C00060059
:10415000000000000000000000000000000000005F
:10416000000000000000000000000000000000004F
:10417000FE7F0000000000000000000000000000C2
:10418000000000000000000000000000000000002F
:10419000000000000000000000000000000000001F
:1041A000000000000000000000000000000000000F
:1041B00000000000000000000000000000001800E7
:1041C0003C003C001800000000000000000000005F
:1041D00000000000000000400060002000300010DF
:1041E00000180008000C0004000600020003000193
:1041F00080018000C00040006000200030001000FE
:10420000180008000C000400060002000000000076
:10421000000000000000000000000000C007600C6B
:1042200030181830183018200C600C600C600C60CE
:104230000C600C600C600C600C601820183018309A
:104240003018600CC00700000000000000000000F3
:1042500000000000000000000000000000018001DC
:10426000F8018001800180018001800180018001CE
:104270008001800180018001800180018001800136
:104280008001C003F81F00000000000000000000D3
:10429000000000000000000000000000E007101C0B
:1042A0000818043004300C300C30003000180008BE
:1042B000000400020001800040002020102008209F
:1042C0000430FC1FFC1F0000000000000000000084
:1042D000000000000000000000000000E003180ED5
:1042E0000C0C0C180C180C180018000C0006C0035D
:1042F000000E00180010003000300C300C300C1094
:104300000C18180CE0030000000000000000000082
:10431000000000000000000000000000000C000E83
:10432000000E000F800E800E400E600E200E100E4C
:10433000100E080E040E040EFE7F000E000E000E7E
:10434000000E000E000EC07F000000000000000004
:10435000000000000000000000000000F03FF03FFF
:1043600010001000100008000800C807280C1818DA
:10437000081000300030003000300C300C300418D1
:104380000418080CF003000000000000000000000A
:10439000000000000000000000000000800FC010BE
:1043A000203010301800180008000C008C0F6C181A
:1043B0003C301C600C600C600C600C6018601820B5
:1043C00030306018C007000000000000000000004E
:1043D000000000000000000000000000F83FF83F6F
:1043E0001C100C0804080404000400020002000170
:1043F00000010001800080008000C000C000C000FB
:10440000C000C000C000000000000000000000006C
:10441000000000000000000000000000E007300C79
:1044200018180C300C300C301C3038187008E007AD
:10443000B007180E0C1C0638063006300630063061
:104440000C18180CE0030000000000000000000041
:10445000000000000000000000000000E00318045D
:104460000C080C18061006300630063006300638E8
:104470000C3C1836F03100300018001800180C0CF5
:104480000C060C03F001000000000000000000001A
:10449000000000000000000000000000000000001C
:1044A000000000000000000000008001C003C00305
:1044B00080010000000000000000000000008001FA
:1044C000C003C003800100000000000000000000E5
:1044D00000000000000000000000000000000000DC
:1044E00000000000000000000000C000C00000004C
:1044F00000000000000000000000000000000000BC
:104500000000C000C00080008000400040000000AB
:104510000000000000000000000000200010000863
:104520000004000600038001C00060003000180095
:104530000C00180030006000C0008001000300067D
:10454000000400080010002000000000000000002F
:10455000000000000000000000000000000000005B
:1045600000000000000000000000FE7F00000000CE
:10457000000000000000FE7F0000000000000000BE
:10458000000000000000000000000000000000002B
:1045900000000000000000000000040008001000FF
:1045A00020006000C000800100030006000C00181D
:1045B00000300018000C000600038001C0006000FD
:1045C00020001000080004000000000000000000AF
:1045D00000000000000000000000C0073018083094
:1045E00008600C601C601C601C600030001C000631
:1045F0000001800080008000800000000000800139
:10460000C003C003800100000000000000000000A3
:10461000000000000000000000000000C00760185B
:10462000103018200C2F8C4D864CC64CC64C664C56
:1046300066446644662666266615CC1C0C40082037
:1046400018303018C0070000000000000000000013
:10465000000000000000000000000001C001C001D7
:10466000C001400160032003200320033006100630
:1046700010061006F80F080C080C080C0C0C041897
:10468000041806181F7C0000000000000000000055
:10469000000000000000000000000000FE07181CE1
:1046A000183818301830183018301818180CF80747
:1046B00018181830182018601860186018601860F2
:1046C00018301818FE0F0000000000000000000065
:1046D000000000000000000000000000C02760385B
:1046E000103018200C400C400400060006000600A4
:1046F000060006000600060006000C400C400C20D8
:1047000018303018C0070000000000000000000052
:10471000000000000000000000000000FE03180E72
:1047200018181830183018301860186018601860A1
:104730001860186018601860186018301830181069
:104740001818180EFE030000000000000000000012
:10475000000000000000000000000000FE3F1830D4
:10476000182018601840180018081808180CF80FBE
:10477000180C1808180818001800180018401840DD
:1047800018201830FE3F000000000000000000006C
:10479000000000000000000000000000FE7F187014
:1047A000184018C018801800181018101818F81F92
:1047B0001818181018101800180018001800180001
:1047C000180018007E00000000000000000000003B
:1047D000000000000000000000000000C013701C7A
:1047E000101018100C200C20040006000600060013
:1047F0000600060006FC063006300C300C3018307F
:1048000018303008C0070000000000000000000061
:104810000000000000000000000000003F7E0C18B7
:104820000C180C180C180C180C180C180C180C1868
:10483000FC1F0C180C180C180C180C180C180C1861
:104840000C180C183F7E0000000000000000000063
:10485000000000000000000000000000F81F8001C0
:104860008001800180018001800180018001800140
:104870008001800180018001800180018001800130
:1048800080018001F81F000000000000000000000F
:10489000000000000000000000000000E07F0006B3
:1048A00000060006000600060006000600060006D8
:1048B00000060006000600060006000600060006C8
:1048C00000060006000600060E060E038E01FC0020
:1048D0000000000000000000000000007E7C1818AE
:1048E0001808180418061802180198019801D80130
:1048F000B803380318071806180E180C181C1818D7
:10490000183018307EFC000000000000000000009D
:104910000000000000000000000000007E00180001
:1049200018001800180018001800180018001800C7
:104930001800180018001800180018001840184037
:1049400018201830FE3F00000000000000000000AA
:104950000000000000000000000000001FF81C38EC
:104960001C381C381C3C34343434343434367432FF
:104970006432643264326431C431C431C431C4300D
:10498000C43084309FFC00000000000000000000E4
:104990000000000000000000000000001F7C1C1050
:1049A0003C103410341074106410E410C410C4119E
:1049B00084118413041304170416041E041C041C1D
:1049C000041C04181F180000000000000000000074
:1049D000000000000000000000000000C003300CD8
:1049E000181808100C300C3006600660066006606F
:1049F000066006600660066006600C200C30081039
:104A00001818300CC0030000000000000000000077
:104A1000000000000000000000000000FE0F181859
:104A2000183018601860186018601860183018186E
:104A3000F80F1800180018001800180018001800C7
:104A4000180018007E0000000000000000000000B8
:104A5000000000000000000000000000C003300C57
:104A600018180C100C300C200660066006600660FA
:104A700006600660066006600660E4612C331C3246
:104A80001816300EC007004C007C003800000000F3
:104A9000000000000000000000000000FE07181CDD
:104AA000183818301830183018301818180CF80743
:104AB00098031803180718061806180E180C180C77
:104AC000181C18187E78000000000000000000008C
:104AD000000000000000000000000000E027303867
:104AE00018300C200C200C000C0018007800E0039B
:104AF000800F001E003800700060046004600860D1
:104B000018303818C80F0000000000000000000036
:104B1000000000000000000000000000FC3F8C21AD
:104B20008461824182418001800180018001800195
:104B3000800180018001800180018001800180016D
:104B400080018001E007000000000000000000007C
:104B50000000000000000000000000003F7C0C107E
:104B60000C100C100C100C100C100C100C100C1065
:104B70000C100C100C100C100C100C100C100C1055
:104B800008083804E00300000000000000000000F6
:104B90000000000000000000000000003EF81820A7
:104BA00018201820301030103010301060086008C5
:104BB0006008E00CC004C004C004800380038003CC
:104BC0008003000100010000000000000000000060
:104BD000000000000000000000000000DFF386611C
:104BE000862186218C210C218C238C138C138C1311
:104BF0004C1358125816580E380E380E380E300C0A
:104C00001004100410040000000000000000000068
:104C10000000000000000000000000007E3E1808B8
:104C200038083004300470026002E001C001C001A5
:104C3000800180034003400720062006100C100C62
:104C4000081808183E7C000000000000000000006A
:104C50000000000000000000000000007E7C1C102E
:104C6000181018083008300C700460046002C0028C
:104C7000C002C001800180018001800180018001AB
:104C800080018001E007000000000000000000003B
:104C9000000000000000000000000000F83F1818AD
:104CA0000818040C040E00060007000380038001AE
:104CB000C001C000E0006000700030003820182003
:104CC0001C100C18FE1F0000000000000000000077
:104CD000000000000000C03F4000400040004000D5
:104CE00040004000400040004000400040004000C4
:104CF00040004000400040004000400040004000B4
:104D000040004000400040004000C03F0000000064
:104D1000000000000000000000000800180018005B
:104D2000100030002000600060004000C0008000E3
:104D3000800180010001000300020006000600045B
:104D4000000C0008001800180010003000200000BF
:104D5000000000000000FC0300020002000200024C
:104D60000002000200020002000200020002000233
:104D70000002000200020002000200020002000223
:104D800000020002000200020002FC03000000001A
:104D90000000000000008007C0062008101000007E
:104DA0000000000000000000000000000000000003
:104DB00000000000000000000000000000000000F3
:104DC00000000000000000000000000000000000E3
:104DD00000000000000000000000000000000000D3
:104DE00000000000000000000000000000000000C3
:104DF00000000000000000000000000000000000B3
:104E00000000000000000000000000000000FFFFA4
:104E10000000000000007800C00000010000000059
:104E20000000000000000000000000000000000082
:104E30000000000000000000000000000000000072
:104E40000000000000000000000000000000000062
:104E50000000000000000000000000000000000052
:104E600000000000000000000000F00318060C0C19
:104E70000C0C000C800F700C1C0C0C0C060C060C9F
:104E8000064C0C4FF8380000000000000000000045
:104E90000000000000000000000010001E001800CC
:104EA00018001800180018001800180FD81838300B
:104EB0003860186018601860186018601860182052
:104EC00038307818C807000000000000000000001B
:104ED00000000000000000000000000000000000D2
:104EE00000000000000000000000C007700C18184F
:104EF00018180C180C000C000C000C000C201820CA
:104F000018103008C007000000000000000000007A
:104F1000000000000000000000000010001E00184B
:104F200000180018001800180018E01B301C181892
:104F300018180C180C180C180C180C180C18081849
:104F4000181C307AE009000000000000000000009A
:104F50000000000000000000000000000000000051
:104F600000000000000000000000C007300C18180E
:104F700008100C300C30FC3F0C000C000C0018200A
:104F800018107018C00700000000000000000000AA
:104F9000000000000000000000000000003E80C390
:104FA00080C0C0C0C000C000C000FC1FC000C00066
:104FB000C000C000C000C000C000C000C000C000F1
:104FC000C000C000F80F000000000000000000005A
:104FD00000000000000000000000000000000000D1
:104FE00000000000000000000000C077306C1018C6
:104FF0001818181818181018300CF0071800180096
:10500000F00FF03F08700C600C600C603838E00F57
:105010000000000000000000000010001E0018004A
:1050200018001800180018001800980FD818383009
:105030001830183018301830183018301830183030
:10504000183018307EFC0000000000000000000056
:10505000000000000000000000000000800380034A
:1050600080030000000000000001F80180018001C1
:105070008001800180018001800180018001800128
:1050800080018001F81F0000000000000000000007
:1050900000000000000000000000000000380038A0
:1050A00000380000000000000010801F00180018E9
:1050B0000018001800180018001800180018001830
:1050C00000180018001800180018180C1806F00333
:1050D0000000000000000000000010001E0018008A
:1050E00018001800180018001800183E180C1806B0
:1050F000180318019801D801380318071806180C6E
:10510000181C18187E7C0000000000000000000041
:10511000000000000000000000000001F801800114
:105120008001800180018001800180018001800177
:105130008001800180018001800180018001800167
:1051400080018001F81F0000000000000000000046
:10515000000000000000000000000000000000004F
:1051600000000000000000000800EE1C9C338C31A1
:105170008C318C318C318C318C318C318C318C3147
:105180008C318C31DE7B000000000000000000004C
:10519000000000000000000000000000000000000F
:1051A000000000000000000010001E0FD81838306A
:1051B00018301830183018301830183018301830AF
:1051C000183018307EFC00000000000000000000D5
:1051D00000000000000000000000000000000000CF
:1051E00000000000000000000000C007701C10302C
:1051F00018300C600C600C600C600C600C60183097
:1052000018303018C0070000000000000000000047
:10521000000000000000000000000000000000008E
:10522000000000000000000010009E0F58183830E9
:10523000182018601860186018601860186018301E
:1052400038307818980718001800180018007E00E9
:10525000000000000000000000000000000000004E
:1052600000000000000000000000C023303C18389F
:1052700018300C300C300C300C300C300C30083046
:105280001838303CE033003000300030003000FC93
:10529000000000000000000000000000000000000E
:1052A000000000000000000060007E3C606660615D
:1052B000E000E000600060006000600060006000EE
:1052C00060006000FE070000000000000000000019
:1052D00000000000000000000000000000000000CE
:1052E00000000000000000000000E0273038183007
:1052F000182018007000E003800F001C04300430F8
:105300000C301C18EC0F0000000000000000000032
:10531000000000000000000000000000000000008D
:10532000800080008000C000E000FC1FC000C000C2
:10533000C000C000C000C000C000C000C000C0204D
:10534000C0208011000F00000000000000000000DD
:10535000000000000000000000000000000000004D
:10536000000000000000000010201E3C1830183023
:1053700018301830183018301830183018301830ED
:10538000183830F4E01300000000000000000000B6
:10539000000000000000000000000000000000000D
:1053A000000000000000000000007E3C18181808F3
:1053B000380830043004700260026002E001C0016D
:1053C000C001C000800000000000000000000000DC
:1053D00000000000000000000000000000000000CD
:1053E00000000000000000000000DFF78E630C23C7
:1053F0008C238C239813981358165816700E700E21
:10540000700E2004200400000000000000000000D6
:10541000000000000000000000000000000000008C
:1054200000000000000000000000FC3E7008700456
:10543000E004C002C0018003800340076006200C26
:10544000100C18183E7E0000000000000000000054
:10545000000000000000000000000000000000004C
:10546000000000000000000000007E7C18181808F2
:1054700030083008300460046004C002C002C0027A
:105480008001800180018000800080004C003C0091
:10549000000000000000000000000000000000000C
:1054A00000000000000000000000FC1F0C0C040EB7
:1054B0000406000380038001C000E000702030205B
:1054C00038301C18FC1F0000000000000000000025
:1054D0000000000000000030000800040004000488
:1054E000000400040004000400040004000400029E
:1054F0008001000200040004000400040004000411
:10550000000400040004000400040008003000004F
:105510000001000100010001000100010001000183
:105520000001000100010001000100010001000173
:105530000001000100010001000100010001000163
:105540000001000100010001000100010001000153
:105550000000000000000C001000200020002000CF
:10556000200020002000200020002000200040001B
:1055700080014000200020002000200020002000AA
:105580002000200020002000200010000C0000005F
:1055900000003800C400864002610022001C0000A8
:1055A00000000000000000000000000000000000FB
:1055B00000000000000000000000000000000000EB
:1055C00000000000000000000000000000000000DB
:1055D000D6D08000800080008000FC1F84108410E2
:1055E000841084108410FC1F8410800080008000D0
:1055F0008000BEB0F80F0808F80F0808F80F800008
:10560000FF7F0000F80F08080808F80F80008410DA
:10561000A2204000D4B00000FE3F0220F22702206A
:105620000220FA2F222122212221122912290A2EB8
:105630000220FE3F0220B5E7800080008000FC1FB2
:10564000841084108410FC1F841084108410FC1FAC
:10565000845080408040007FD7D30000FE1F0008A8
:105660000004000280018000FF7F80008000800035
:10567000800080008000A0004000D6D00000000024
:1056800000000018000008000008000008000808DA
:1056900018F8FF1F180818180818180818180818FC
:1056A000180818180818F8FF1F0808080008000054
:1056B000080000080000080000180000180000188A
:1056C00000000000BEB0000000000000400006C066
:1056D000FF07400006C0FF07400006C0FF07400864
:1056E00002003000FEFF3F000000C0FF07C00002C4
:1056F000C00002C00002C0FF0380100080110160E2
:10570000100E3010180C1E30001C00000000D4B029
:10571000000000000000080030F8FF1F080010081B
:10572000C010083F10080010080010080013C8FF40
:105730001008221008221008221008221008211236
:1057400008211488601648C013280010080010F8BB
:10575000FF1F080010000000B5E700000000000077
:10576000001800000800000800000800F0FF0F10FB
:105770000804100804100804100804F0FF071008BB
:1057800004100804100804100804F0FF07100800B3
:1057900000081000081000082000183000F01F005A
:1057A0000000D7D3000000000000000004F0FF0F4D
:1057B00000000600000100C00000280000180000E2
:1057C0001800001830FEFF7F0018000018000018B5
:1057D0000000180000180000180000180000180051
:1057E000001800001F00000C00000000D6D00000D0
:1057F0000000000000000080000000800100008028
:105800000100008001000080010000800100108084
:10581000010CF0FFFF0F3080010430800104308064
:1058200001043080010430800104308001043080A4
:10583000010430800104F0FFFF0730800104308054
:105840000104008001000080010000800100008050
:105850000100008001000080010000800100008044
:105860000100008001000080000000000000BEB0C8
:1058700000000000000000000000000000018001A6
:1058800000FFFF01000380010003800100FFFF0112
:10589000000380010003800100FFFF0100818100FF
:1058A000000003000000031CFCFFFF3F000040005D
:1058B0000003C00100FFFF010003C0000003C0009F
:1058C0000003C00000FFFF000001410000040100D0
:1058D000000E710000078101800101076000010EC8
:1058E0001898011C04E0011800C00000000000002E
:1058F000D4B0000000000000000000000008F0FF2D
:10590000FF1F3000000C3000000C3000100C30FE87
:105910003F0C3004000C3000000C3000000C300054
:10592000000C3000C00CF0FFFF0D3030060E3030A0
:10593000060C3010060C3010060C3010060C301817
:10594000860C3018860C3008060D300C860D30069B
:10595000EE0F3002FC0D3001000CF000000C3000A6
:10596000000CF0FFFF0F3000000C100000040000DE
:105970000000B5E7000000000000000000C00000CB
:1059800000C0010000C0000000C0000000C0000016
:1059900000C00000E0FFFF0360C0000360C0000320
:1059A00060C0000360C0000360C0000360C000036B
:1059B000E0FFFF0360C0000360C0000360C000039D
:1059C00060C0000360C00003E0FFFF0360C000018F
:1059D00060C0000000C0000800C0001000C000103F
:1059E00000C0001800C001380080FF1F0000000048
:1059F00000000000D7D300000000000000000000FD
:105A0000000000000003C0FFFF0700008007000047
:105A1000C000000060000000180000000C000080C2
:105A20000300008003000080010000800108008066
:105A3000011CFCFFFF3F008001000080010000808E
:105A40000100008001000080010000800100008052
:105A50000100008001000080010000800100008042
:105A600001000080010000FC010000E00000004097
:105A70000000000000000000985A0008000000200C
:105A8000A8140000C8350008C45B0008A814002052
:105A9000E8AA000058360008500600A24A04000197
:105AA000600D0102030406070809020406081061DC
:105AB00014C3010001520A0800091EDC0500009A07
:105AC00099DB4104100C0AD7EB41C3F5094285EB81
:105AD0000704A3014220100C8FC2E74100000542D9
