:020000040800F2
:1000000038090020450100080D0F0008BD0C00084C
:10001000090F0008F9030008BF22000800000000D3
:10002000000000000000000000000000851700082C
:10003000B9090008000000008D12000861190008CD
:100040005F0100085F0100085F0100085F01000810
:100050005F0100085F0100085F0100085F01000800
:100060005F0100085F0100085F0100085F010008F0
:100070005F0100085F0100085F0100085F010008E0
:100080005F0100085F0100085F0100085F010008D0
:100090005F0100085F0100085F0100085F010008C0
:1000A0005F0100085F0100085F0100085F010008B0
:1000B000091C00085F0100085F0100085F010008DB
:1000C0005F0100085F0100085F0100085F01000890
:1000D0005F010008252000085F0100085F0100089B
:1000E0005F0100085F0100085F0100085F01000870
:1000F0005F0100085F0100085F0100085F01000860
:100100005F0100085F010008711C00085F01000822
:100110005F0100085F0100085F0100085F0100083F
:100120005F0100085F0100085F0100085F0100082F
:10013000DFF80CD000F04EF9004800473D230008DE
:10014000380900200648804706480047FEE7FEE7DA
:10015000FEE7FEE7FEE7FEE7FEE7FEE7FEE7FEE777
:100160006919000831010008F0B480EA0102D40FD7
:100170004200B2EB410F02D20246084611464A0045
:1001800042D0C30DDDB2C1F3C752AD1A202D35DA0E
:10019000C1F3160141F4000204B15242C5F1200638
:1001A00002FA06F12A411044B3EBD05F23D0C4B168
:1001B000012DA0EBC35009DCF0BC4FF0004202EA75
:1001C000C352DBB200F5000000F0D5B8400000F1EA
:1001D000807000EBC350A0F1807040EAD1704900FC
:1001E00009E0490841EAC071A0EBC35000F50000E6
:1001F000400800EBC350F0BC00F0B4B861420122EB
:1002000002EB4101001BF6E7F0BC704781F00041B2
:10021000AAE780F00040A7E780EA010210B502F0EB
:100220000043400022D04A001FD0010E01EB1261B2
:10023000C0F35600C2F3560240F4000042F400023C
:10024000A0FB022000047F39140400D0401C50EAB7
:10025000124001D44000491EC2B20C0604EBD0107B
:10026000401C4008802A02D003E0002010BD20F08E
:100270000100002900DA0020184310BD30B480EAE4
:10028000010202F0004530F0004221F0004013D09E
:1002900090B1C30DD40DC2F31601C0F31600E41AD9
:1002A00041F4000140F400027D34914201D3641C0A
:1002B00000E04900002C02DA30BC002070474FF407
:1002C00000000023914201D3891A034340084FEAFA
:1002D0004101F7D151B1914202D14FF0004105E007
:1002E00002D24FF0010101E06FF0010103EBC450B5
:1002F000284430BC00F036B8C10F80EAE0700844F2
:10030000CA079623002100F036B800F0004220F022
:100310000040C10DC0F3160040F400007F2901DA4F
:1003200000207047962903DCC1F19601C84001E026
:1003300096398840002AF4D04042704720F00040AF
:10034000C10DC0F3160040F400007F2901DA00203F
:100350007047962903DCC1F19601C8407047963971
:10036000884070470029A8BF7047401C490008BF5B
:1003700020F00100704710B4B0FA80FC00FA0CF0D5
:1003800050EA010404BF10BC704749B1CCF120040D
:1003900021FA04F411FA0CF118BF0121214308439A
:1003A000A3EB0C01CB1D4FEA00614FEA102042BFC6
:1003B000002010BC704700EBC35010440029A4BFBC
:1003C00010BC7047401C490008BF20F0010010BC61
:1003D00070470000064C074D06E0E06840F001035E
:1003E00094E8070098471034AC42F6D3FFF7A4FE18
:1003F000E42D0008042E000800BFFEE710B50246F9
:10040000012000E050430B1EA1F10104E1B2F9D13B
:1004100010BD00000020014908707047170000203F
:1004200000200149087070471600002008B501211E
:10043000042001F04DF80121102001F049F80220BC
:10044000ADF8000001208DF8020048208DF803006F
:1004500069460E4800F018FB0220ADF800000120AC
:100460008DF8020048208DF803006946074800F027
:100470000BFB0120ADF800008DF8020048208DF83C
:1004800003006946024800F0FFFA08BD0010014071
:100490000008014008B50121102001F019F81020D2
:1004A000ADF8000003208DF8020010208DF8030045
:1004B00069460D4800F0E8FA012210210A4800F0D0
:1004C000CDFB2020ADF8000003208DF802001020A5
:1004D0008DF803006946044800F0D6FA0022202176
:1004E000014800F0BBFB08BD0010014010B54FF4FF
:1004F000A06000F051FD10BD08B50121042000F0FE
:10050000E7FF0121082000F0E3FF0121102000F0A7
:10051000DFFF4FF40050ADF8000010208DF803000D
:1005200003208DF802006946294800F0ADFA4FF427
:100530000051274800F090FB4FF40040ADF8000058
:1005400010208DF8030003208DF802006946204832
:1005500000F09AFA4FF400411D4800F07DFB4FF483
:100560008040ADF8000010208DF8030003208DF8C6
:1005700002006946164800F087FA4FF4804114489B
:1005800000F06AFB4FF48050ADF8000010208DF8A9
:10059000030003208DF8020069460D4800F074FA4C
:1005A0004FF480510A4800F057FB0820ADF80000D6
:1005B00010208DF8030003208DF8020069460548DD
:1005C00000F062FA0821034800F046FB08BD000075
:1005D000000C01400010014010B50021AE2000F0D9
:1005E00013FE0021D52000F00FFE0021502000F066
:1005F0000BFE0021A82000F007FE00213F2000F0A4
:1006000003FE0021D32000F0FFFD0021084600F08A
:10061000FBFD0021402000F0F7FD00218D2000F0BF
:10062000F3FD0021142000F0EFFD0021202000F058
:10063000EBFD0021022000F0E7FD0021A12000F0E9
:10064000E3FD0021C02000F0DFFD0021DA2000F0F2
:10065000DBFD0021122000F0D7FD0021812000F0F9
:10066000D3FD0021EF2000F0CFFD0021D92000F0C4
:10067000CBFD0021F12000F0C7FD0021DB2000F0C0
:10068000C3FD0021302000F0BFFD0021A42000F0B8
:10069000BBFD0021A62000F0B7FD0021AF2000F037
:1006A000B3FD10BD10B500F023FF4FF4803000F013
:1006B000E1FF01F03DF80446012C24D1102000F0A8
:1006C000C9F9022000F0D4F9002000F0C7FF002093
:1006D00001F002F8A00200F0F3FF4FF4E011200453
:1006E00001F00CF8012001F003F800BF392000F000
:1006F0008FFF0028FAD0022001F00EF800BF00F0B2
:10070000A5FF0828FBD110BD30B589B005460C46C1
:100710000121082000F0CCFE0121042000F0D8FEC9
:100720000120ADF8200028208DF8230008A92048DA
:1007300000F0AAF901211E4800F08CFAADF818501B
:10074000ADF814400020ADF81A00ADF8160005A968
:10075000184801F009FC0020ADF808000220ADF8AF
:100760000A000120ADF80C000020ADF80E000820B2
:10077000ADF8100002A90F4801F0FEFA32208DF802
:10078000040002208DF8050000208DF806000120ED
:100790008DF8070001A800F0C7FB012203210548DE
:1007A00001F040FB0121034801F0C5FA09B030BD5A
:1007B00000080140000C00407FB505460C460121B1
:1007C000084600F075FEADF80850ADF80440002072
:1007D000ADF80A00ADF8060001A94FF0804001F025
:1007E000C3FB01221146900701F01CFB1C208DF871
:1007F000000000208DF8010003208DF80200012088
:100800008DF80300684600F08FFB0121880701F096
:1008100092FA7FBD30B589B005460C460121022011
:1008200000F046FE0121082000F052FE012108469A
:1008300000F04EFE01211A4800F0B2F92020ADF878
:10084000200018208DF8230003208DF8220008A92D
:10085000144800F019F9ADF81850ADF81440002014
:10086000ADF81A00ADF8160005A90F4801F07CFBA1
:100870007020ADF804000120ADF806000020ADF8AE
:100880000C0001A9084801F0DFFA0821064801F030
:100890002DFB0121044801F04EFA09B030BD0000E3
:1008A00000081A00000C01400004004010B586B09A
:1008B00004460121880300F00BFE0121042000F012
:1008C00007FE4FF40070ADF8140018208DF81700E3
:1008D00003208DF8160005A9234800F0D5F84FF441
:1008E0008060ADF8140004208DF8170003208DF807
:1008F000160005A91C4800F0C7F801A801F0D3FCB8
:1009000001940020ADF80800ADF80A00ADF80C0025
:100910000C20ADF80E000020ADF8100001A913481E
:1009200001F04CFC25208DF8000001208DF801001D
:100930008DF802008DF80300684600F0F5FA0122F8
:1009400040F22551094801F014FC012240F22771C0
:10095000064801F00EFC0121044801F0C7FB00200D
:100960000349087006B010BD00080140003801407E
:100970001C00002030B50346002016E0B3F90050FB
:100980009C68645D0C541C88641C24B21C80B3F900
:100990000040B3F90450AC4201DB00241C80441C2D
:1009A00020B2DC88641E24B2DC80B3F90640002C3F
:1009B00001DD9042E2DB30BD7047000010B50B480E
:1009C000B0F90000002803DC00200849088005E099
:1009D00006480088323800B204490880034800887D
:1009E00081B2034801F08FFA10BD00002200002000
:1009F0000004004001B504490098086000BF0248A7
:100A000000680028FBD108BD3800002070B50346FF
:100A1000002016E00C5CB3F902609D68AC555C8860
:100A2000641C24B25C80B3F90240B3F90450AC42B8
:100A300001DB00245C80441C20B2DC88641C24B2EE
:100A4000DC80B3F90640B3F90450AC4201DA9042BD
:100A5000E0DB70BD0549096821F01001034A11600F
:100A600011460968014311607047000000200240F0
:100A700001460020034A106800F038000843106067
:100A800070470000002002402DE9F0410246002599
:100A90000026002000230024002791F803C00CF05A
:100AA0000F0591F803C00CF0100CBCF1000F03D03F
:100AB00091F802C04CEA050591F800C0BCF1000FA6
:100AC00031D0146800202BE04FF0010C0CFA00F339
:100AD000B1F800C00CEA03069E4220D183004FF01B
:100AE0000F0C0CFA03F7BC4305FA03FC4CEA0404B0
:100AF00091F803C0BCF1280F06D14FF0010C0CFA9D
:100B000000FCC2F814C00AE091F803C0BCF1480F21
:100B100005D14FF0010C0CFA00FCC2F810C0401CCB
:100B20000828D1D31460B1F800C0BCF1FF0F34DD48
:100B3000546800202EE000F1080C4FF0010808FA7C
:100B40000CF3B1F800C00CEA03069E4221D18300E9
:100B50004FF00F0C0CFA03F7BC4305FA03FC4CEA08
:100B6000040491F803C0BCF1280F05D100F1080C72
:100B700008FA0CF8C2F8148091F803C0BCF1480FD1
:100B800007D100F1080C4FF0010808FA0CF8C2F880
:100B90001080401C0828CED35460BDE8F0810000CE
:100BA000F0B50A46002300240021002500F000468D
:100BB000B6F1004F02D11D4EF16901E01B4E716884
:100BC000C0F3034583B200F44016B6F5401F08D1C8
:100BD00021F07061154E766826F07066134F7E60C6
:100BE00012E000F48016B6F5801F06D1032606FA3F
:100BF00005F4A14341F0706106E0460D360103FAA9
:100C000006F6B14341F0706122B1460D360103FA98
:100C100006F6314300F00046B6F1004F02D1034E14
:100C2000F16101E0014E7160F0BD00000000014083
:100C30000246002093680B400BB1012000E0002029
:100C4000704702460020D3680B400BB1012000E042
:100C50000020704741617047016170470AB101612E
:100C600000E04161704700000148007870470000D3
:100C7000170000200148007870470000160000208F
:100C8000014600200B4A127802F0800282B1012056
:100C9000084A127802F03F020A600A8812040A60C9
:100CA000054B1B880A681A440A600022014B1A701F
:100CB000704700001E0000202000002000BFFEE75B
:100CC00010B50C48B0F90000B0F5167F04DB4FF406
:100CD00016700849088005E006480088323000B2E6
:100CE000044908800348008881B2034801F00BF9E9
:100CF00010BD0000220000200004004010B5472174
:100D00004FF6FF70FFF700FD10BD10B500F02CFE90
:100D100000F067F800F026F84FF4E13000F0A1F899
:100D200000F098F800F01AF800F060F8FFF7E6FF1E
:100D300000F01CF800F006F800F040F800F030F881
:100D400010BD000010B5FFF771FB002002490870CC
:100D50004870887010BD00000C00002010B5FFF72F
:100D600099FB10BD10B5FFF7C1FB10BD10B5FFF723
:100D7000C3FB4FF480410948FFF76CFF0A20FFF7DF
:100D800039FE4FF480410548FFF766FF0A20FFF760
:100D900031FEFFF721FC00F009F910BD000C014005
:100DA00010B540F2E73140F25720FFF733FD002144
:100DB000014801F0A8F810BD00040040704730B5AC
:100DC0000B460024048044808280C480836000211C
:100DD00004E0002485686C544C1C21B29142F8DB7D
:100DE00030BD10B5FFF75EFC10BD704730B516483A
:100DF00000684FF47A72B0FBF2F1B1F1807F01D359
:100E000001201DE021F07F40401E4FF0E0225061A4
:100E100050170F22002807DA13071D0E0B4B00F0A6
:100E20000F04241F1D5503E013071C0E084B1C5410
:100E300000BF00204FF0E0229061072010610020E9
:100E400008B100BFFEE730BD3C00002018ED00E017
:100E500000E400E010B5472140F2E730FFF7ACFCBA
:100E600010BD10B5044600F005F82046FFF71EFD42
:100E700010BD000010B5002406E000200949085507
:100E800009490855601C04B2642CF6DB642205494C
:100E90000648FFF794FF642203490548FFF78FFFD8
:100EA00010BD00006C040020D00400205404002079
:100EB0006004002070B5044611480088401C1049A9
:100EC000088008460088A04219DB00200880102115
:100ED0000C48FFF7B6FEC0F10100C5B22A4610214A
:100EE0000848FFF7BBFE20210648FFF7AAFEC0F125
:100EF0000100C5B22A4620210248FFF7AFFE70BDAF
:100F00000A0000200010014000BFFEE7704700000B
:100F100000F01F0201219140024A430942F82310C8
:100F20007047000080E200E070B5002100230F222E
:100F3000C47804B3154C246804F4E064C4F5E06498
:100F4000210AC1F10403CA40447804FA03F1847809
:100F50001440214309010E4C0678A155047804F091
:100F60001F050124AC4005786D11AD0005F1E025A9
:100F7000C5F8004109E0047804F01F050124AC40E5
:100F8000044D0678761145F8264070BD0CED00E062
:100F900000E400E080E100E002490143024A116000
:100FA000704700000000FA050CED00E000200CE0A6
:100FB000002106E00022064B03EBC1031A544A1C31
:100FC000D1B28029F6DB421CD0B20828F0DB704792
:100FD00054000020F0B5144600267F2801DC3F298C
:100FE00000DDF0BD0B46CF1701EB5777FF10C7F1BF
:100FF0000707FAB2CF1701EB5777FF10A1EBC7072E
:10100000FDB2C5F107070123BB40DEB24CB10A4B6C
:1010100003EBC0039B5C3343074F07EBC007BB5494
:1010200008E0054B03EBC0039B5CB343024F07EBA7
:10103000C007BB5400BFD4E75400002070B50024A3
:101040001CE004F1B001C8B2002100F0DDF800217D
:10105000084600F0D9F80021102000F0D5F800254E
:1010600008E0084901EBC501085D012100F0CCF85A
:10107000681CC5B2802DF4DB601CC4B2082CE0DB18
:1010800070BD0000540000202DE9F05F80460C4642
:1010900015461E46A346A5F12000C5B200273EE036
:1010A0000C2E07D105EB45001F4901EB800010F81D
:1010B000079004E01D4800EB051010F807904FF072
:1010C000000A26E009F0800028B1214640460A9A2D
:1010D000FFF780FF09E00A9808B9012000E000202E
:1010E000024621464046FFF775FF4FEA49604FEA46
:1010F0001069601CC4B2A4EB0B00B04205D15C4681
:1011000008F1010000F0FF0806E00AF1010000F01C
:10111000FF0ABAF1090FD5DB00BF781CC7B2B7428E
:10112000BEDBBDE8F09F000080230008F427000824
:101130002DE9FF4F81B0074691461E460E9D4FF0A8
:10114000000A002439E0301B401EC1B20A20FFF71C
:1011500055F9B9FBF0F00A21B0FBF1F201FB1208DE
:10116000BAF1000F16D1701EA04213DDB8F1000FC6
:101170000ED10120AB4605EBDB71491001FB047178
:101180000090C8B22B4620220299FFF77DFF12E0A3
:101190004FF0010A0120AB4605EBDB71491001FB62
:1011A00004710090C8B208F13001CAB22B4602990E
:1011B000FFF76AFF00BF601CC4B2B442C3DB05B0D6
:1011C000BDE8F08FF8B505460E46144618E07A2DB6
:1011D00003DD002506F11000C6B23A2E04DD002022
:1011E00005460646FFF7E2FE012000902278102314
:1011F00031462846FFF748FF05F10800C5B2641CD8
:1012000020780028E3D1F8BD70B504460D4625B915
:1012100008211C48FFF71EFD05E0012D03D1082120
:101220001848FFF719FD4FF480511748FFF712FDDA
:1012300000261BE04FF400511348FFF70BFD04F0AC
:10124000800028B14FF400410F48FFF705FD04E08E
:101250004FF400410C48FFF7FDFC4FF400510A48E1
:10126000FFF7FAFC6006040E701CC6B2082EE1DB24
:101270004FF480510448FFF7EFFC08210148FFF7C5
:10128000EBFC70BD00100140000C0140704710B530
:10129000FFF7EAFC08B1FFF7BDF810BD2DE9FC41EE
:1012A000FFF7E8FC00287ED0FA20FFF703FE3F4856
:1012B000B0F9000004286EDB3D4A3E49002000F0F2
:1012C00063FA3D4A3D49012000F05EFA3C4A3D493F
:1012D000022000F059FA01A8FFF7D2FC78B101987A
:1012E000FFF70AF80746394637480068FEF73CFF23
:1012F0003549086035480068401C34490860334867
:1013000000680A2841D1002030490860FFF74EFEEE
:101310002D4801682E48FEF779FF80462D49FEF7DB
:10132000ADFF06462C49FEF777FF0546FEF7EDFFB9
:10133000C0F16404102006232246014600900820D4
:10134000FFF7F6FE022010232522194600904020C8
:10135000FFF79AFE21491C480068FEF78FFF0546FB
:10136000FEF7ECFF044610200623224624210090BD
:101370000820FFF7DDFE1AA224214020FFF722FFFC
:10138000FFF75CFE00201049086000200749088034
:1013900007E008E0FFE705480088401C00B2034969
:1013A0000880FFF73DF8BDE8FC8100000800002040
:1013B000E51300084D14000809140008691400081A
:1013C0002D140008851400080400002000000020EF
:1013D000801B954780A187470000C842000020413C
:1013E0007573000010B5FFF76BFC02A000F076FFEC
:1013F00010BD00004B455931205055534820444FF3
:10140000574E0D0A0000000010B5FFF7D7FA02A0F2
:1014100000F064FF10BD00004B4559322050555379
:101420004820444F574E0D0A0000000010B502A09E
:1014300000F054FF10BD00004B4559332050555368
:101440004820444F574E0D0A0000000010B502A07E
:1014500000F044FF10BD00004B4559312052454C6F
:10146000454153450D0A000010B502A000F036FFBB
:1014700010BD00004B4559322052454C4541534563
:101480000D0A000010B502A000F028FF10BD0000FA
:101490004B4559332052454C454153450D0A0000F8
:1014A0000146C88808B9012070470020FCE7000009
:1014B00029B1064AD2690243044BDA6104E0034AC7
:1014C000D2698243014BDA6170470000001002408C
:1014D00029B1064A92690243044B9A6104E0034A27
:1014E00092698243014B9A617047000000100240EC
:1014F0000F48006840F001000D4908600846406848
:101500000C4908400A494860084600680A490840F2
:10151000074908600846006820F4802008600846F3
:10152000406820F4FE0048604FF41F008860704758
:10153000001002400000FFF8FFFFF6FE30B500216A
:101540000022002400232D4D6D6805F00C0121B10F
:10155000042905D0082923D105E0294D056022E0A2
:10156000274D05601FE0254D6D6805F47012234D71
:101570006D6805F48034022505EB92421CB9214DBB
:10158000554305600BE01D4D6D6805F400351DB138
:101590001C4D5543056002E0194D5543056002E0BE
:1015A000174D056000BF00BF144D6D6805F0F001D8
:1015B0000909154D6B5C0568DD4045600F4D6D6890
:1015C00005F4E061090A104D6B5C4568DD408560FB
:1015D0000A4D6D6805F46051C90A0B4D6B5C456896
:1015E000DD40C560054D6D6805F44041890B074D30
:1015F0006B5CC568B5FBF3F5056130BD00100240BA
:1016000000127A0000093D00240000203400002070
:1016100010B501460022002300204A11012A02D100
:10162000094C236806E0022A02D1074C236A01E034
:10163000054C636A01F01F02012494401C400CB168
:10164000012000E0002010BD001002400248406868
:1016500000F00C007047000000100240014600201E
:10166000034A506820F0F0000843506070470000C3
:10167000001002401149096821F480310F4A1160BD
:101680001146096821F480211160B0F5803F03D034
:10169000B0F5802F0ED106E00849096841F4803189
:1016A000064A116007E00549096841F4A021034A90
:1016B000116000E000BF00BF704700000010024052
:1016C00001460020034A506820F4E060084350605F
:1016D000704700000010024001460020034A506895
:1016E00020F4605040EAC100506070470010024092
:1016F000014908667047000000004242024600208F
:10170000044B586820F47C1042EA01031843014B53
:10171000586070470010024001460020034A50689C
:1017200020F00300084350607047000000100240A2
:1017300038B5002000900024002500BF3120FFF7BD
:1017400067FF05460098401C00900098B0F5A06F18
:1017500001D0002DF2D03120FFF75AFF08B101244B
:1017600000E00024204638BD70B504460025012263
:1017700021460348FFF7FEF8C5B2284670BD0000B9
:10178000540400207047000070B504460D4616460C
:101790002548005D4006000E2349085524B1012C60
:1017A0000CD0022C1ED113E002212048FFF740FA92
:1017B0001D49095D08431C49085514E004211B48D4
:1017C000FFF736FA1849095D0843174908550AE03A
:1017D00001211748FFF72CFA1349095D0843124904
:1017E000085500E000BF00BF0F48005D1149095DCA
:1017F000884208D11048005D012804D1B04700207C
:101800000D4908550EE00848005D0A49095DC943C5
:10181000C9B2884206D10848005D18B9A84701201E
:101820000549085570BD00000F0000200010014060
:10183000000801400C0000201200002010B50446F2
:10184000E1B2054800F02BFD00BF4021024800F046
:1018500059FC0028F9D010BD0038014010B50446ED
:1018600003480480008881B2024800F04CFB10BDA0
:10187000220000200004004010B500F001F810BD67
:101880000CB50020019000903348006840F480308F
:101890003149086000BF3048006800F40030009013
:1018A0000198401C0190009818B90198B0F5A06FFC
:1018B000F1D12948006800F4003010B101200090F7
:1018C00001E0002000900098012843D123480068DF
:1018D00040F01000214908600846006820F003002D
:1018E00008600846006840F0020008601A48406836
:1018F000194948600846406848600846406840F416
:10190000806048600846406820F47C1048600846C3
:10191000406840F4E81048600846006840F0807075
:10192000086000BF0C48006800F000700028F9D083
:101930000948406820F003000749486008464068AD
:1019400040F00200486000BF0348406800F00C000F
:101950000828F9D10CBD0000001002400020024010
:1019600010B500F053FB10BD10B51348006840F0EF
:1019700001001149086008464068104908400E49B6
:101980004860084600680E4908400B490860084650
:10199000006820F4802008600846406820F4FE00BB
:1019A00048604FF41F008860FFF766FF4FF000604B
:1019B0000449086010BD0000001002400000FFF85C
:1019C000FFFFF6FE08ED00E0F0B50C4615460022DC
:1019D0000021068C4FF6FE773E400684028B018C78
:1019E0004FF60C7632407E1C06EA03162E43324335
:1019F000104EB0420ED0104EB0420BD0B0F1804F1E
:101A000008D00E4EB04205D00D4EB04202D00D4E61
:101A1000B04206D14FF6FD76314044F00106314325
:101A200005E04FF6F576314044F00106314302837C
:101A30000184F0BD002C014000340140000400404E
:101A400000080040000C0040F0B50C46154600228E
:101A500000210026078C4FF6EF7C07EA0C0707846D
:101A6000028B018C4FF6FF7707EA041640F6FF471A
:101A70003A404FF6FF7707EA03373A434FF6FF77CE
:101A800007EA05273A43114FB8420ED0104FB8422B
:101A90000BD0B0F1804F08D00E4FB84205D00E4F9A
:101AA000B84202D00D4FB84206D14FF6DF77394029
:101AB00046F01007394305E04FF65F77394044F0B0
:101AC0001007394302830184F0BD0000002C01405F
:101AD000003401400004004000080040000C0040B9
:101AE000F0B50C461546002200210026078C4FF663
:101AF000FF6C07EA0C070784828B018C4FF6FF7797
:101B000007EA04264FF60C773A404FF6FF7707EACC
:101B100003172F433A43114FB8420ED0104FB8422B
:101B20000BD0B0F1804F08D00E4FB84205D00E4F09
:101B3000B84202D00D4FB84206D14FF6FF57394098
:101B400046F48077394305E04FF2FF57394044F4BB
:101B50008077394382830184F0BD0000002C01406E
:101B6000003401400004004000080040000C004028
:101B7000F0B50C461546002200210026078C4EF6D3
:101B8000FF7C07EA0C070784828B018C4FF6FF77F6
:101B900007EA043640F6FF473A404FF6FF7707EA78
:101BA00005273A434FF6FF7707EA03373A43114FC9
:101BB000B8420ED0104FB8420BD0B0F1804F08D0D1
:101BC0000E4FB84205D00E4FB84202D00D4FB8426A
:101BD00006D14DF6FF77394046F48057394305E08A
:101BE00047F6FF57394044F48057394382830184D4
:101BF000F0BD0000002C0140003401400004004012
:101C000000080040000C004010B50121880700F0DA
:101C1000A1F8012803D10121800700F089F81048BC
:101C20000088401C0E4908800E480088401C0D4961
:101C300008800B480088022805DB0020084908803E
:101C400001200949087007480088B0F57A7F05DB54
:101C500000200449088001200449087010BD0000DC
:101C6000180000201A000020160000201700002095
:101C700010B52C48007800F0800000284CD10121DC
:101C8000294800F067F8D0B12648007800F04000FD
:101C9000A8B12448007800F03F003F280AD121482D
:101CA000007840F080001F4908704FF6FF701F4910
:101CB000088004E01B480078401C1A490870022183
:101CC000194800F047F838B31648007800F0400093
:101CD00078B11448007840F080001249087012482A
:101CE00000F035F81149088002210F4800F0A3F8F0
:101CF00012E000200B4908700C49088000210A48B6
:101D000000F003F90748007840F0400005490870EA
:101D10000021054800F08FF80321034800F008F87F
:101D200010BD00001E000020000C0040200000201C
:101D3000CA430282704721B1028842F00102028048
:101D400004E002884FF6FE731A4002807047014695
:101D5000888E704730B50246002000230024158A83
:101D600005EA0103958905EA010413B10CB10120CC
:101D700000E0002030BD000070B505460C46244848
:101D800085420ED0234885420BD0B5F1804F08D054
:101D90002148854205D02148854202D0204885420D
:101DA00000D100E000BF208850B92389A288618853
:101DB0002846FFF709FEE188284600F0A8F825E04C
:101DC000208804280AD12389A28861882846FFF741
:101DD0003BFEE188284600F0A3F817E02088082899
:101DE0000AD12389A28861882846FFF779FEE18815
:101DF000284600F0A2F809E02389A28861882846D5
:101E0000FFF7B6FEE188284600F0A0F870BD00009C
:101E1000002C014000340140000400400008004054
:101E2000000C00401AB183890B43838102E083894F
:101E30008B43838170470A460021018C4FF6FD7366
:101E4000194011430184704770B50024002200231B
:101E5000058C4FF6EF7635400584028C8388048B21
:101E600048F6FF752C404FF6FF452C400D884FF685
:101E7000FF7606EA05252C434FF6DF752A400D89CB
:101E800006EA05152A434D8806EA05152A43154D2D
:101E9000A84202D0144DA8421DD14FF67F752A40AA
:101EA0004D894FF6FF7606EA05152A434FF6BF75B2
:101EB0002A408D8806EA05152A434FF6FF352B4048
:101EC0004FF2FF752B408D8906EA85052B43CD899E
:101ED00006EA85052B4383800483CD880587028429
:101EE00070BD0000002C0140003401400A46002172
:101EF000018B4FF2FF7319404FF6FF7303EA022381
:101F00001943018370470187704781847047028BB2
:101F10004FF6F3731A400283028B0A430283704721
:101F2000028B4FF2FF331A400283028B4FF6FF738E
:101F300003EA01231A4302837047828B4FF6F3733F
:101F40001A408283828B0A4382837047828B4FF2CE
:101F5000FF331A408283828B4FF6FF7303EA01231B
:101F60001A43828370470000002202881D4B98426A
:101F70000ED01D4B98420BD0B0F1804F08D01B4BB8
:101F8000984205D01A4B984202D01A4B984204D17D
:101F90004FF68F731A404B881A43174B984207D05D
:101FA000164B984204D04FF6FF431A40CB881A4391
:101FB00002808B8883850B8803850A4B98420BD05F
:101FC000094B984208D00E4B984205D00D4B9842D1
:101FD00002D00D4B984201D10B7A038601238382F4
:101FE00070470000002C0140003401400004004014
:101FF00000080040000C00400010004000140040A9
:10200000004001400044014000480140044800688D
:1020100020B103480068401E014908607047000075
:102020003800002008B50020009040F225512048DB
:1020300000F075F858B12520FEF76AFF1C4800F043
:1020400029F9C0B200909DF8000000F03BF908218A
:10205000174800F057F8012806D10821144800F06D
:102060002DF8134800F016F940F22771104800F0DF
:1020700056F8E0B140F227710D4800F028F825200D
:10208000FEF746FF6846FFF76FFB9DF80010084813
:1020900000F005F90748FFF703FA40B100200649B0
:1020A0000870002240F22771014800F062F808BD74
:1020B00000380140540400201C00002001F400728C
:1020C000B2F5007F00D100BFCA430280704710B54F
:1020D0000022002340F66A14A14200D100BF0A1278
:1020E00001249440A3B2DC43048010BD21B1828955
:1020F00042F40052828104E082894DF6FF731A4057
:102100008281704702460020B1F5007F00D100BFF8
:1021100013880B400BB1012000E00020704770B520
:102120000246002400230025002040F66A16B14232
:1021300000D100BFC1F3421501F01F03012606FACA
:1021400003F3012D02D19689334006E0022D02D11E
:10215000168A334001E0968A33400C12012606FAB3
:1021600004F41688344013B10CB1012000E00020C3
:1021700070BDF0B50346002400260025002040F67F
:102180006A17B94200D100BF1846C1F3421401F0EA
:102190001F06012707FA06F5012C01D10C3004E0D7
:1021A000022C01D1103000E014301AB107682F431F
:1021B000076002E00768AF430760F0BD2DE9F04714
:1021C00086B005460E460024A24600BFA146002761
:1021D000B08900B100BF2F462C8A4CF6FF70044036
:1021E000F08804432C82AC894EF6F3100440B0888A
:1021F00031890843718908430443AC81AC8A4FF6A6
:10220000FF400440B0890443AC8201A8FFF796F96F
:102210001F48874202D1DDF810A001E0DDF80CA0D4
:10222000A88900F4004040B10AEBCA0000EB0A1094
:1022300031684900B0FBF1F807E00AEBCA0000EB97
:102240000A1031688900B0FBF1F86420B8FBF0F0A7
:1022500004012009642101FB1089A88900F40040D1
:1022600040B1322000EBC900B0FBF1F000F00700F4
:10227000044308E0322000EB09106421B0FBF1F0C8
:1022800000F00F0004432C8106B0BDE8F087000089
:102290000038014001468888C0F308007047C1F348
:1022A0000802828070474FF416510160002181803E
:1022B000C18001810C21418100218181704700BFD3
:1022C000FEE7000031B50024012269460248FEF70E
:1022D0009DFBC4B2204638BD60040020014A02497B
:1022E00000F013B82D2300085000002002E008C8B9
:1022F000121F08C1002AFAD170477047002001E080
:1023000001C1121F002AFBD170472DE9F04116468A
:102310000F460446002503E03946B047641C6D1C97
:1023200020780028F8D12846BDE8F08170B5044631
:102330000D46E0B2FFF782FA204670BDFEF755FD6C
:10234000FEF7E3FC05A0FFF7C9FF0020FFF786FAC0
:1023500003E0FEF7A3FFFEF79AFFFAE7496E697400
:102360002053797374656D20686173206265656EB2
:102370002066696E69736865642E0D0A00000000AE
:10238000000000000000000000000000000000004D
:102390003F4000000000000000003000400030001E
:1023A0004000000009000BC03D000BC03D000900CB
:1023B00018C024407FE0224031800000180024C073
:1023C0001B000D803240018003801C4027401C8090
:1023D0000740004010006000000000000000000006
:1023E0000000000000001F8020404020000040202E
:1023F00020401F8000000000090006001F8006002A
:1024000009000000040004003F80040004000000F4
:102410000010006000000000000000000400040044
:102420000400040004000000000000400000000060
:1024300000000000002001C006003800400000003D
:102440001F802040204020401F80000000001040DE
:102450003FC000400000000018C02140224024403E
:102460001840000010802040244024401B800000C1
:1024700002000D0011003FC0014000003C802440DC
:1024800024402440238000001F8024402440344006
:10249000038000003000200027C03800200000002A
:1024A0001B802440244024401B8000001C0022C0CC
:1024B000224022401F800000000000000840000071
:1024C00000000000000000000460000000000000A8
:1024D000000004000A0011002080404009000900AB
:1024E00009000900090000000000404020801100A0
:1024F0000A000400180020002340240018000000F7
:102500001F802040274029401F400000004007C096
:1025100039000F0001C0004020403FC0244024404B
:102520001B8000001F8020402040204030800000A1
:1025300020403FC0204020401F80000020403FC07E
:1025400024402E4030C0000020403FC024402E00D8
:10255000300000000F001080204022403380020035
:1025600020403FC0040004003FC0204020402040E5
:102570003FC02040204000000060202020203FC0BD
:102580002000200020403FC024400B0030C02040ED
:1025900020403FC020400040004000C03FC03C0001
:1025A00003C03C003FC0000020403FC00C4023005F
:1025B0003FC020001F802040204020401F8000009E
:1025C00020403FC024402400180000001F8021400C
:1025D000214020E01FA0000020403FC024402600F2
:1025E00019C0004018C0244024402240318000001F
:1025F000300020403FC020403000000020003F80DD
:10260000004000403F80200020003E0001C0070045
:1026100038002000380007C03C0007C03800000028
:10262000204039C0060039C020400000200038405A
:1026300007C0384020000000304021C0264038400C
:1026400020C00000000000007FE04020402000008B
:10265000000070000C0003800040000000004020DB
:1026600040207FE00000000000002000400020002B
:1026700000000000001000100010001000100010FA
:102680000000000040000000000000000000028088
:102690000540054003C0004020003FC00440044006
:1026A0000380000000000380044004400640000056
:1026B00000000380044024403FC00040000003802D
:1026C0000540054003400000000004401FC02440B6
:1026D00024402000000002E0055005500650042070
:1026E00020403FC00440040003C0004000000440FC
:1026F00027C000400000000000100010041027E078
:102700000000000020403FC00140070004C004401A
:10271000204020403FC000400040000007C00400AF
:1027200007C0040003C00000044007C004400400C8
:1027300003C0004000000380044004400380000008
:10274000041007F0045004400380000000000380E0
:102750000440045007F00010044007C00240040089
:1027600004000000000006400540054004C00000D1
:10277000000004001F8004400040000004000780A7
:102780000040044007C000400400070004C001806E
:1027900006000400060001C0070001C0060000009A
:1027A000044006C0010006C00440000004100710E9
:1027B00004E00180060004000000044005C006405B
:1027C000044000000000000004007BE04020000006
:1027D000000000000000FFF00000000000004020AA
:1027E0007BE004000000000040008000400020006A
:1027F0002000400000000000000000000000000079
:10280000000000000000000000001FCC000C0000D1
:1028100000000000000008003000600008003000E8
:1028200060000000022003FC1E20022003FC1E208A
:102830000220000000000E1811043FFF10840C78E5
:10284000000000000F0010840F3800C007781884C3
:102850000078000000780F8410C411240E9800E462
:1028600000840008080068007000000000000000FC
:102870000000000000000000000007E0181820041D
:1028800040020000000040022004181807E0000089
:10289000000000000240024001800FF00180024071
:1028A000024000000080008000800FF8008000805F
:1028B000008000000001000D000E0000000000007C
:1028C0000000000000000080008000800080008088
:1028D000008000800000000C000C000000000000E0
:1028E00000000000000000060018006001800600E3
:1028F00018002000000007F0080810041004080861
:1029000007F000000000080408041FFC0004000495
:102910000000000000000E0C10141024104411845C
:102920000E0C000000000C18100411041104128891
:102930000C700000000000E00320042408241FFCA9
:102940000024000000001F98108411041104108856
:1029500010700000000007F00888110411041888A6
:102960000070000000001C00100010FC13001C0090
:102970001000000000000E3811441084108411442F
:102980000E38000000000700088C1044104408882E
:1029900007F00000000000000000030C030C000022
:1029A000000000000000000000010106000000001F
:1029B0000000000000000080014002200410080810
:1029C0001004000002200220022002200220022027
:1029D000022000000000100408080410022001403A
:1029E0000080000000000E001200100C106C10801F
:1029F0000F00000003E00C1813E4142417C4082887
:102A000007D000000004003C03C41C40074000E461
:102A1000001C000410041FFC1104110411040E8892
:102A20000070000003E00C181004100410041008DB
:102A30001C10000010041FFC1004100410040808EF
:102A400007F0000010041FFC1104110417C4100447
:102A50000818000010041FFC1104110017C010001A
:102A60000800000003E00C181004100410441C7847
:102A70000040000010041FFC1084008000801084BF
:102A80001FFC10040000100410041FFC10041004AC
:102A90000000000000030001100110011FFE1000E3
:102AA0001000000010041FFC110403801464181CA3
:102AB0001004000010041FFC1004000400040004B3
:102AC000000C000010041FFC1F0000FC1F001FFC76
:102AD0001004000010041FFC0C04030000E0101898
:102AE0001FFC100007F00808100410041004080868
:102AF00007F0000010041FFC10841080108010806C
:102B00000F00000007F0081810241024101C080AF9
:102B100007F2000010041FFC1104110011C0113055
:102B20000E0C000400000E1C1104108410841044CC
:102B30001C3800001800100010041FFC10041000C6
:102B40001800000010001FF8100400040004100416
:102B50001FF8100010001E0011E0001C0070138010
:102B60001C0010001FC0103C00E01F0000E0103CE3
:102B70001FC000001004180C163401C001C0163428
:102B8000180C100410001C00130400FC13041C009B
:102B9000100000000804101C1064108413041C04AE
:102BA000101800000000000000007FFE40024002FC
:102BB00040020000000030000C0003800060001C98
:102BC0000003000000004002400240027FFE0000BF
:102BD0000000000000000000200040004000400015
:102BE00020000000000100010001000100010001BF
:102BF0000001000100004000400020000000000033
:102C00000000000000000098012401440144014438
:102C100000FC000410001FFC00880104010400886F
:102C2000007000000000007000880104010401042D
:102C300000880000000000700088010401041108F1
:102C40001FFC0004000000F8014401440144014459
:102C500000C800000000010401040FFC110411046D
:102C600011001800000000D601290129012901C91D
:102C70000106000010041FFC008401000100010493
:102C800000FC000400000104190419FC0004000405
:102C9000000000000000000300010101190119FEFD
:102CA0000000000010041FFC0024004001B4010CCF
:102CB000010400000000100410041FFC00040004C4
:102CC00000000000010401FC0104010001FC0104FA
:102CD000010000FC010401FC00840100010001046A
:102CE00000FC0004000000F80104010401040104D8
:102CF00000F80000010101FF0085010401040088C3
:102D0000007000000000007000880104010401054B
:102D100001FF00010104010401FC00840104010021
:102D200001800000000000CC0124012401240124C2
:102D30000198000000000100010007F801040104EF
:102D400000000000010001F8000400040004010874
:102D500001FC0004010001800170000C0010016002
:102D60000180010001F0010C003001C00030010CB5
:102D700001F0010000000104018C00740170018C5D
:102D800001040000010101810171000E00180160C1
:102D90000180010000000184010C01340144018420
:102DA000010C0000000000000000000001003EFCDB
:102DB000400240020000000000000000FFFF000091
:102DC000000000000000400240023EFC0100000044
:102DD0000000000000006000800080004000400013
:102DE00020002000042E00080000002054000000F5
:102DF000EC220008582E000854000020E4080000CF
:102E0000FC2200080000000000000000000000009C
:102E100000000000000000000000000000000000B2
:102E20000000000000000000000000000102030498
:102E30000102030406070809020406080000000056
:102E400000A24A0400000000000000000102030488
:082E500006070809000000005C
:0400000508000131BD
:00000001FF
