:020000040800F2
:1000000050430020150200081D0B0008650400087D
:100010008D0A0008C50200081B120008000000003D
:10002000000000000000000000000000390E000881
:1000300045030008000000001F0B0008D110000855
:100040002F0200082F0200082F0200082F020008CC
:100050002F0200082F0200082F0200082F020008BC
:100060002F0200082F0200082F0200082F020008AC
:100070002F0200082F0200082F0200082F0200089C
:100080002F0200082F0200082F0200082F0200088C
:100090002F0200082F0200082F0200082F0200087C
:1000A0002F0200082F0200082F0200082F0200086C
:1000B0002F0200082F0200082F0200082F0200085C
:1000C0002F0200082F0200082F0200082F0200084C
:1000D0002F020008351100082F0200082F02000827
:1000E0002F0200082F0200082F0200082F0200082C
:1000F0002F0200082F0200082F0200082F0200081C
:100100002F0200082F0200082F0200082F0200080B
:100110002F0200082F0200082F0200082F020008FB
:100120002F0200082F0200082F0200082F020008EB
:1001300000F002F800F05EF80AA090E8000C82449B
:100140008344AAF10107DA4501D100F053F8AFF278
:10015000090EBAE80F0013F0010F18BFFB1A43F0A5
:1001600001031847F83C0000183D000010F8013B5F
:100170000A4413F0030408BF10F8014B1D1108BF17
:1001800010F8015B641E05D010F8016B641E01F8C5
:10019000016BF9D1002D15D010F8014B03F00C03C1
:1001A0000C2BA1EB04040ABF10F8013BA4EB831451
:1001B000A4EB032405F1010314F8016B5B1E01F8A5
:1001C000016BF9D5914238BF10F8013BD1D370478C
:1001D0000023002400250026103A28BF78C1FBD850
:1001E000520728BF30C148BF0B6070471FB51FBD05
:1001F00010B510BD00F033F81146FFF7F7FF01F01E
:100200007FF800F051F803B4FFF7F2FF03BC01F0F0
:1002100006F800000948804709480047FEE7FEE766
:10022000FEE7FEE7FEE7FEE7FEE7FEE7FEE7FEE7A6
:1002300004480549054A064B70470000D5100008E0
:1002400031010008503D002050430020503F002065
:10025000503F0020704770477047704770477546A1
:1002600000F02CF8AE4605006946534620F0070022
:10027000854618B020B5FFF7DBFFBDE820404FF002
:1002800000064FF000074FF000084FF0000B21F080
:100290000701AC46ACE8C009ACE8C009ACE8C0094D
:1002A000ACE8C0098D46704710B50446AFF3008036
:1002B0002046BDE81040FFF7A6BF00000048704789
:1002C000EC3C002000BFFEE770B50446184920460C
:1002D00001F024FB02D240F2CF1070BD1549204638
:1002E00001F01CFB02D247F67C50F6E7204601F0F5
:1002F0007DF905460022104B01F0B2F802D24FF40E
:10030000FC60EAE7204601F071F9054600220B4B3C
:1003100001F0A6F802D24FF6E070DEE70849204669
:1003200001F0FCFA02D24FF47840D6E700BFD4E7E0
:100330000000C8410000F04100C0404000C0414002
:100340000000204270472DE9F041024600250026BA
:10035000002000230024002791F803C00CF00F05B3
:1003600091F803C00CF0100CBCF1000F03D091F811
:1003700002C04CEA050591F800C0BCF1000F31D075
:10038000146800202BE04FF0010C0CFA00F3B1F8D8
:1003900000C00CEA03069E4220D183004FF00F0CF0
:1003A0000CFA03F7BC4305FA03FC4CEA040491F889
:1003B00003C0BCF1280F06D14FF0010C0CFA00FC71
:1003C000C2F814C00AE091F803C0BCF1480F05D18F
:1003D0004FF0010C0CFA00FCC2F810C0401C0828B9
:1003E000D1D31460B1F800C0BCF1FF0F34DD546804
:1003F00000202EE000F1080C4FF0010808FA0CF381
:10040000B1F800C00CEA03069E4221D183004FF0F0
:100410000F0C0CFA03F7BC4305FA03FC4CEA040486
:1004200091F803C0BCF1280F05D100F1080C08FABF
:100430000CF8C2F8148091F803C0BCF1480F07D142
:1004400000F1080C4FF0010808FA0CF8C2F810800F
:10045000401C0828CED35460BDE8F081416170474C
:100460000161704700BFFEE72DE9F04104460D46EB
:1004700016461F46152000F0AFFAE0B200F0ACFAC5
:10048000F0B200F0A9FA752000F0A6FAE8B200F088
:10049000A3FAF8B200F0A0FABDE8F0812DE9FF4F11
:1004A00085B081468A460020039083460798A0EBDA
:1004B00009040898A0EB0A06CDF80890CDF804A02E
:1004C000002C01DD012705E00CB9002702E04FF008
:1004D000FF376442002E02DD4FF0010806E016B936
:1004E0004FF0000802E04FF0FF386642B44201DDF1
:1004F000254600E03546002004901EE0019A91B2A6
:10050000029A90B2129A00F01FF8039820440390C8
:10051000B3440398A84205DD0398401B039002985A
:1005200038440290AB4504DDABEB050B0198404429
:1005300001900498401C80B20490691C0498884281
:10054000DCDB09B0BDE8F08F70B504460D461646F9
:100550002B46224629462046FFF786FF304600F00C
:1005600031FA70BD2DE9F84305460E461746984608
:10057000089C33463A46314628460094FFF78EFFE2
:1005800043462A46314628460094FFF787FF4346F4
:100590003A46414628460094FFF780FF43463A46D4
:1005A000314638460094FFF779FFBDE8F8832DE91E
:1005B000F04706460F4614461D46DDF820A0681E8B
:1005C00083B2601E82B239463046FFF74DFFB8460F
:1005D0000EE0B14606E0504600F0F4F909F10100E2
:1005E0001FFA80F9A145F6DB08F101001FFA80F837
:1005F000A845EEDBBDE8F08708B50121182000F022
:100600000BFC4FF47040ADF8000010208DF8030093
:1006100003208DF8020069460948FFF794FE4FF465
:1006200070410748FFF71CFF0820ADF8000069463D
:100630000448FFF788FE08210248FFF711FF08BDB4
:10064000000C01400010014010B5FFF7D5FF4FF43A
:1006500080413F48FFF702FF642000F005FE4FF4A1
:1006600080413B48FFF7FCFE642000F0FDFDAE201A
:1006700000F0B2F9A02000F0AFF9722000F0ACF960
:10068000A12000F0A9F9002000F0A6F9A22000F0B6
:10069000A3F9002000F0A0F9A42000F09DF9A82003
:1006A00000F09AF93F2000F097F9AD2000F094F99E
:1006B0008E2000F091F9B02000F08EF90B2000F0B0
:1006C0008BF9B12000F088F9312000F085F9B320D2
:1006D00000F082F9F02000F07FF98A2000F07CF928
:1006E000642000F079F98B2000F076F9782000F092
:1006F00073F98C2000F070F9642000F06DF9BB20D4
:1007000000F06AF93A2000F067F9BE2000F064F9C1
:100710003E2000F061F9872000F05EF9062000F02D
:100720005BF9812000F058F9912000F055F9822002
:1007300000F052F9502000F04FF9832000F04CF9FE
:100740007D2000F049F9AF2000F046F910BD00000F
:10075000000C01402DE9FF4F83B005468A4617463D
:10076000119CAB46204604EBD071C1F347063046DE
:10077000F11706EB5171C910614389B20191A7F1DC
:100780002000C7B20AEB0400401E83B2A819401E25
:1007900082B251462846FFF767FE4FF000094AE053
:1007A000102C06D1264800EB071010F80900029023
:1007B0000BE0202C06D1234800EB871010F809002D
:1007C000029002E007B0BDE8F08F4FF000082AE089
:1007D000129868B9012000FA08F00299084018B18F
:1007E000069800F0EFF81AE0109800F0EBF816E029
:1007F000012000FA08F00299084020B1514628462D
:10080000069AFFF7A1FE681C85B2A5EB0B00B0426B
:1008100005D15D460AF101001FFA80FA06E008F1F1
:10082000010000F0FF08B8F1080FD1DB00BF09F1AB
:1008300001001FFA80F901988145B1DB00BFC1E7D3
:10084000061C0008F62100082DE9FF4F85B0074679
:1008500090461C46DDE91396304606EBD071C1F395
:10086000470B2149404601F08DF8039001F036F81E
:1008700080B20490002531E0601B401EC1B20A2006
:1008800000F0D6FD0499B1FBF0F00A21B0FBF1F2C3
:1008900001FB120AA01EA84210D10020A11E01FBDC
:1008A0000B71CDE90096029088B22E22129B069918
:1008B000FFF750FF681CC5B2601CC4B200200AF1EB
:1008C0003001CAB205FB0B71CDE90096029088B2E7
:1008D000129B0699FFF73EFF681CC5B2A542CBDB11
:1008E00009B0BDE8F08F00000000C8422DE9FF4FBD
:1008F00085B0074691461D46DDE913A60020049009
:10090000304606EBD071C1F3470B002434E0281BBE
:10091000401EC1B20A2000F08BFDB9FBF0F00A21A5
:10092000B0FBF1F201FB12080498A0B9681EA042C6
:1009300011DDB8F1000F0CD1002004FB0B71CDE9E3
:1009400000A6029088B22022129B0699FFF702FFB0
:1009500010E001200490002008F13001CAB204FB2D
:100960000B71CDE900A6029088B2129B0699FFF7A1
:10097000F1FE00BF601CC4B2AC42C8DB09B0BDE8E8
:10098000F08F2DE9FE4F06460F4614469846DDE9E6
:100990000D5ADDF8309010E0CDE9015ACDF8009005
:1009A0002278434639463046FFF7D4FE284605EB09
:1009B000D07106EB61018EB2641C20780028EBD167
:1009C000BDE8FE8F10B50446201200F015F8E0B225
:1009D00000F012F810BD000010B5044608210548CB
:1009E000FFF73CFD204600F007F808210148FFF71B
:1009F00037FD10BD0010014070B504464FF4805122
:100A00001448FFF72BFD00251BE04FF4004111486F
:100A1000FFF724FD04F0800028B14FF400510D4889
:100A2000FFF71EFD04E04FF400510A48FFF716FDE2
:100A30004FF400410748FFF713FD6006040E681CE1
:100A4000C5B2082DE1DB4FF480510248FFF708FDE5
:100A500070BD0000000C014008B50121102000F01D
:100A6000DBF90120ADF8000010208DF80300032011
:100A70008DF8020069460448FFF765FC0121024831
:100A8000FFF7EEFC08BD00000010014000BFFEE7CC
:100A900070B504460A25102C1CDA1E480068323056
:100AA0001C49086012E001211B48FFF7D9FC1948D6
:100AB000006800F0FFFB01211748FFF7CFFC154944
:100AC000096844F62062501A00F0F4FB281EA5F1D4
:100AD0000105E8D1112C1CDD0E48006832380D49A3
:100AE000086012E001210C48FFF7BAFC09480068D1
:100AF00000F0E0FB01210848FFF7B0FC0549096858
:100B000044F62062501A00F0D5FB281EA5F101051D
:100B1000E8D170BD142800200010014070477047D4
:100B20002DE9F0470646002412E000250DE0B54807
:100B300000EB062005EBC40150F82100B24A02EB9D
:100B4000C4116A0041F822006D1C082DEFDB641C03
:100B5000082CEADB00241DE0012518E0AA4A02EB7C
:100B600084136A1C53F82210A74A02EB84136A1EEE
:100B700053F8220000F066FD07464FF0804100F078
:100B8000CFFDA14901EB841141F82500AD1C0F2DCB
:100B9000E4DBA41C102CDFDB01241CE0002517E0A3
:100BA000994B621C03EB821252F82510621E03EB74
:100BB000821252F8250000F045FD07464FF08041B3
:100BC00000F0AEFD904901EB841141F82500AD1C09
:100BD000102DE5DBA41C0F2CE0DB012431E0012506
:100BE0002CE0894A02EB84136A1C53F82210864ACF
:100BF00002EB84136A1E53F8220000F023FD8146A5
:100C0000601E814A02EB801050F82510484600F023
:100C100019FD80467C4A601C02EB801050F82510BC
:100C2000404600F00FFD07464FF0814100F078FD8F
:100C3000754901EB841141F82500AD1C0F2DD0DB67
:100C4000A41C0F2CCBDB002408E06F4800EB8410C1
:100C5000806B6D4901EB8411C863641C0F2CF4DBBD
:100C6000002506E0694850F82510403040F825106E
:100C70006D1C0F2DF6DB644AD2F8BC13D2F8F803D2
:100C800000F0E0FC07464FF0804100F049FD5E496E
:100C9000C1F8FC03002410E000250BE05A4800EBEB
:100CA000841050F825005A4A02EB04216A0041F8EA
:100CB00022006D1C102DF1DB641C102CECDB0024D9
:100CC0001DE0012518E0524A02EBC4136A1C53F8D8
:100CD00022104F4A02EBC4136A1E53F8220000F0A0
:100CE000B1FC07464FF0804100F01AFD484901EB86
:100CF000C41141F82500AD1C1F2DE4DBA41C202CE1
:100D0000DFDB01241CE0002517E0414B621C03EBF4
:100D1000C21252F82510621E03EBC21252F82500CF
:100D200000F090FC07464FF0804100F0F9FC384994
:100D300001EBC41141F82500AD1C202DE5DBA41CFE
:100D40001F2CE0DB012431E001252CE0304A02EBCE
:100D5000C4136A1C53F822102D4A02EBC4136A1EF6
:100D600053F8220000F06EFC8146601E284A02EB18
:100D7000C01050F82510484600F064FC8046244A14
:100D8000601C02EBC01050F82510404600F05AFCE1
:100D900007464FF0814100F0C3FC1D4901EBC4112F
:100DA00041F82500AD1C1F2DD0DBA41C1F2CCBDB74
:100DB000002408E0164800EBC410806F144901EBD2
:100DC000C411C867641C1F2CF4DB002506E0114821
:100DD00050F82510803040F825106D1C1F2DF6DBD3
:100DE0000B4AD2F87C1FD2F8F80F00F02BFC074614
:100DF0004FF0804100F094FC0549C1F8FC0FBDE8BC
:100E0000F08700001414002024280020A42B0020C8
:100E1000242C0020243B002029B1064A9269024379
:100E2000044B9A6104E0034A92698243014B9A6140
:100E30007047000000100240704710B500F002F843
:100E400010BD00000CB500200190009033480068F0
:100E500040F480303149086000BF3048006800F439
:100E6000003000900198401C0190009818B901983A
:100E7000B0F5A06FF1D12948006800F4003010B13E
:100E80000120009001E0002000900098012843D14B
:100E90002348006840F010002149086008460068B7
:100EA00020F0030008600846006840F00200086077
:100EB0001A48406819494860084640684860084632
:100EC000406840F4806048600846406820F47C1028
:100ED00048600846406840F4E810486008460068EA
:100EE00040F08070086000BF0C48006800F000709F
:100EF0000028F9D00948406820F0030007494860FD
:100F00000846406840F00200486000BF034840685F
:100F100000F00C000828F9D10CBD000000100240C0
:100F2000002002402DE9F84F80464FF0000940466E
:100F3000FFF7F6FD002430E000252BE01D4800EB14
:100F4000C41050F82510484600F0E8FC06D21948B5
:100F500000EBC41050F8259027462E46154901EBAA
:100F6000C41151F82500FFF7AFF91FFA80FA04F118
:100F7000010C4FF6FF7B0BEA4C0305F1010C0BEA69
:100F80004C020BEA44010BEA4500CDF800A0FFF744
:100F90000EFB6D1C202DD1DB641C202CCCDB3146DC
:100FA000384600F009F8484600F022F83046BDE81F
:100FB000F88F0000242C0020F8B504460D460020D0
:100FC000661C4FF6FF7707EA46036E1C022707EB05
:100FD0004606B2B2661E4FF6FF7707EA46016E1E5E
:100FE0000227C7EB46060090B0B2FFF7BBFAF8BD88
:100FF0002DE9FE430446204600F0F8FA06464FF07D
:101000006632284B00F0BCFA02D24FF4784000E080
:1010100000200546204600F0E9FA06464FF0663209
:10102000204B00F0ADFA01D2002001E04FF6FF7036
:1010300080461020022322460146CDE90085029019
:101040004120FFF701FC204600F0D0FA07464FF0A0
:101050006632144B00F094FA02D24FF4784000E06C
:1010600000200646204600F0C1FA07464FF06632DF
:101070000C4B00F085FA01D2002001E04FF6FF7022
:101080008146204600F00EFC85B2102002232A463D
:101090000021CDE9009602904120FFF727FCBDE832
:1010A000FE83000066A64240042808D14FF0E021EC
:1010B000096941F004014FF0E022116107E04FF0AF
:1010C000E021096921F004014FF0E022116170472D
:1010D0007047000010B51348006840F00100114946
:1010E000086008464068104908400E4948600846B4
:1010F00000680E4908400B4908600846006820F463
:10110000802008600846406820F4FE0048604FF4E4
:101110001F008860FFF791FE4FF0006004490860EF
:1011200010BD0000001002400000FFF8FFFFF6FEB7
:1011300008ED00E010B540F225511D4800F03EF8E2
:1011400010B31B4800F064F8C4B21A48008800F4D9
:101150000040C8B91748008800F4804060B10A2CEC
:1011600003D000201349088020E01248008840F492
:1011700000401049088019E00D2C06D10D48008868
:1011800040F480400B49088010E00A480088C0F312
:101190000D0009490C5407480088401C0549088087
:1011A00008460088C72801DD0020088010BD000027
:1011B0000038014020280020243C002070B5024661
:1011C000002400230025002040F66A16B14200D119
:1011D00000BFC1F3421501F01F03012606FA03F315
:1011E000012D02D19689334006E0022D02D1168AE4
:1011F000334001E0968A33400C12012606FA04F4CB
:101200001688344013B10CB1012000E0002070BDFD
:1012100001468888C0F30800704700BFFEE700BFA2
:101220007047000010B56FF00400FFF73DFF0A485B
:1012300000680A49B0FBF1F00949087008460078D7
:1012400000EB4001C1EBC0104FF6FF7101EAC00096
:101250000449088010BD00000000002000127A0040
:10126000182800201A2800200146114A12884A43F3
:101270004FF0E0235A6100229A611A46126942F047
:1012800001021A6100BF4FF0E022106900F0010274
:101290001AB100F48032002AF5D04FF0E022126932
:1012A00022F001024FF0E0231A6100229A61704798
:1012B0001A2800200146114A12784A434FF0E023D1
:1012C0005A6100229A611A46126942F001021A61BB
:1012D00000BF4FF0E022106900F001021AB100F4E3
:1012E0008032002AF5D04FF0E022126922F001028C
:1012F0004FF0E0231A6100229A61704718280020FD
:10130000FEB50A240025FFF78DFFFFF7A5FBFFF7C9
:101310009BF912E001213F48FFF7A2F83E48006820
:10132000FFF7C8FF01213B48FFF798F83A490968E1
:1013300044F62062501AFFF7BDFF201EA4F10104FD
:10134000E8D14023602201460090FFF730F90020E9
:101350001021CDE900014FF6FF7330A20C2102905D
:101360001220FFF70EFB00201021CDE900014FF6FF
:10137000FF732DA2242102901220FFF702FB052407
:1013800003E04FF47A70FFF76FFF201EA4F1010411
:10139000F7D14023602201460090FFF708F90CE0E6
:1013A00028466D1CFFF7BEFD0646FFF771FB642063
:1013B000FFF75AFF142D00D100E0F1E700BF002035
:1013C0004023602201460090FFF7F1F80020102131
:1013D000CDE900014FF6FF7310A20C2102901220FC
:1013E000FFF7CFFA00201021CDE900014FF6FF737F
:1013F0000DA2242102901220FFF7C3FA0A2403E071
:101400004FF47A70FFF730FF201EA4F10104F7D1EA
:10141000FEBD000000100140142800204E6F20483F
:10142000756D616E0000000044656365746564005D
:1014300010B50246012000E050430B1EA1F101044B
:10144000E1B2F9D110BD491058BFC1F140415B1064
:1014500058BFC3F140438B42EFF300807047000058
:1014600051EA030C17D41CF5801F58BFBCF5801F30
:1014700000F10680994218BF704708BF904270473C
:1014800007D711F5801F58BF13F5801F19D4994253
:101490007047894270471CF5801F08D5BCF5801F36
:1014A000F7D58B4218BF704708BF824270474FF490
:1014B000001C1CEB410F38BF1CEB430F01D28B42C9
:1014C000704770B500F008F8922449004FF00051C1
:1014D0004FF08053FFF7B7BF0EF1020E2EF0030E50
:1014E0005EF8046B364205D4012A43EB030515F57B
:1014F000001F12D8012841EB010C1CF5001F0CD86D
:101500000ED14FEAD17C15F5001F0CEB4C0C0CF101
:10151000020C08BF4CEBD37C04E04FF0080C01E058
:101520004FEAD37C0CEB4C0526FA05F606F00706CD
:10153000B6F1040C06D20EEB860CBDE870404CF000
:10154000010C6047DFE80CF0090B02024FF000418C
:101550004FF00000A1F5002170BD1946104601288A
:1015600051EB010418BFD4F5001484BF002001F032
:10157000004170BD0808A0F500114FEA3101704725
:1015800053EA010C17D41CF5801F58BFBCF5801F0F
:1015900000F106808B4218BF704708BF8242704737
:1015A00007D713F5801F58BF11F5801F19D48B4240
:1015B00070479B4270471CF5801F08D5BCF5801F03
:1015C000F7D5994218BF704708BF904270474FF453
:1015D000001C1CEB430F38BF1CEB410F01D299429A
:1015E00070470FB40CBC03BCFFF76BBF43004FEA5E
:1015F000D30C4FEA3C0C43401FBF40070CF1605135
:1016000013F0FE4F70471CF0006F03D100200CF068
:10161000004170470CF0004343EA507010B540EAB7
:10162000CC0000F030FA00BF000000924FEA000149
:10163000FFF7A0BF4FF000414FF00000A1F50021DF
:101640007047000090EA010F48BF81F0004100F1AF
:101650006C82421A3CBF801A89184FEAD0524FF070
:101660007F4C1CEA410FA2EBD15318BF9CEA026FDA
:1016700000F03B804FF0004C4CEA00204CEA012186
:1016800021FA03FC10EB0C0C1ED202F1FF325FEAD0
:101690001C2040EBC25038BF70471CF07F0F4FEA50
:1016A000400C18BFBCF17F4F38BF7047C3F1200317
:1016B000994008BF20F00100BCF17F4F38BF704750
:1016C000A0F1C04000F025BA4FEA3C00000A40EB10
:1016D000C25028BF1CF0FF0F4FEA400CE6D018BFE5
:1016E000BCF17F4F38BF7047EAE79CEA026F05D034
:1016F00010EA5C0F08BF00F00040704710B500F022
:10170000C2F900BF64FBBE3E401058BFC0F140406C
:10171000491058BFC1F140418142EFF3008070474A
:101720004FF47F0C1CEAD0121EBF1CEAD11392EAC0
:101730000C0F93EA0C0F00F0858090EA010F48BF70
:1017400042F4807240F4000C41F400002CF07F4120
:1017500020F07F4000B58142A2EB03020FF2081C8B
:10176000ACEB504EC0F100009EF800E04FEA4E0E88
:1017700000FB0EFC38BF49004FEA2C1C02F5FA02B0
:101780000CFB0EF34FEACE1E4FEA112C4FEAC1219B
:101790000EEB635E42EB22420EFB0CFC4FEA1C5345
:1017A00000FB03114FEA112C4FEA01310EFB0CFC38
:1017B0004FEADC4C00FB0C11C14228BF09184CEB6E
:1017C00003335DF804EB10EB410143EBC250B2F57B
:1017D0007C0F38BF704729D512F0F00F1CBF00F105
:1017E000C04000F000407047008182838485868776
:1017F00088898B8C8D8E8F919293959697999A9CD0
:101800009D9FA0A2A3A5A7A8AAACAEB0B2B3B5B73E
:10181000B9BCBEC0C2C5C7C9CCCED1D4D7D9DCDF14
:10182000E2E6E9ECF0F3F7FAFE0000004FEA400CC4
:101830000CF1807CBCF17E4F28BF7047B0F1C040F6
:1018400000F067B990EA010F0CEAD11348BF42F4E7
:101850008072624538BF634507D213F47F0F16D0FC
:1018600080EA010000F00040704710B500F00BF96D
:10187000097EFC3E00F005B880EA010000F000405F
:10188000704780EA010000F0004000F042B912F415
:101890007F0F04BF0248704780EA010000F039B9A9
:1018A0000000C07F41000B0ED3F19E0208D950F416
:1018B00000034FEA032323FA02F048BF4042704777
:1018C00010B500F0E0F800BF499224800020704776
:1018D0006FF0004282EA200070470000C10DD1F194
:1018E0009E0206DB4FEA002343F0004323FA02F096
:1018F0007047004207D54FEA4001B1F1FE4F02D2D6
:101900004FF00000704710B500F0BDF849922480F8
:10191000002070476FEA20007047000050EA010C79
:1019200000F113801CF5000F58BFBCF5000F01D467
:101930008842704707D710F5000F58BF11F5000F08
:1019400015D488427047894270471CF5000F04D5B2
:10195000BCF5000FF7D5814270474FF0807C1CEB3F
:10196000400F38BF1CEB410F01D28142704710B5C8
:1019700000F089F8922449004FF000504FF0805158
:10198000FFF7C2BE4FF47F0C1CEAD0121EBF1CEA48
:10199000D11392EA0C0F93EA0C0F00F0478090EA03
:1019A000010F48BF42F480724FF0004C4CEA002017
:1019B0004CEA012102EB0302A0FB0113A2F5000295
:1019C000002918BF43F001035B0028BF4FEA33032F
:1019D00042EB22425FEA132C4CEBC2502EBFBCEB11
:1019E000436FB2F57C0F70474FEA036CBCF1004FB8
:1019F00008BF20F00100B2F57C0F38BF70470BD54F
:101A000082F0FF0212F5803FC8BF704700F1C0406E
:101A1000D8BF00F00040704700F5000C5FEA4C0CA6
:101A200048BF7047B0F1C04000F073B890EA010FB2
:101A30000CEAD11348BF42F48072624538BF634557
:101A400004D280EA010000F00040704710B500F0B9
:101A50001AF800BF8900013E00F007B800F009B88D
:101A60005FEA410C5FEA1C6C08D080EA010000F0DC
:101A700050B85FEA400C5FEA1C6CF6D14FF00040B2
:101A8000A0F5800070470EF1020E2EF0030E5EF8F6
:101A9000044B244204D44FEA4102B2F17F4F11D8E3
:101AA0004FEA4003B3F17F4F0CD80ED14FEAD07C00
:101AB000B2F17F4F0CEB4C0C0CF1020C08BF4CEB5D
:101AC000D17C04E04FF0080C01E04FEAD17C0CEB34
:101AD0004C0324FA03F404F00704B4F1040C06D216
:101AE0000EEB840CBDE810404CF0010C6047DFE8C1
:101AF0000CF0070802024FF00040A0F5800010BD76
:101B00000846420018BFD2F1807288BF00F0004042
:101B100010BDFF2141EAD050C005704790EA010F87
:101B200048BF81F000413FF594AD421A04D882F0DD
:101B30000042A0EB020011444FEAD0524FF07F4C1C
:101B40001CEA410FA2EBD15318BF9CEA026F4AD0A6
:101B50004FF0004C4CEA00204CEA012121FA03FC32
:101B6000B0EB0C0C0FD412F0FE0F36D05FEA4C0035
:101B70001DD5001240EBC25038BF70471CF03F0F1C
:101B800018BF70470BE0A2F101025FEA1C2040EB96
:101B9000C25038BF70471CF07F0F18BF7047C3F1A9
:101BA0002003994014BF401E20F0010070478008B8
:101BB0004FEA122308BF7047B0FA80FCA2EB0C0278
:101BC000CCF1280C60FA0CF093EA122F04BF00EB62
:101BD000C25070474FEAC3707047130A5FEADC10C7
:101BE00008BF7047F6E79CEA026F04D010EA5C0F6A
:101BF00008BF0020704710B5FFF745FF40DFF63EF5
:101C000081F000407047000000000000000000006C
:101C1000000000000000000000080808080808088C
:101C200000001818000000486C241200000000009A
:101C30000000000000000000002424247F12121283
:101C40007F12121200000000081C2A2A0A0C182811
:101C5000282A2A1C080800000022251515152A58D4
:101C60005454542200000000000C1212120A76256F
:101C70002911916E00000006060403000000000018
:101C800000000000000000402010100808080808AC
:101C90000810102040000002040808101010101056
:101CA0001008080402000000000008086B1C1C6BF0
:101CB00008080000000000000000080808087F086D
:101CC00008080800000000000000000000000000FC
:101CD0000000060604030000000000000000FE00F3
:101CE00000000000000000000000000000000000F4
:101CF0000000060600000000804040202010100870
:101D00000804040202000000001824424242424239
:101D1000424224180000000000080E0808080808C5
:101D20000808083E00000000003C4242422020100B
:101D30000804427E00000000003C4242201820407F
:101D40004042221C000000000020302824242222CF
:101D50007E20207800000000007E0202021A264049
:101D60004042221C0000000000382402021A2642D1
:101D70004242241800000000007E222210100808B1
:101D80000808080800000000003C424242241824D1
:101D90004242423C00000000001824424242645883
:101DA0004040241C00000000000000001818000043
:101DB00000001818000000000000000000080000EB
:101DC000000000080804000000402010080402047D
:101DD0000810204000000000000000007F0000000C
:101DE0007F000000000000000002040810204020D6
:101DF0001008040200000000003C4242464020104F
:101E00001000181800000000001C225A55555555A6
:101E10002D42221C00000000000808181414243C65
:101E2000224242E700000000001F2222221E22421E
:101E30004242221F00000000007C424201010101D9
:101E40000142221C00000000001F22424242424286
:101E50004242221F00000000003F4212121E1212D6
:101E60000242423F00000000003F4212121E1212C6
:101E70000202020700000000003C22220101017161
:101E80002122221C0000000000E7424242427E4222
:101E9000424242E700000000003E08080808080827
:101EA0000808083E00000000007C10101010101000
:101EB00010101010110F0000007722120A0E0A12E3
:101EC0001222227700000000000702020202020232
:101ED0000202427F000000000077363636362A2A9A
:101EE0002A2A2A6B0000000000E346464A4A525262
:101EF0005262624700000000001C22414141414102
:101F00004141221C00000000003F424242423E028A
:101F10000202020700000000001C22414141414131
:101F20004D53321C60000000003F4242423E1212FC
:101F3000222242C700000000007C42420204182016
:101F40004042423E00000000007F4908080808089F
:101F50000808081C0000000000E7424242424242DA
:101F60004242423C0000000000E742422224241486
:101F70001418080800000000006B494949495555EC
:101F8000362222220000000000E7422424181818FC
:101F9000242442E7000000000077222214140808DD
:101FA0000808081C00000000007E21201010080412
:101FB0000442423F000000780808080808080808A2
:101FC0000808080878000000020204040808081045
:101FD000102020204040001E101010101010101073
:101FE000101010101E000038440000000000000017
:101FF00000000000000000000000000000000000E1
:102000000000000000FF00060800000000000000C3
:10201000000000000000000000000000003C4278CA
:10202000444242FC0000000000030202021A264261
:102030004242261A0000000000000000003844025E
:1020400002024438000000000060404040784442F2
:10205000424264D80000000000000000003C427EC4
:102060000202423C0000000000F08808087E0808D8
:102070000808083E0000000000000000007C22224A
:102080001C023C42423C000000030202023A46426B
:10209000424242E700000000000C0C00000E08085D
:1020A0000808083E00000000003030000038202002
:1020B00020202020221E0000000302020272120AC9
:1020C0001612227700000000000E08080808080811
:1020D0000808083E0000000000000000007F929207
:1020E000929292B70000000000000000003B4642C0
:1020F000424242E70000000000000000003C424273
:102100004242423C0000000000000000001B26424A
:102110004242221E020700000000000000784442F4
:102120004242447840E000000000000000774C0488
:102130000404041F0000000000000000007C4202B4
:102140003C40423E0000000000000008083E080835
:102150000808083000000000000000000063424250
:10216000424262DC000000000000000000E7422460
:1021700024140808000000000000000000EB49499A
:1021800055552222000000000000000000762418AF
:102190001818246E000000000000000000E7422430
:1021A000241418080807000000000000007E221018
:1021B0000808447E000000C020202020201020209D
:1021C00020202020C000101010101010101010102F
:1021D0001010101010100006080808080810080851
:1021E0000808080806000C32C200000000000000C9
:1021F00000000000000000000000000000000000DF
:1022000000000000000000000000000000000000CE
:1022100000000000000000000000000000000000BE
:1022200000000000000000000000000000000000AE
:10223000000000000000000000000000000000009E
:10224000C001C001C001C001C001C001C0018000C7
:10225000800080008000800080008000000000007E
:10226000000000008001C003C003800100000000E6
:10227000000000000000000000000000E01CE01C66
:10228000F01E700E380718030801840000000000DB
:10229000000000000000000000000000000000003E
:1022A000000000000000000000000000000000002E
:1022B000000000000000000000000000000000001E
:1022C000000020102010201020102010FE7FFE7F24
:1022D0001008100810081008100810081008FE7FD9
:1022E000FE7F080408040804080408040000000035
:1022F00000000000000000000000000000000001DD
:102300000001C00760191031183118391839380127
:102310007001E001C0038007000F001D003900318B
:102320001C311C310C310C11180DE00700010001AB
:10233000000100000000000000000000000000009C
:1023400000001C1036186308630C63046304630206
:1023500063026301361D9C378022806340634063C3
:1023600020632063306310221836081C0000000030
:10237000000000000000000000000000000000005D
:102380000000F00098018C018C018C018C018C0004
:10239000CC007800183E1C08360832086304630439
:1023A000C304C303834306438E26781C0000000049
:1023B0000000000000000000000000001C003C00C5
:1023C0003C003000300010000C000600000000004F
:1023D00000000000000000000000000000000000FD
:1023E00000000000000000000000000000000000ED
:1023F000000000000000000000000000004000207D
:1024000000100008000C0004000600030003000395
:1024100080018001800180018001800180018001B4
:1024200000030003000300060006000C0008001073
:102430000020004000000000000000000200040036
:1024400008001000300020006000C000C000C00084
:102450008001800180018001800180018001800174
:10246000C000C000C0006000600030001000080024
:102470000400020000000000000000000000000056
:1024800000000000000000018003800300011C71B7
:102490003C79783DC0070001C007783D3C791C714C
:1024A00000018003800380010000000000000000A4
:1024B000000000000000000000000000000000001C
:1024C0000000000000000000000100010001000108
:1024D000000100010001FC7F00010001000100017A
:1024E00000010001000100000000000000000000E9
:1024F00000000000000000000000000000000000DC
:1025000000000000000000000000000000000000CB
:1025100000000000000000000000000000000000BB
:102520000000000000001C003C003C0030003000B7
:1025300010000C0006000000000000000000000079
:10254000000000000000000000000000000000008B
:10255000000000000000FE7F0000000000000000FE
:10256000000000000000000000000000000000006B
:10257000000000000000000000000000000000005B
:10258000000000000000000000000000000000004B
:10259000000000000000000000000000000000003B
:1025A0000000000018003C003C0018000000000083
:1025B000000000000000000000000000004000607B
:1025C00000200030001000180008000C0004000675
:1025D00000020003000180018000C0004000600094
:1025E000200030001000180008000C000400060055
:1025F00002000000000000000000000000000000D9
:102600000000C007600C30181830183018200C601B
:102610000C600C600C600C600C600C600C600C605A
:102620001820183018303018600CC0070000000067
:10263000000000000000000000000000000000009A
:10264000000000018001F80180018001800180010B
:102650008001800180018001800180018001800172
:102660008001800180018001C003F81F000000008C
:10267000000000000000000000000000000000005A
:102680000000E007101C0818043004300C300C3037
:102690000030001800080004000200018000400023
:1026A0002020102008200430FC1FFC1F0000000028
:1026B000000000000000000000000000000000001A
:1026C0000000E003180E0C0C0C180C180C18001865
:1026D000000C0006C003000E00180010003000308F
:1026E0000C300C300C100C18180CE003000000002B
:1026F00000000000000000000000000000000000DA
:102700000000000C000E000E000F800E800E400E28
:10271000600E200E100E100E080E040E040EFE7F2A
:10272000000E000E000E000E000E000EC07F000016
:102730000000000000000000000000000000000099
:102740000000F03FF03F10001000100008000800EB
:10275000C807280C1818081000300030003000306E
:102760000C300C3004180418080CF00300000000B2
:102770000000000000000000000000000000000059
:102780000000800FC0102030103018001800080022
:102790000C008C0F6C183C301C600C600C600C60E2
:1027A0000C601860182030306018C007000000006E
:1027B0000000000000000000000000000000000019
:1027C0000000F83FF83F1C100C0804080404000443
:1027D0000002000200010001000180008000800072
:1027E000C000C000C000C000C000C0000000000069
:1027F00000000000000000000000000000000000D9
:102800000000E007300C18180C300C300C301C3075
:1028100038187008E007B007180E0C1C0638063090
:102820000630063006300C18180CE00300000000DB
:102830000000000000000000000000000000000098
:102840000000E00318040C080C18061006300630CF
:102850000630063006380C3C1836F03100300018CF
:10286000001800180C0C0C060C03F001000000000E
:102870000000000000000000000000000000000058
:102880000000000000000000000000000000000048
:102890008001C003C00380010000000000000000B0
:1028A000000000008001C003C003800100000000A0
:1028B0000000000000000000000000000000000018
:1028C0000000000000000000000000000000000008
:1028D000C000C00000000000000000000000000078
:1028E0000000000000000000C000C0008000800068
:1028F0004000400000000000000000000000000058
:102900000020001000080004000600038001C00041
:102910006000300018000C00180030006000C0009B
:1029200080010003000600040008001000200000E1
:102930000000000000000000000000000000000097
:102940000000000000000000000000000000000087
:10295000FE7F00000000000000000000FE7F00007D
:102960000000000000000000000000000000000067
:102970000000000000000000000000000000000057
:1029800004000800100020006000C0008001000367
:102990000006000C001800300018000C00060003B0
:1029A0008001C0006000200010000800040000004A
:1029B0000000000000000000000000000000000017
:1029C000C0073018083008600C601C601C601C6078
:1029D0000030001C000600018000800080008000A4
:1029E000000000008001C003C0038001000000005F
:1029F00000000000000000000000000000000000D7
:102A00000000C0076018103018200C2F8C4D864C29
:102A1000C64CC64C664C66446644662666266615F9
:102A2000CC1C0C40082018303018C00700000000F3
:102A30000000000000000000000000000000000096
:102A40000001C001C001C001400160032003200358
:102A500020033006100610061006F80F080C080CAC
:102A6000080C0C0C0418041806181F7C0000000049
:102A70000000000000000000000000000000000056
:102A80000000FE07181C183818301830183018309D
:102A90001818180CF8071818183018201860186043
:102AA00018601860186018301818FE0F0000000039
:102AB0000000000000000000000000000000000016
:102AC0000000C0276038103018200C400C40040073
:102AD00006000600060006000600060006000600C6
:102AE0000C400C400C2018303018C00700000000CB
:102AF00000000000000000000000000000000000D6
:102B00000000FE03180E181818301830183018601E
:102B100018601860186018601860186018601860F5
:102B20001830183018101818180EFE030000000096
:102B30000000000000000000000000000000000095
:102B40000000FE3F183018201860184018001808C0
:102B50001808180CF80F180C180818081800180096
:102B600018001840184018201830FE3F00000000E0
:102B70000000000000000000000000000000000055
:102B80000000FE7F1870184018C018801800181038
:102B900018101818F81F1818181018101800180016
:102BA000180018001800180018007E00000000002F
:102BB0000000000000000000000000000000000015
:102BC0000000C013701C101018100C200C20040002
:102BD0000600060006000600060006FC0630063069
:102BE0000C300C30183018303008C00700000000DE
:102BF00000000000000000000000000000000000D5
:102C000000003F7E0C180C180C180C180C180C182F
:102C10000C180C180C18FC1F0C180C180C180C189D
:102C20000C180C180C180C180C183F7E0000000033
:102C30000000000000000000000000000000000094
:102C40000000F81F80018001800180018001800167
:102C5000800180018001800180018001800180016C
:102C600080018001800180018001F81F00000000C8
:102C70000000000000000000000000000000000054
:102C80000000E07F000600060006000600060006C1
:102C90000006000600060006000600060006000604
:102CA00000060006000600060006000600060E06E6
:102CB0000E038E01FC000000000000000000000078
:102CC00000007E7C1818180818041806180218014D
:102CD00098019801D801B803380318071806180E90
:102CE000180C181C1818183018307EFC0000000052
:102CF00000000000000000000000000000000000D4
:102D000000007E00180018001800180018001800B5
:102D100018001800180018001800180018001800F3
:102D200018001840184018201830FE3F000000001E
:102D30000000000000000000000000000000000093
:102D400000001FF81C381C381C381C3C3434343448
:102D50003434343674326432643264326431C431AF
:102D6000C431C431C430C43084309FFC0000000042
:102D70000000000000000000000000000000000053
:102D800000001F7C1C103C103410341074106410B0
:102D9000E410C410C411841184130413041704161E
:102DA000041E041C041C041C04181F18000000004E
:102DB0000000000000000000000000000000000013
:102DC0000000C003300C181808100C300C300660DE
:102DD00006600660066006600660066006600660C3
:102DE0000C200C3008101818300CC0030000000034
:102DF00000000000000000000000000000000000D3
:102E00000000FE0F1818183018601860186018605D
:102E1000186018301818F80F18001800180018005B
:102E2000180018001800180018007E0000000000AC
:102E30000000000000000000000000000000000092
:102E40000000C003300C18180C100C300C20066069
:102E50000660066006600660066006600660066042
:102E6000E4612C331C321816300EC007004C007C75
:102E7000003800000000000000000000000000001A
:102E80000000FE07181C1838183018301830183099
:102E90001818180CF80798031803180718061806CE
:102EA000180E180C180C181C18187E78000000005A
:102EB0000000000000000000000000000000000012
:102EC0000000E027303818300C200C200C000C00DB
:102ED00018007800E003800F001E003800700060CA
:102EE00004600460086018303818C80F0000000043
:102EF00000000000000000000000000000000000D2
:102F00000000FC3F8C21846182418241800180016C
:102F100080018001800180018001800180018001A9
:102F200080018001800180018001E0070000000035
:102F30000000000000000000000000000000000091
:102F400000003F7C0C100C100C100C100C100C101E
:102F50000C100C100C100C100C100C100C100C1091
:102F60000C100C100C1008083804E00300000000DE
:102F70000000000000000000000000000000000051
:102F800000003EF8182018201820301030103010A3
:102F90003010600860086008E00CC004C004C00481
:102FA0008003800380038003000100010000000013
:102FB0000000000000000000000000000000000011
:102FC0000000DFF38661862186218C210C218C2371
:102FD0008C138C138C134C1358125816580E380E31
:102FE000380E380E300C10041004100400000000DD
:102FF00000000000000000000000000000000000D1
:1030000000007E3E18083808300430047002600268
:10301000E001C001C0018001800340034007200699
:103020002006100C100C081808183E7C0000000048
:103030000000000000000000000000000000000090
:1030400000007E7C1C10181018083008300C70042A
:1030500060046002C002C002C001800180018001E2
:1030600080018001800180018001E00700000000F4
:103070000000000000000000000000000000000050
:103080000000F83F18180818040C040E000600078A
:10309000000380038001C001C000E00060007000F8
:1030A0003000382018201C100C18FE1F00000000F3
:1030B000000000000000000000000000C03F4000D1
:1030C0004000400040004000400040004000400000
:1030D00040004000400040004000400040004000F0
:1030E00040004000400040004000400040004000E0
:1030F000C03F0000000000000000000000000000D1
:103100000800180018001000300020006000600067
:103110004000C00080008001800100010003000227
:10312000000600060004000C00080018001800103B
:10313000003000200000000000000000FC0300023E
:10314000000200020002000200020002000200026F
:10315000000200020002000200020002000200025F
:10316000000200020002000200020002000200024F
:10317000FC03000000000000000000008007C00603
:1031800020081010000000000000000000000000F7
:10319000000000000000000000000000000000002F
:1031A000000000000000000000000000000000001F
:1031B000000000000000000000000000000000000F
:1031C00000000000000000000000000000000000FF
:1031D00000000000000000000000000000000000EF
:1031E00000000000000000000000000000000000DF
:1031F00000000000FFFF0000000000007800C00099
:1032000000010000000000000000000000000000BD
:1032100000000000000000000000000000000000AE
:10322000000000000000000000000000000000009E
:10323000000000000000000000000000000000008E
:10324000000000000000000000000000000000007E
:10325000F00318060C0C0C0C000C800F700C1C0CEE
:103260000C0C060C060C064C0C4FF8380000000045
:10327000000000000000000000000000000000004E
:1032800010001E0018001800180018001800180080
:10329000180FD81838303860186018601860186037
:1032A00018601860182038307818C807000000002F
:1032B000000000000000000000000000000000000E
:1032C00000000000000000000000000000000000FE
:1032D000C007700C181818180C180C000C000C0003
:1032E0000C000C20182018103008C0070000000047
:1032F00000000000000000000000000000000000CE
:103300000010001E001800180018001800180018FF
:10331000E01B301C181818180C180C180C180C1876
:103320000C180C180818181C307AE009000000006E
:10333000000000000000000000000000000000008D
:10334000000000000000000000000000000000007D
:10335000C007300C181808100C300C30FC3F0C0063
:103360000C000C00182018107018C0070000000096
:10337000000000000000000000000000000000004D
:103380000000003E80C380C0C0C0C000C000C000BC
:10339000FC1FC000C000C000C000C000C000C000D2
:1033A000C000C000C000C000C000F80F0000000056
:1033B000000000000000000000000000000000000D
:1033C00000000000000000000000000000000000FD
:1033D000C077306C10181818181818181018300CFE
:1033E000F00718001800F00FF03F08700C600C6038
:1033F0000C603838E00F0000000000000000000002
:1034000010001E00180018001800180018001800FE
:10341000980FD81838301830183018301830183045
:10342000183018301830183018307EFC00000000BA
:10343000000000000000000000000000000000008C
:1034400000008003800380030000000000000001F2
:10345000F8018001800180018001800180018001EC
:1034600080018001800180018001F81F00000000C0
:10347000000000000000000000000000000000004C
:103480000000003800380038000000000000001084
:10349000801F0018001800180018001800180018E5
:1034A000001800180018001800180018001800185C
:1034B000180C1806F00300000000000000000000D7
:1034C00010001E001800180018001800180018003E
:1034D000183E180C1806180318019801D801380373
:1034E00018071806180C181C18187E7C000000001D
:1034F00000000000000000000000000000000000CC
:103500000001F801800180018001800180018001BB
:1035100080018001800180018001800180018001A3
:1035200080018001800180018001F81F00000000FF
:10353000000000000000000000000000000000008B
:103540000000000000000000000000000000080073
:10355000EE1C9C338C318C318C318C318C318C3124
:103560008C318C318C318C318C31DE7B0000000051
:10357000000000000000000000000000000000004B
:10358000000000000000000000000000000010002B
:103590001E0FD8183830183018301830183018303E
:1035A000183018301830183018307EFC0000000039
:1035B000000000000000000000000000000000000B
:1035C00000000000000000000000000000000000FB
:1035D000C007701C103018300C600C600C600C6060
:1035E0000C600C60183018303018C0070000000064
:1035F00000000000000000000000000000000000CB
:1036000000000000000000000000000000001000AA
:103610009E0F58183830182018601860186018600D
:10362000186018601830383078189807180018009B
:10363000180018007E0000000000000000000000DC
:10364000000000000000000000000000000000007A
:10365000C023303C183818300C300C300C300C3093
:103660000C300C3008301838303CE033003000307B
:103670000030003000FC00000000000000000000EE
:1036800000000000000000000000000000006000DA
:103690007E3C60666061E000E00060006000600009
:1036A00060006000600060006000FE070000000035
:1036B000000000000000000000000000000000000A
:1036C00000000000000000000000000000000000FA
:1036D000E02730381830182018007000E003800F01
:1036E000001C043004300C301C18EC0F00000000EB
:1036F00000000000000000000000000000000000CA
:10370000000000000000800080008000C000E00099
:10371000FC1FC000C000C000C000C000C000C0004E
:10372000C000C000C020C0208011000F00000000B9
:103730000000000000000000000000000000000089
:103740000000000000000000000000000000102049
:103750001E3C183018301830183018301830183017
:10376000183018301830183830F4E013000000001A
:103770000000000000000000000000000000000049
:103780000000000000000000000000000000000039
:103790007E3C1818180838083004300470026002A3
:1037A0006002E001C001C001C00080000000000014
:1037B0000000000000000000000000000000000009
:1037C00000000000000000000000000000000000F9
:1037D000DFF78E630C238C238C23981398135816D1
:1037E0005816700E700E700E2004200400000000A9
:1037F00000000000000000000000000000000000C9
:1038000000000000000000000000000000000000B8
:10381000FC3E70087004E004C002C0018003800315
:1038200040076006200C100C18183E7E00000000B7
:103830000000000000000000000000000000000088
:103840000000000000000000000000000000000078
:103850007E7C1818180830083008300460046004B2
:10386000C002C002C002800180018001800080008F
:1038700080004C003C000000000000000000000040
:103880000000000000000000000000000000000038
:10389000FC1F0C0C040E0406000380038001C00012
:1038A000E0007020302038301C18FC1F00000000A1
:1038B00000000000000000000000000000300008D0
:1038C00000040004000400040004000400040004D8
:1038D000000400040002800100020004000400044F
:1038E00000040004000400040004000400040004B8
:1038F000000800300000000100010001000100018B
:1039000000010001000100010001000100010001AF
:10391000000100010001000100010001000100019F
:10392000000100010001000100010001000100018F
:103930000001000100010000000000000C00100068
:103940002000200020002000200020002000200077
:1039500020002000400080014000200020002000C6
:103960002000200020002000200020002000200057
:1039700010000C00000000003800C4008640026106
:103980000022001C000000000000000000000000F9
:103990000000000000000000000000000000000027
:1039A0000000000000000000000000000000000017
:1039B000000000000000D6D0800080008000800061
:1039C000FC1F84108410841084108410FC1F841049
:1039D0008000800080008000BEB0F80F0808F80F5B
:1039E0000808F80F8000FF7F0000F80F080808089B
:1039F000F80F80008410A2204000D4B00000FE3FE9
:103A00000220F22702200220FA2F22212221222145
:103A1000122912290A2E0220FE3F0220B5E780005B
:103A200080008000FC1F841084108410FC1F841010
:103A300084108410FC1F845080408040007FD7D3C6
:103A40000000FE1F00080004000280018000FF7FCC
:103A5000800080008000800080008000A000400086
:103A6000D6D0000000000000001800000800000888
:103A700000000800080818F8FF1F18081818081890
:103A8000180818180818180818180818F8FF1F0838
:103A900008080008000008000008000008000018DE
:103AA00000001800001800000000BEB00000000078
:103AB0000000400006C0FF07400006C0FF074000AE
:103AC00006C0FF07400802003000FEFF3F00000074
:103AD000C0FF07C00002C00002C00002C0FF038098
:103AE000100080110160100E3010180C1E30001CE8
:103AF00000000000D4B0000000000000080030F812
:103B0000FF1F08001008C010083F10080010080030
:103B100010080013C8FF10082210082210082210F5
:103B200008221008211208211488601648C01328A2
:103B30000010080010F8FF1F080010000000B5E793
:103B4000000000000000001800000800000800004D
:103B50000800F0FF0F1008041008041008041008F3
:103B600004F0FF07100804100804100804100804EB
:103B7000F0FF0710080000081000081000082000DF
:103B8000183000F01F000000D7D300000000000034
:103B9000000004F0FF0F00000600000100C000005C
:103BA0002800001800001800001830FEFF7F0018E1
:103BB000000018000018000018000018000018008D
:103BC000001800001800001800001F00000C000082
:103BD0000000D6D0000000000000000000800000BF
:103BE00000800100008001000080010000800100D1
:103BF000008001001080010CF0FFFF0F30800104F5
:103C000030800104308001043080010430800104E0
:103C1000308001043080010430800104F0FFFF0790
:103C20003080010430800104008001000080010028
:103C30000080010000800100008001000080010080
:103C40000080010000800100008001000080000071
:103C500000000000BEB000000000000000000000F6
:103C600000000001800100FFFF010003800100034C
:103C7000800100FFFF01000380010003800100FFBD
:103C8000FF0100818100000003000000031CFCFF15
:103C9000FF3F000040000003C00100FFFF010003E0
:103CA000C0000003C0000003C00000FFFF000001CF
:103CB000410000040100000E710000078101800135
:103CC00001076000010E1898011C04E0011800C0F3
:103CD000000000000000D4B0000000000000000060
:103CE00000000008F0FFFF1F3000000C3000000C47
:103CF0003000100C30FE3F0C3004000C3000000C83
:103D00003000000C3000000C3000C00CF0FFFF0D44
:103D10003030060E3030060C3010060C3010060C19
:103D20003010060C3018860C3018860C3008060D42
:103D3000300C860D3006EE0F3002FC0D3001000C09
:103D4000F000000C3000000CF0FFFF0F3000000C02
:103D50001000000400000000B5E7000000000000B3
:103D6000000000C0000000C0010000C0000000C052
:103D7000000000C0000000C00000E0FFFF0360C0C2
:103D8000000360C0000360C0000360C0000360C0A7
:103D9000000360C00003E0FFFF0360C0000360C0D9
:103DA000000360C0000360C0000360C00003E0FFC8
:103DB000FF0360C0000160C0000000C0000800C038
:103DC000001000C0001000C0001800C001380080C2
:103DD000FF1F0000000000000000D7D3000000001B
:103DE000000000000000000000000003C0FFFF070B
:103DF000000080070000C000000060000000180004
:103E000000000C000080030000800300008001001F
:103E1000008001080080011CFCFFFF3F00800100C2
:103E2000008001000080010000800100008001008E
:103E3000008001000080010000800100008001007E
:103E400000800100008001000080010000FC0100F2
:103E500000E0000000400000000000007C3E000880
:103E600000000020242800006C0100081C4000080D
:103E7000242800202C1B0000D0010008500600A2BE
:103E80004A040001000D1E01020304060708099AF6
:103E900099DB4104100C0AD7EB41C3F5094285EBCD
:103EA0000704A3014220100C8FC2E7410000054225
:103EB000EC511320900A1342CDCC0942AE47E35493
:103EC0001006EB41CDCC0118100A1142000013423C
:103ED0000AD7040C3006E041295CEB20200FAE47E6
:103EE000DB4148E10542295C11423D0A2032FB706A
:103EF0001004CDCCD80452C244100AFB415C8F0F91
:103F00004233330E60C180412012F320320B7CE13A
:103F100020300485EB03143004713D0A0421208114
:103F2000C407FFB3410005FF0005FF0005FF000DBA
:103F30007A04052DE404051A0481E4093604061DFB
:103F4000B30405FF0005FF0005FF0005FF0005584D
:103F5000046DE8050D1604056DE809051604CDE8A5
:103F600005093A040611010407FF05420005FF0098
:103F700005FF0005FF000DFF000605FF0005FF001F
:103F800005FF0005FF000D7D00141C04713D0EF8B7
:103F9000050E170F00102DF4050D1A00104DFC0F23
:103FA0000D1000108005C3F501421C41040C048F64
:103FB000F62802001105FF0005FF0005FF00059728
:103FC000000D660014051204ADFC0A093404061D38
:103FD000B30405FF0005FF0005FF0005FF000D4CC1
:103FE00000100C04370AD7180014E504ED0010097E
:103FF000A20405FF0005FF0005FF0005CF000D32FC
:10400000FC040DF2000705FF0005FF0005FF000599
:0C401000AB00B004DC0500010000000063
:0400000508000131BD
:00000001FF
